:020000040800F2
:1000000080490020810200082D2500088121000878
:1000100081240008B10500086D2C000800000000D4
:10002000000000000000000000000000C101000806
:10003000F1070008000000001D020008E527000885
:100040009B0200089B0200089B0200089B0200081C
:100050009B0200089B0200089B0200089B0200080C
:100060009B0200089B0200089B0200089B020008FC
:100070009B0200089B0200089B0200089B020008EC
:100080009B0200089B0200089B020008C1050008B3
:10009000B50500089B0200089B0200089B020008AF
:1000A0009B0200089B0200089B0200089B020008BC
:1000B000B12800089B0200089B0200089B02000870
:1000C0009B0200089B0200089B0200089B0200089C
:1000D0009B020008492C00089B0200089B020008B4
:1000E0009B0200089B0200089B0200089B0200087C
:1000F0009B0200089B0200089B0200089B0200086C
:100100009B0200089B0200089B0200089B0200085B
:100110009B0200089B020008BD2800089B02000803
:100120009B0200089B020008350700089B0200089C
:100130009B0200089B0200089B0200089B0200082B
:100140009B0200089B0200089B0200089B0200081B
:100150009B020008410700089B020008612C000870
:100160009B0200089B0200089B0200089B020008FB
:100170009B0200089B0200089B0200080000000090
:100180009B0200089B0200089B0200089B020008DB
:100190009B0200089B0200089B0200089B020008CB
:1001A00000000000000000009B020008DFF80CD0F7
:1001B00000F0ECF900480047D12D000880490020EC
:1001C0002C4B19680868B0E8F04F80F30988BFF33A
:1001D0006F8F4FF0000080F311887047000000001F
:1001E00008480068006880F308884FF0000080F33A
:1001F000148862B661B6BFF34F8FBFF36F8F00DF15
:1002000000BF00BF08ED00E0DFF80C00016841F41A
:1002100070010160704700BF88ED00E0EFF30980D6
:10022000BFF36F8F134B1A681EF0100F08BF20ED3D
:10023000108A20E9F04F106009B44FF0500080F3AD
:100240001188BFF34F8FBFF36F8F03F00DFC4FF09A
:10025000000080F3118809BC19680868B0E8F04F05
:100260001EF0100F08BFB0EC108A80F30988BFF3AE
:100270006F8F704750000020EFF30580704700003B
:100280000648804706480047FEE7FEE7FEE7FEE730
:10029000FEE7FEE7FEE7FEE7FEE7FEE7952800083B
:1002A000AD0100082DE9F05F0546002092469B460F
:1002B00088460646814640241BE02846414647467C
:1002C000224600F0F5F853465A46C01A914110D321
:1002D00011461846224600F0DCF82D1A67EB01089B
:1002E0004F4622460120002100F0D3F817EB000909
:1002F0004E41201EA4F10104DFDC484631462A4667
:100300004346BDE8F09F40EA01039B0703D009E0A4
:1003100008C9121F08C0042AFAD203E011F8013BF1
:1003200000F8013B521EF9D27047D2B201E000F84A
:10033000012B491EFBD270470022F6E710B5134689
:100340000A4604461946FFF7F0FF204610BD2DE986
:10035000FE4F81EA030404F0004421F000410094C0
:100360004FF0000B23F0004350EA01045ED052EA44
:1003700003045BD0C3F30A54C1F30A552C44A4F21E
:10038000F3340194A0FB0254C1F3130141F4801132
:10039000C3F3130343F4801301FB024400FB034E39
:1003A000840A970A44EA815447EA8357A4FB076802
:1003B00002958D0A05FB07854FEA932C04FB0C542C
:1003C0002705029D4FEA065847EA1637B5EB0805A0
:1003D0006EEB070C870E920E47EA811742EA8312F2
:1003E000A7FB0201B6EB0B0164EB00042B0D43EA03
:1003F0000C335E1844EB1C50DA465146E7FB020111
:10040000C5F313044FEA0B3343EA14534FEA0432A3
:10041000019C43EA0603A4F10C040294009CCDE97C
:1004200000B400F064F803B0BDE8F08F002001468E
:10043000F9E70EB5C10F80EAE0700844CA07002151
:1004400040F233438DE80E000A460B4600F04FF8A9
:1004500003B000BD70B5C1F30A5201F0004500249D
:10046000C1F3130140F2FF3341F480119A4201DAE3
:10047000002070BD40F233439A42A2F2334203DCC3
:10048000524200F015F800E090402C43F1D0404279
:1004900070BD202A04DB203A00FA02F100207047E8
:1004A0009140C2F1200320FA03F3194390407047B2
:1004B000202A04DB203A21FA02F00021704721FAB9
:1004C00002F3D040C2F12002914008431946704720
:1004D00010B5141E73F1000408DA401C41F100014C
:1004E00092185B411A4301D120F0010010BD2DE9A3
:1004F000F04D92469B4611B1B1FA81F202E0B0FA9A
:1005000080F220329046FFF7C4FF04460F4640EACF
:100510000A0041EA0B0153465A46084313D01146DC
:1005200053EA010019D0C8F140025046FFF7C0FF5E
:1005300005460E46504659464246FFF7AAFF084375
:1005400005D0012004E020463946BDE8F08D0020AA
:10055000054346EAE0762C4337430A986305E40AEC
:10056000A0EB08000022FD0A44EA47540A3002D5F5
:1005700000200146E9E7010510196941DDE9084558
:1005800000196941BDE8F04DA2E70000064C074D97
:1005900006E0E06840F0010394E807009847103453
:1005A000AC42F6D3FFF706FEC43E0008E43E000866
:1005B000FEE70000014800F08EBA0000BC040020F5
:1005C000014800F088BA0000BC04002000B58BB0E0
:1005D00000200121CDE906010590009001900290D4
:1005E000039004900E20CDE908106946054800F0FC
:1005F00077F9044800F072FC0221024800F0FAF892
:100600000BB000BDBC0400202DE9F0410D460646AC
:100610001446401B20442DED028B4042FFF709FF9A
:100620009FED178B53EC182BFFF791FEFFF712FF8E
:10063000154F3860A81B20444042FFF7FAFE53ECE8
:10064000182BFFF784FEFFF705FF35447860281963
:10065000FFF7EFFE53EC182BFFF779FEFFF7FAFEDA
:10066000B860601BFFF7E5FE53EC182BFFF76FFE39
:10067000FFF7F0FEF860BDEC028BBDE8F0810000F2
:100680003333333333331D40B00000202DE9F041C4
:1006900000242DED028B4FF47A751B4E9FED1B8AC3
:1006A000DFED1B8AEF0000BF04EB041006EB8000B7
:1006B0002A463946B0EE481AF0EE680AB0EE040A4F
:1006C000103001F05FFD641C042CEDDB44F6206467
:1006D0002A462146B0EE481AF0EE480AB3EE090A5F
:1006E0000C4801F025FFB0EE481AF0EE480ABDECC8
:1006F000028B2A462146BDE8F04106489FED060AD6
:10070000543801F03FBD0000C00000200000000090
:10071000CDCC4C3F34020020CDCCCC3E0448B0F9C7
:100720000020B0F90410B0F90600FFF76DBF00001B
:1007300082080020014800F017BC00000C060020D1
:10074000014800F011BC00006C060020016818236D
:10075000CAB2103AB2FBF3F2054B6FF30901032A58
:100760009B5CC36500D9091D816508467047000080
:10077000803E000810B5014600208B698A6A4FF060
:10078000C07453B1B3F5005F15D072B1012A0CD01B
:10079000022A0AD0032A09D104E01AB1012A06D09C
:1007A000022A03D1C96AC90100D5012010BDC96A56
:1007B000A142FAD010BD002AF7D0012AF2D0022AB5
:1007C000F3D0032AF3D010BD30B50468256825F4B2
:1007D00080252560046863608368402B036803D02C
:1007E00099600068C26030BD9A600068C16030BD29
:1007F0007047704790F82020012A07D0022A05D0C0
:10080000416A41F4802141620120704700684269D9
:100810000A43426100207047F0B590F82050046808
:10082000A468012D05D0022D03D0416A41F4802136
:1008300053E014F0406F01D1E5004BD5C4F30164DF
:10084000022C03D9416A41F4000146E00125A5408C
:100850001D608D684FF4C0739DB1CE6835434E68FE
:1008600045EAC605066803EB0417F5514FF4C27557
:10087000076805EB04150E697E51097D012905D035
:1008800009E00E88CD6845EA4655EBE701684E5908
:1008900046F480764E511179D2F805504FF4C67661
:1008A00041EA0525016806EB04168D511178D2F84E
:1008B00001204FF4C47541EA0221026805EB0415DA
:1008C0005151006803EB0411425842F001024250BA
:1008D0000020F0BD416A41F4001141620120F0BDE9
:1008E00010B590F82020012A07D0022A05D0416ACD
:1008F00041F480214162012010BD3B48D0F8002224
:1009000042F00102C0F80022D0F8002222F47C520A
:10091000C0F80022D0F800224B6A42EA0322C0F855
:1009200000220A7D02F01F0301229A40D0F81C32F7
:100930009343C0F81C32CB69B3B9D0F80C3293435F
:10094000C0F80C328C894B6864F31F434C6900EB90
:10095000C404C4F840320C890B6864F31F434C692B
:1009600000EBC404C4F84432CB69012B16D1D0F893
:100970000C321343C0F80C320C884B6864F31F43ED
:100980004C6900EBC404C4F840320C89CB6864F3B2
:100990001F434C6900EBC404C4F844328B69002B3C
:1009A000D0F804320ED01343C0F804320B69002B88
:1009B000D0F8143208D01343C0F81432096A012960
:1009C00004D008E09343EFE79343F5E7D0F81C1217
:1009D0001143C0F81C12D0F8001221F00101C0F838
:1009E0000012002010BD000000640040704730B5C8
:1009F00090F82040012C05D0022C03D0416A41F42C
:100A000080215DE00468002955D02469A40754D0F2
:100A10004FF4D874056804EB01142D5915F0040542
:100A2000956005682D594ED0ED08556005682C5924
:100A300004F00204D4604FF4DA74056804EB011486
:100A40002D5905F00F05156105682D59C5F30725CA
:100A5000956105682C59240C54614FF4DC720468CC
:100A600002EB0112A4581C700468A458240A5C709C
:100A70000468A458240C9C700468A258120EDA7002
:100A80004FF4DE72046802EB0112A4581C71046872
:100A9000A458240A5C710468A458240C9C7104684E
:100AA000A258120EDA71006881B1016941F020018B
:100AB0000161002030BDE468A8E7416A41F40011FB
:100AC0004162012030BD6D0D1560AFE7C16841F096
:100AD0002001C160EDE72DE9F05F054600680024C4
:100AE0004669D0F804908768D0F80CB0D0F810A010
:100AF000D0F81880F10748D0F90714D0012181609F
:100B0000B80703D5284600F016FA0CE0780702D59E
:100B10004FF4006407E0380702D54FF4805402E038
:100B2000284600F007FAF80516D529684FF48070BA
:100B30008860B80503D5284600F0FFF90CE0780579
:100B400002D544F4005407E0380502D544F480444B
:100B500002E0284600F0F0F9F80316D529684FF4B2
:100B600080308860B80303D5284600F0E8F90CE02F
:100B7000780302D544F4004407E0380302D544F476
:100B8000803402E0284600F0D9F9300707D55FEA43
:100B9000CB6004D52968102044F40074C860700745
:100BA0004FF0080707D55FEA0B7004D52868C760C7
:100BB000284600F05FF9B00706D52868C0688007AE
:100BC00002D0284600F058F9700607D55FEACA60DF
:100BD00004D52968102044F480640861B00607D564
:100BE0005FEA0A7004D528680761284600F072F9A8
:100BF000F00606D528680069800702D0284600F074
:100C00006AF9B00308D55FEAC96005D529681020E4
:100C10004860284600F060F9F00307D55FEA0970E4
:100C200004D528684760284600F08AF9300446D584
:100C30005FEA497040D5F00504D55FEAC87001D07D
:100C400044F00104B00504D55FEA887001D544F092
:100C50000204700504D55FEA487001D544F004042D
:100C6000300529D518F0700F26D008F07000402804
:100C700015D006DC102809D020280AD0302816D13B
:100C80000AE050280ED0602811D10EE044F008048C
:100C90000DE044F010040AE044F0200407E044F0C2
:100CA000400404E044F0800401E044F480742868C7
:100CB000816921F070018161296804204860002C5D
:100CC00005D0686A204368622846FFF78FFEBDE8BA
:100CD000F09F70B5040003D094F8200010B104E038
:100CE000012070BD204600F081F82068016821F0E5
:100CF0000201016000F080FB0546052604E000F0DB
:100D00007BFB401B0A2811D8206840688007F6D476
:100D10002068016841F00101016000F06DFB0546AB
:100D20000BE000F069FB401B0A2806D9606A40F41A
:100D30000030606284F82060D2E720684068C00715
:100D4000EFD0207E0128206801683DD021F080018D
:100D50000160607E01282068016838D021F04001E0
:100D60000160A07E01282068016833D021F02001B5
:100D70000160E07E0128206801682ED041F010015A
:100D80000160207F01282068016829D021F0080136
:100D90000160607F01282068016824D021F00401EF
:100DA0000160D4E902010843D4E904121143084365
:100DB0006168491E08432168C86100206062012003
:100DC00084F82000002070BD41F08001C0E741F0B0
:100DD0004001C5E741F02001CAE721F01001CFE74B
:100DE00041F00801D4E741F00401D9E710B586B01D
:100DF000044614216846FFF79FFA1B492068884281
:100E00002FD11A480021026842F000720260006887
:100E100000F00070059015481038026842F0080292
:100E200002600068022200F0080005900320CDE96E
:100E30000210CDE900020920049069460C4800F038
:100E4000F1F900221146132000F05EFB132000F0A0
:100E50004DFB00221146142000F056FB142000F038
:100E600045FB06B010BD0000006400404038024061
:100E7000000C02407047000000B58BB001AB03AA24
:100E80000021FFF7B4FD0398A0F2012007281AD82B
:100E90000E49C0B200EB800208700D4901EB420020
:100EA00031F812300381BDF804305BBA21F81230FA
:100EB000BDF8061049BA4180BDF8081049BA8180D2
:100EC0009DF80A1081710BB000BD000020000020C9
:100ED000FC040020704770477047000070B504465E
:100EE00090F82000012804D0606A40F4002060627D
:100EF00018E0022084F820002068016821F0010138
:100F0000016000F079FA05460EE000BF00F074FAC7
:100F1000401B0A2808D9606A40F40030606205204E
:100F200084F82000012070BD20684068C007EDD122
:100F3000606270BD70477047704770477047704778
:100F4000704790F83510022903D0802141650120B7
:100F50007047052180F835100068016821F0010113
:100F600001600020704700002DE9F84304464FF06F
:100F70000009CDF8009063484FF41651A56D006844
:100F8000B0FBF1F72E6894F85C10082000FA01F12C
:100F900031420FD021680A6852070BD50A6822F047
:100FA00004020A6094F85C108840A860606D40F00C
:100FB0000100606594F85C104FF0010808FA01F038
:100FC000304208D021684969090604D5A860606DDF
:100FD00040F00200606594F85C10042088403042C4
:100FE00008D021680968890704D5A860606D40F0C1
:100FF0000400606594F85C1010208840304218D0DE
:1010000021680968090714D5A860206801684903A8
:1010100004D50068000308D5A16C07E00168C90584
:1010200003D4016821F008010160216C09B1204658
:10103000884794F85C1020208840304231D02168E5
:101040000968C9062DD5A86094F8350005282068E0
:10105000016806D0490347D5006800031DD4616CC0
:101060001CE021F0160101602068416921F0800137
:101070004161206C08B9A06C20B12068016821F0A2
:101080000801016094F85C103F208840A86084F853
:10109000349084F83580216D1FE0E16B09B1204662
:1010A0008847606D00282BD0606DC00714D00520E4
:1010B00084F835002068016821F001010160009882
:1010C000401C0090B84203D820680068C007F6D1E1
:1010D00084F8349084F83580E16C002910D001B098
:1010E0002046BDE8F04308470168C905D5D401682A
:1010F00021F01001016084F8349084F83580CCE749
:10110000BDE8F8834C0000202DE9F041044600F0D2
:1011100073F906465CB1002584F83450022084F847
:1011200035002068016821F0010101600DE0012017
:10113000BDE8F08100F060F9801B052805D920206A
:101140006065032084F83500F2E720680068C00776
:10115000F0D12268116820480140D4E90103184306
:10116000D4E903363343184363691843A36918432A
:10117000E3691843236A18430843616A042903D1C9
:10118000D4E90B1319430843106020684069666A6C
:1011900020F0070130460E43012704280CD1A06A35
:1011A0000643E06A40B12046FFF7E4FA20B1402050
:1011B000606584F83570BAE7206846612046FFF71D
:1011C000C5FA94F85C203F2191408160656584F800
:1011D00035700020ACE700003F8010F070B5044689
:1011E00090F83400002501280CD0012084F8340048
:1011F00094F835600020012E06D084F834000225D2
:10120000284670BD022070BD022684F835606065F6
:101210002046FFF7D9FA2068016841F0010101601A
:10122000EEE700002DE9F84F00224FF001080325FA
:101230004FF00F0E0B6808FA02F42340A3426ED160
:101240004E68012E05D0022E03D0112E01D0122E91
:1012500012D186684FEA420C05FA0CF7BE43CF68FC
:1012600007FA0CF7374387604668A6430C79C4F346
:101270000014944034434460C668570005FA07FCE4
:101280008C6826EA0C06BC403443C4604C68022CCF
:1012900001D0122C13D1D40800EB8404A346D4F857
:1012A000209054074FEAD46A0EFA0AF629EA060992
:1012B0000E6906FA0AF646EA0906CBF820600468C9
:1012C0000E7924EA0C0406F00306BE4026430660AD
:1012D0004C68E4006FD53B4C266846F48046266097
:1012E000246822F0030604F480440094364C34440D
:1012F000A446D4F808489607360F0EFA06F7BC4302
:10130000324FB84201D100272EE0314FB84201D10F
:10131000012729E02F4FB84202D1022724E04AE0FA
:101320002D4FB84201D103271EE02C4FB84201D106
:10133000042719E02A4FB84201D1052714E0294FAC
:10134000B84201D106270FE0274FB84201D1072745
:101350000AE0264FB84201D1082705E0244FB842E1
:1013600001D1092700E00A27B7402743CCF80878C5
:10137000204E34684F689C43FF0300D51C43346003
:101380001C4E361D34684F689C43BF0300D51C4378
:101390003460184E083634684F689C43FF0200D50D
:1013A0001C433460134E0C3634684F689C43BF02B4
:1013B00000D51C433460521C102AFFF43BAFBDE83B
:1013C000F88F000044380240003001400000024025
:1013D0000004024000080240000C024000100240DD
:1013E0000014024000180240001C0240002002408D
:1013F00000240240003C0140014880687047000022
:1014000040000020024881680278114481607047E2
:10141000400000200B4810B5016841F400710160E4
:10142000016841F480610160016841F480710160EC
:10143000032000F089F8002000F006F800F03EF8E4
:10144000002010BD003C024010B5014688B00022CB
:10145000362000F059F8362000F048F813480024F0
:10146000016841F010010160006805A900F010005A
:101470000690684600F014F900F032F90C4940007B
:10148000B0FBF1F10C480B4A491E026040F2E73212
:10149000C0E90324C0E9011400F06CFB10B1012085
:1014A00008B010BD044800F09DFBF9E74038024049
:1014B00040420F0000100040CC0600200A4808B54A
:1014C000016841F480410160006800F480400090B0
:1014D0000548001F016841F080510160006800F07C
:1014E0008050009008BD000044380240002809DB0D
:1014F00000F01F02012191404009800000F1E0202E
:10150000C0F8001170470000F0B40E4B1B680C4689
:10151000C3F30223C3F10705042D00D90425191DC7
:10152000072901D2002300E0DB1E012606FA05F19F
:10153000491E214099409E40761E16403143F0BC22
:1015400001F095BB0CED00E0064900F007020868C9
:101550004FF6FF03184040EA0220034A1043086098
:10156000704700000CED00E00000FA052DE9F0479F
:101570000E46050065D0DFF81481D8F80000F7B2F8
:1015800000F00F00B04207D288F80070D8F80000D1
:1015900000F00F00B04254D128683D4C810712D5AD
:1015A000400703D5206840F4E05020602878000709
:1015B00003D5206840F4604020602068A96820F0CE
:1015C000F000084320602878C0072DD030496868B3
:1015D0000839012812D0022813D0032811D0096835
:1015E000890700292DDA216821F0030101432160D8
:1015F000FFF702FF814641F2883A0EE0096889034D
:10160000EFE709688901ECE7FFF7F6FEA0EB0901B7
:10161000514502D90320BDE8F0872068696800F0D1
:101620000C00B0EB810FEFD1D8F80010404601F06C
:101630000F01B14207D90770006800F00F00B042F7
:1016400001D00120E7E72878400705D52068E96840
:1016500020F4E050084320602878000706D5206871
:10166000296920F4604040EAC100206000F058F889
:101670002168084AC1F30311515CC840064908605B
:1016800006480068FFF7E0FE0020C4E7003C024087
:1016900008380240883E00084C000020440000202A
:1016A0000F2202600C4A136803F0030343601368BF
:1016B00003F0F0038360136803F4E053C36012681F
:1016C0004FF4E05303EAD20202610448006800F0DC
:1016D0000F0008607047000008380240003C0240DC
:1016E0000448054900680968044AC1F38221515C35
:1016F000C84070474C00002008380240983E00085F
:101700000448054900680968044AC1F34231515C44
:10171000C84070474C00002008380240983E00083E
:10172000154810B5006810F00C02144813D0144985
:10173000042A0FD0082A0ED10F4C241F22682368D8
:1017400002F03F025B0207D52068C0F38810A0FBBF
:10175000010106E0084610BD2168C1F38811A1FB14
:1017600000010023FEF79EFD2168C1F30141491CE1
:101770004900B0FBF1F010BD083802400024F4002D
:10178000001BB7002DE9F84F04006ED02078DFF879
:101790003C93C007A9F104054AD009F1040001688F
:1017A000C1F38101012908D00068C0F3810002283B
:1017B0000AD1D9F80000400206D52868800337D541
:1017C00060680028E1D033E06068B0F5803F10D059
:1017D000B0F5A02F286810D020F480302860286849
:1017E00020F4802028606068A8B1FFF705FE064657
:1017F0000DE0286840F48030F4E740F48020286051
:10180000F7E700BFFFF7F8FD801B642873D828684E
:101810008003F7D50CE0FFF7EFFD064605E000BFBB
:10182000FFF7EAFD801B6428F0D828688003F7D40E
:101830002078DFF89C8280074FF0000A3ED5A3484D
:10184000001D016811F00C0F08D00068C0F3810082
:1018500002280BD1D9F80000400207D4286880077D
:1018600016D5E068012800D112E02BE1E068B8B19C
:101870000120C8F80000FFF7BFFD064605E000BFE5
:10188000FFF7BAFD801B0228C0D828688007F7D56B
:101890002868216920F0F80040EAC10028600DE0C6
:1018A000C8F800A0FFF7A8FD064604E0FFF7A4FD76
:1018B000801B02281FD828688007F7D420780007EB
:1018C00022D5824E83486169703671B10121016071
:1018D000FFF792FD074604E0FFF78EFDC01B0228CC
:1018E00009D830688007F7D50EE0C0F800A0FFF7F0
:1018F00083FD074605E082E0FFF77EFDC01B02285E
:101900007DD830688007F7D42078400768D5DFF8A5
:10191000BCB100270BF13C0BDBF80000C0000BD47E
:10192000DBF8001041F08051CBF80010DBF800002C
:10193000012700F080500090674E3068C00510D439
:10194000306840F480703060FFF756FD009005E08D
:10195000FFF752FD0099401A022850D83068C005A0
:10196000F6D55A4EA0686C3601280FD0052830688D
:1019700010D020F001003060306820F004003060AA
:10198000A068B8B1FFF738FD00900FE0306840F074
:101990000100F4E740F004003060F7E7FFF72CFDAA
:1019A0000099411A41F28830814266D83068800738
:1019B000F4D50EE0FFF720FD009007E0FFF71CFDD7
:1019C0000099411A41F28830814256D83068800728
:1019D000F4D42FB1DBF8001021F08051CBF80010C7
:1019E000A069C8B33949091D0968C1F381010229F9
:1019F0004AD00228504607D0C8F8600000E03CE01A
:101A0000FFF7FAFC04463BE04746C8F86000FFF7E2
:101A1000F3FC064605E000BFFFF7EEFC801B022842
:101A20002BD828688001F7D4D4E907010843A16ABC
:101A30002A4A490802EB0141626A41EA82110843DD
:101A400094F82C1040EA0161C9F8001001203866B2
:101A5000FFF7D2FC044606E036E000BFFFF7CCFCFF
:101A6000001B022809D828688001F7D52CE000BFA8
:101A7000FFF7C2FC001B022802D90320BDE8F88F43
:101A800028688001F4D41FE00128F7D0D9F80000BD
:101A9000E26900F48001914214D1226A00F03F0112
:101AA00091420FD147F6C071626A0140914209D15B
:101AB000A26A00F44031914204D1E16A00F0706002
:101AC000884201D00120D9E70020D7E7043802403E
:101AD00000004742800E4742007000400000FFFFB8
:101AE0007047704770B590F83C20012A32D001242D
:101AF00080F83C40022280F83D2003685A689D68C7
:101B000022F070060A6832435A60134B02689A4208
:101B100014D0B2F1804F11D0104B9A420ED0104B1E
:101B20009A420BD00F4B9A4208D00F4B9A4205D0E5
:101B30000E4B9A4202D00E4B9A4204D1496825F0CE
:101B400080031943916080F83D40002180F83C10EB
:101B5000084670BD022070BD000001400004004036
:101B600000080040000C004000040140004001401B
:101B70000018004010B5040003D094F83D0010B1E7
:101B800007E0012010BD002084F83C00204600F052
:101B90000DF8022084F83D00211D206800F094FE1D
:101BA000012084F83D00002010BD000008B5006849
:101BB000B0F1804F12D10A48016841F00101016083
:101BC0000068002200F00100009011461C20FFF781
:101BD0009BFCBDE808401C20FFF788BC08BD000046
:101BE000403802400168CA6842F00102CA600068D9
:101BF000816801F00701062903D0016841F0010165
:101C000001600020704770B5044690F83C00012840
:101C100017D0012584F83C50022084F83D0020684C
:101C2000826822F0770222F47F428260086850289E
:101C300030D00DDC20284DD005DC98B310283BD1E6
:101C400048E0022070BD302844D0402834D139E02B
:101C5000602828D0702806D0B0F5805F2CD0B0F571
:101C6000005F29D10AE0CB68D1E90121206800F0AA
:101C70008FFE2068816841F0770109E0CB68D1E9E7
:101C80000121206800F084FE2068816841F48041D1
:101C9000816011E0CA684968206800F08BFE50211D
:101CA000206807E016E0CA684968206800F093FEE3
:101CB0006021206800F076FE84F83D50002084F812
:101CC0003C0070BDCA684968206800F073FE40217E
:101CD0002068EFE7226801461046EBE7704770B5D1
:101CE0000446006801694FF00005C943890715D40F
:101CF000C168C943890711D4E91E01610120207719
:101D0000206880698007204602D0FFF7E7FF04E0E3
:101D100000F098F8204600F096F8257720680169D1
:101D2000C943490717D4C168C943490713D46FF0A1
:101D300004010161022020772068806910F4407F4F
:101D4000204602D0FFF7CAFF04E000F07BF82046EF
:101D500000F079F8257720680169C943090716D48E
:101D6000C168C943090712D46FF00801016104205A
:101D700020772068C0698007204602D0FFF7AEFFB9
:101D800004E000F05FF8204600F05DF82577206859
:101D90000169C943C90617D4C168C943C90613D428
:101DA0006FF010010161082020772068C06910F4ED
:101DB000407F204602D0FFF791FF04E000F042F898
:101DC000204600F040F8257720680169C943C9071B
:101DD00008D1C168C943C90704D1891E01612046E1
:101DE00000F032F820680169C943090609D4C168C6
:101DF000C943090605D46FF0800101612046FFF751
:101E00006FFE20680169C943490609D4C168C94306
:101E1000490605D46FF040010161204600F01EF82C
:101E200020680169C94389060BD4C168C943890682
:101E300007D46FF0200101612046BDE87040FFF734
:101E400050BE70BD7047704700680349884201D199
:101E5000FFF7D8BA70470000001000407047704785
:101E600070B5026804461068D168536910F00F0F0E
:101E700052D003F0010501F490762E435FD0C207E3
:101E800005D0CA0503D5E26B42F00102E2634207C6
:101E900005D5DA0703D0E26B42F00202E263820763
:101EA00005D5DA0703D0E26B42F00402E2630207D1
:101EB00007D501F020022A4303D0E26B42F008026A
:101EC000E263E26B002A33D0800604D5880602D58F
:101ED000204600F0A8FD20684069E16BC0F3801047
:101EE000090700D428B3204600F08FFD206841691F
:101EF00049061AD5416921F040014161606BA0B1EA
:101F00001B490165606BFFF71CF8002810D0606B5F
:101F1000016DBDE870400847830610D58B060ED5CD
:101F20002046BDE8704000F07EBD2046FFF797FFD9
:101F300070BD2046FFF793FF0020E06370BD0306ED
:101F400006D50B0604D52046BDE8704000F04ABE19
:101F50004006F3D54806F1D5D168204621F040016E
:101F6000D160202184F8391000F0EDF870BD000038
:101F7000FB29000870B5040004D094F8390000254E
:101F800010B106E0012070BD84F83850204600F002
:101F900023F8242084F839002068C16821F4005116
:101FA000C160204600F08AFD2068016921F490415B
:101FB00001612068416921F02A0141612068C168FE
:101FC00041F40051C160E563202084F8390084F8B1
:101FD0003A00002070BD00002DE9F04786B00646AB
:101FE00014216846FEF7A8F94F484E4B326800248A
:101FF0004D491438022503274FF480694FF4403AC5
:102000009A424BD10A6842F010020A60096801F056
:1020100010010591016841F001010160016801F0C2
:1020200001010591016841F002010160006802AA06
:1020300000F0020005905815CDE900054FF00708A3
:1020400082E8900169463948FFF7ECF88020CDE935
:10205000000502AA694682E890013548FFF7E2F8D8
:10206000354D344828604FF00060C5E90104C5E9EA
:102070000349C0146C61C5E90640C5E908A42846B7
:10208000FFF742F808B1FEF7B4FB75630022114672
:102090002520AE63FFF738FA25203DE0274B9A4212
:1020A0003CD10A6842F020020A60096801F0200170
:1020B0000591016841F0040101600068029400F09C
:1020C00004000590C020CDE900050820CDE903708B
:1020D00069461B48FFF7A6F8174D16486035603073
:1020E00028604FF02060686005F10802402082E817
:1020F00011026C61AC61C5E9074A28466C62FFF7C2
:1021000003F808B1FEF775FB35630022114647203E
:10211000AE63FFF7F9F94720FFF7E8F906B0BDE82D
:10212000F0870000001001404438024000000240E7
:1021300000040240406402400C06002000140140EC
:10214000000802407047704790ED000AD1ED000A88
:102150009FED0A1A30EE600A10EE100AB0F18B4FB4
:1021600002DD30EE810A06E010EE100A10F16A5F1F
:1021700003D930EEC10A81ED000A70470000004625
:10218000FEE70000DFED0A1A00F11403C0ED001AAB
:10219000C0ED011AC0ED021AC0ED031AC0ED041A19
:1021A00083EC030AC0E90912C0ED081A7047000069
:1021B0000000000008B5014680EC020A30EE600A1B
:1021C00080ED020AD0ED030AD0ED051A30EE601A58
:1021D00021EE211AD0ED061A61EE801ACDED001A1B
:1021E000F0EE001A00EEE10AD0ED040A30EE200A0B
:1021F000D0ED070A684660EE201A91ED0A0AB8EEA3
:10220000400A00F053FDDDED000A91ED080A01F1EE
:10221000200071EE200A70EEA10A30EE200A81ED56
:10222000080A91ED090AB8EE400A00F03FFD91ED71
:10223000030A81ED040A91ED020A81ED030A91ED92
:10224000080A08BD0F4810B50D490160072141601B
:1022500000214FF400328160C0E90312D2004261D4
:102260000176012242768176C17601774177FEF7C9
:1022700030FD002803D0BDE81040FEF7BABA10BD0B
:1022800000640040BC0400200D4808B5016841F41A
:10229000800101600068002200F480000090114677
:1022A0003A20FFF731F93A20FFF720F900221146D2
:1022B0004520FFF729F9BDE808404520FFF716B98A
:1022C0003038024010B5A4B01C221C496846FEF705
:1022D0001AF80021684600F041FE194C17491C22EB
:1022E000A0601C3107A8FEF70EF8002107A800F037
:1022F00035FE1249E0601C2238310EA8FEF703F8C3
:1023000000210EA800F02AFE0C4920601C22543146
:1023100015A8FDF7F8FF002115A800F01FFE0749DA
:1023200060601C2270311CA8FDF7EDFF00211CA885
:1023300000F014FE206124B010BD0000F43D000840
:102340000C000020154808B5016841F00401016047
:10235000016801F004010091016841F08001016011
:10236000016801F080010091016841F00101016004
:10237000016801F001010091016841F0080101606C
:10238000016801F008010091016841F0020101605B
:10239000006800F00200009008BD000030380240E4
:1023A00010B586B000241748009401940294039459
:1023B00004944FF080410594016042F2D001C0E9DD
:1023C00001146321C0E9031480218161FFF7D2FB6E
:1023D00008B1FEF70EFA4FF48050009069460948A4
:1023E000FFF711FC08B1FEF704FA049404A90548AC
:1023F0000594FFF777FB002801D0FEF7FAF906B045
:1024000010BD00004C0500200D4810B50B490160BF
:102410000C49416000214FF480628160C0E90312E1
:102420000C22C0E90521C161FFF7A4FD002803D0FB
:10243000BDE81040FEF7DDB910BD000000100140FE
:102440008C050020A08601000C4810B50A490160E7
:102450004FF4E1314160002181600C22C160C0E98C
:1024600004128161C161FFF785FD002803D0BDE83A
:102470001040FEF7BEB910BD00140140CC0500208D
:10248000FEE700007CB50025124C00950195A56083
:10249000E5600825256140F2FF152560040A8DF8E6
:1024A00000408DF80100080A8DF80200100A8DF82E
:1024B00004008DF80520180A8DF803108DF8060029
:1024C00004498DF8073000236A46A1F12800FEF781
:1024D000A3F97CBDE40400207CB50025124C0095D6
:1024E0000195A560E56008252561AD012560040A18
:1024F0008DF800408DF80100080A8DF80200100ADE
:102500008DF804008DF80520180A8DF803108DF859
:10251000060005498DF8073000236A46A1F128001E
:10252000FEF77AF97CBD0000E4040020704700004B
:10253000DFED081AC0ED001AC0ED011AC0E909125A
:10254000C0ED021AC0ED031AC0ED041A143080EC7D
:10255000040A70470000000008B5014680EC020A3A
:1025600030EE600A80ED020AD0ED040A70EE800AB7
:10257000C0ED040AD0ED061A90ED051A61EEA00A2E
:1025800021EE001ACDED000AD0ED031A30EE610AFB
:10259000D0ED071A124860EE211ABDEEE00A80ED78
:1025A000000A91ED0A0A6846B8EE400A00F07EFB88
:1025B0009DED000A01F1200031EE000A30EE210A03
:1025C00081ED080A91ED090AB8EE400A00F06EFBB1
:1025D00091ED020A81ED030A91ED080A08BD0000A1
:1025E00008000020064A916839B9064B002098611E
:1025F000A3F588735881A3F84E00491C9160704779
:10260000240000201C0800200A48B0F908100A48DD
:10261000B1F5257F07D1C168491CC160282902DDB9
:102620002821C16002E0C068282801D100F0BCBBAD
:102630007047000082080020240000200548B0F9FF
:102640000800A0F2C310C72802D203492620C860A0
:102650007047000082080020240000200248B0F9E2
:10266000001001617047000024000020FEF756F8BA
:1026700000F02AFC0A2000F065FCF7E700231A4668
:1026800019461846FFF728FFFEF748F800F0C8FB88
:102690000A2000F057FCF1E72F4D304CA87A0228B1
:1026A0000ED1E87A022830D1A06801F077F9E0680D
:1026B00001F074F9606801F0FDF8206901F06EF92D
:1026C000A87A68B9E87AE8BBA06801F067F9E06821
:1026D00001F064F9606801F0EDF8206901F05EF93D
:1026E000A87A03280ED1E87A032831D1A06801F036
:1026F000E1F8E06801F052F9606801F04FF92069F3
:1027000001F04CF9A87A02280ED1E87A03281FD1EB
:10271000A06801F043F9E06801F0CCF8606801F0CE
:102720003DF9206901F03AF9A87A012810D1E87A38
:1027300001280DD1A06801F031F9E06801F02EF90F
:10274000606800E004E001F029F9206901F0B2F8C6
:10275000012000F0F7FBA1E7820800200C00002018
:1027600000F000FB012000F0EDFBF9E7FDF7D6FFDC
:1027700000F0FAFE0A2000F0E5FBF7E7174810B575
:102780004188012928D116498B69CC68A3F51C52D0
:10279000103A94420ADAA1F5887240F21454B2F960
:1027A0008A20A24202DA4269521C42618269521CAA
:1027B0008261502A04DB002282614261428004E08F
:1027C00042694F2A01DB012282808088012803D1DF
:1027D000A3F57F43F83B8B6110BD0000240000206F
:1027E0001C08002010B5502080F31188BFF34F8FD4
:1027F000BFF36F8F01F038FA18B104494FF08050E1
:102800000860002080F3118810BD000004ED00E096
:1028100030B593B030216846FDF78EFD14210CA829
:10282000FDF78AFD19480025016841F080510160DB
:10283000006800F0805011901548016841F4404153
:1028400001600068022400F44040119001200090D3
:10285000000401908001CDE9064006200890A820E0
:10286000CDE9090404200B906846FEF78BFF0CA904
:102870000F2081E831004FF4A0500F90E00210903B
:1028800005210CA8FEF772FE13B030BD403802409F
:10289000007000400548016841F47001016003497F
:1028A0004FF00060803908607047000088ED00E05C
:1028B0000148FFF714BA00004C0500200148FFF75B
:1028C0000EBA0000CC060020F0B50268254C264D5B
:1028D000264E274F274B4FF0804CA04209D0604531
:1028E00007D0A84205D0B04203D0B84201D09842E8
:1028F00004D122F0700E4A6842EA0E02A0421BD0B8
:10290000604519D0A84217D0B04215D0B84213D0B4
:10291000984211D0184DA8420ED0184DA8420BD0A5
:10292000174DA84208D0174DA84205D0164DA84211
:1029300002D0164DA84203D122F44075CA682A433A
:102940004D6922F080022A4302608A68C2620A68E6
:102950008262A04201D0984201D10969016301213C
:102960004161F0BD0000014000040040000800404B
:10297000000C0040000401400040014000440140C0
:102980000048014000180040001C004000200040AA
:1029900010B5846842EA032224F47F440A432243A8
:1029A000826010BD826822F070020A4342F0070183
:1029B0008160704710B5036A046A24F00104046260
:1029C000846924F0F00444EA021423F00A020A4362
:1029D0008461026210BD10B5036A23F01003036224
:1029E0008369046A23F4704343EA023224F0A003AB
:1029F00043EA01118261016210BD10B5806B0021B4
:102A0000C185C184FFF72BFA10BD0168CA6822F4A2
:102A10009072CA6001684A6922F001024A6120216D
:102A200080F83A10704710B590F83A10222901D07A
:102A3000022010BD8168B1F5805F11D001690029C5
:102A400001681FD0496801F07F03816A4A1C8262D5
:102A50000B70C18D491E0904090CC18518D02BE0EB
:102A60000269816A002A0268526805D0D2B20A80DF
:102A7000816A491C8162ECE7C2F308020A80816A1C
:102A8000891CF7E74A68816A4B1C83620A70E0E799
:102A90000168CA6822F02002CA600168CA6822F48C
:102AA0008072CA6001684A6922F001024A612021ED
:102AB00080F83A10FFF746FB002010BD2DE9F041E9
:102AC000044600680169E26821F440511143016144
:102AD0002169A068E26908436169114308432168DC
:102AE000CA6849F20C639A430243CA60206841698C
:102AF000A26921F4407111434161E06919276425FD
:102B00003226B0F5004F354A354920684FF00008AD
:102B100006D0884201D0904236D1FEF7F1FD35E073
:102B2000884201D0904202D1FEF7EAFD01E0FEF7B3
:102B3000D7FD61684A18A0FB070148EB0803FDF7C1
:102B4000B1FB0146B0FBF5F00201B1FBF5F06FF00F
:102B50001803584301EB800006EBC000B0FBF5F012
:102B600000F0F80002EB4002B1FBF5F0584301EB36
:102B7000800006EBC000B0FBF5F000F00700216814
:102B800010448860BDE8F081FEF7AAFD61688B0FF4
:102B90008A00A0FB0701FDF785FB0146B0FBF5F0BD
:102BA0006FF01802504301EB800006EB0010B0FB01
:102BB000F5F000F0F002B1FBF5F002EB0012B1FB12
:102BC000F5F06FF01803584301EB800006EB00109E
:102BD000B0FBF5F000F00F00D1E700000014014059
:102BE0000010014090F83910212901D002207047CF
:102BF0008168B1F5805F016A0BD04A1C02620268ED
:102C000009785160C18C491E0904090CC1840ED099
:102C100017E009880268C1F30801516001690029C1
:102C2000016A02D0491C0162ECE7891CFBE70168DC
:102C3000CA6822F08002CA600068C16841F04001A1
:102C4000C16000207047000010B5044800F018FD76
:102C5000BDE810400148FFF703B900008C050020D3
:102C60000148FFF7FDB80000CC050020FEE709078A
:102C7000090E002804DB00F1E02080F80014704702
:102C800000F00F0000F1E02080F8141D704702E012
:102C900008C8121F08C1002AFAD1704770470020E7
:102CA00001E001C1121F002AFBD17047D0ED000ADC
:102CB000F4EEC00AF1EE10FA01DD80ED000AD0ED6D
:102CC000000AB1EE400AF4EEC00AF1EE10FA01D2A9
:102CD00080ED000A704700000E4810B50188028997
:102CE0000D4B8C1A9C4202DA4489641C4481521AAE
:102CF0009A4202DA4289521E4281B0F90A2001EB5F
:102D00004232C2600181018A491C01820121418253
:102D100010BD00001C08002004F0FFFF38B50F486C
:102D200000210068026842680092C26842F0100206
:102D3000C2600A4C0A4A94F83A0020280DD1322386
:102D4000A262A385E1632168606B091DFEF746FA64
:102D50002068416941F04001416138BD8C05002087
:102D600070080020002310B51A4619461846FFF7D0
:102D7000B3FB0023BDE810401A4619461846FFF77A
:102D800081BB000000200749024600BF51F82030F7
:102D90006333C72B01D241F82020401C0428F5DB07
:102DA00070470000B0000020074847F6FC73018818
:102DB000491C018005498A691A448A6101214180C0
:102DC0000021C16070470000240000201C08002082
:102DD000FEF720FBFFF71CFDFFF7B4FAFFF754FAEC
:102DE000FFF730FAFFF710FBFFF72EFBFFF7D8FADB
:102DF000FFF794FFFDF7EAFB0548FEF7F3FEFDF74A
:102E000045FC00F067FBFFF75DFA00F0A2F8FEE773
:102E10004C05002001460020842900D0C81C7047C2
:102E200010B5FFF7AFFF2448244A264CB0F908003C
:102E3000D2ED000A00EB800000EE100A2048B8EE48
:102E4000C00A30EE200A82ED000A418D6180008DBB
:102E5000111D00EE100A081FB8EE400A82ED010AAB
:102E6000FFF772F992EC020A04F16400FFF774FBB9
:102E7000BDEEC00A04F1440110EE100A00B28883CE
:102E8000B4F9021000EE101AF8EEC00A00EE100AB3
:102E900004F11000B8EEC00AFFF78CF9BDEEC00ACD
:102EA00000231A4610EE100A194600B2E081BDE870
:102EB0001040FFF7E7BA0000820800200000002061
:102EC000FC040020D00100202DE9F0411B4E00241D
:102ED00006F11005DFF86880FFF754FF36F824008C
:102EE00004EB041105EB810704EB840200B208EB4C
:102EF00042017881B1F90210798000EE101AF8EEE3
:102F0000C00A00EE100A07F11000B8EEC00AFFF781
:102F100051F9BDEEC00A641C042C10EE100AF881B1
:102F2000DADBB5F9DA30B5F99620B5F95210B5F912
:102F30000E00BDE8F041FFF7CFBA0000B00000205E
:102F4000FC04002010B500B9012000F08DFC002029
:102F500010BD10B500F0ECFC002010BD7FB50D4693
:102F600004464169B0F9080081B1A16971B1FFF768
:102F700051FFD4E905128DE80700D4E900102B4673
:102F8000226900F046FE039004B070BDFFF742FFD7
:102F900003A9CDE90001208A2B4682B2D4E90010B2
:102FA00000F00AFE012801D00020EDE70398EBE7CE
:102FB0002DE9F041184C0F46054666692068001D52
:102FC00000F08EFB38B9206890F82C100120884062
:102FD000A1698143A161681C07D137B12168BDE8AF
:102FE000F0410E48091D00F0BFBB20683544B542D2
:102FF0004560216805D2A068BDE8F041091D00F0D8
:103000009BBB6068091D00F097FB206B854200D2D6
:103010002563BDE8F0810000500000206C0900200D
:103020002DE9F041054600F0ABFB2E4C2069401C19
:10303000206120682C4F10B1E06940B32DE025607D
:103040002069012829D1002606EB860007EB8000C5
:1030500000F064FB761C072EF6D323488C3000F07A
:103060005DFB2148A03000F059FB1F48B43000F050
:1030700055FB1D48C83000F051FB1B48DC3000F008
:103080004DFB19488C3060601430A06005E020686A
:10309000E96AC06A884200D82560E06A401CE062A4
:1030A000E96A0120A26988401043A06101EB810018
:1030B00007EB8000291D00F057FB00F081FBE06961
:1030C00000280CD02068E96AC06A884207D2074904
:1030D0004FF080500860BFF34F8FBFF36F8FBDE894
:1030E000F0810000500000209008002004ED00E076
:1030F00010B5044690F8510058B101280CD00228B0
:103100000FD0502080F31188BFF34F8FBFF36F8F24
:10311000FEE7206B00F068FB2046BDE8104000F0A1
:1031200063BB10BD10484FF47051420706D0C01D5C
:103130000D4920F00700411AC1F570510B4A0023D8
:103140000144C2E900030839103A21F00701116077
:103150004B600B600B1AC0E9001393604FF0004006
:103160005360D06070470000800900209C00002060
:10317000144E154CA6F1C8074FF08058DFF84C905C
:1031800012E000BF00F0FCFAF068C568281D00F0EE
:10319000A7FA2069401E2061E068401EE06000F050
:1031A0000FFB2846FFF7A4FFE0680028EAD1386843
:1031B0000128F9D9C9F80080BFF34F8FBFF36F8F93
:1031C000F2E70000580900205000002004ED00E064
:1031D0002DE9F0479A46DDE9098481466FF0030343
:1031E000206B03EB82021044089E20F0070778074B
:1031F00007D0502080F31188BFF34F8FBFF36F8F3C
:10320000FEE7002561B1002023180A5C83F8342012
:103210000A5C12B1401C1028F6D384F8435001E038
:1032200084F83450072E00D30626E662C4E91165FF
:10323000201D00F07EFA04F1180000F07AFA2461F3
:10324000C6F107006462A061E56484F850505246FC
:103250004946384600F0D8F82060B8F1000F01D098
:10326000C8F80040BDE8F08730B5114900E01146CC
:103270000A688242FBD34B685C18844203D14068E1
:1032800018444860084643681C18944209D1084C09
:10329000103C2468A24209D052681A4442600A686D
:1032A00012680260814200D0086030BD0460F9E716
:1032B0009C00002006484168096829B14168C96836
:1032C000C9684968016370474FF0FF31FAE70000B1
:1032D0005000002008484068401C4FF0500080F328
:1032E000118804D0BFF34F8FBFF36F8FFEE7BFF39A
:1032F0004F8FBFF36F8FFEE7A4000020002150B175
:103300000A4B42699A420FD1806AA3F12802904287
:103310000AD040B108E0502080F31188BFF34F8FEE
:10332000BFF36F8FFEE70121084670476C0900204C
:103330002DE9F0410546002700F08EFB314E306844
:1033400008B9FFF7EFFEF06805424BD1C5B3083569
:1033500068070ED005F00700C0F1080005446807B3
:1033600007D0502080F31188BFF34F8FBFF36F8FCA
:10337000FEE72DB37068854234D8224810300146EC
:103380000C6801E020460C466168A94202D221681F
:103390000029F7D131688C4224D007682168016088
:1033A00060680837411B10290FD96019420708D0FF
:1033B000502080F31188BFF34F8FBFF36F8FFEE76C
:1033C00010E041606560FFF74FFF61687068401A68
:1033D0007060B268904200D2B060F0680143002093
:1033E000C4E9000100F0A4FC780707D0502080F366
:1033F0001188BFF34F8FBFF36F8FFEE73846BDE8EC
:10340000F08100008C00002010B5031F4FF0807485
:103410001C601B1F21F001011960191F044B0B6078
:1034200014390A60091F6FF0020244380A6010BDA7
:10343000D5320008F0B50A88C2F30A04A4F5806406
:1034400004804A788B78D20842EA4312C2F30A0316
:10345000A3F5806343808A78CD78920942EA850299
:103460000D7904F5257442EA8522C2F30A06A6F511
:10347000806686800A794D79520842EAC512C2F305
:103480000A05A5F58065C5800A8AC2F30A02A2F57D
:10349000806202814F79BF0987724979C1F30111B6
:1034A000C1724FF4A5618C420FD803F525738B428E
:1034B0000BD806F525768E4207D805F525758D4281
:1034C00003D802F525728A4203D9002101604160C8
:1034D0008160F0BD2DE9F04100242DED028B4FF409
:1034E0007A751B4E9FED1B8ADFED1B8AEF0000BF34
:1034F00004EB041006EB80002A463946B0EE481A69
:10350000F0EE680AB0EE040A1030FEF73BFE641CD1
:10351000032CEDDB42F210742A462146B0EE481A25
:10352000F0EE480A9FED0D0A0D48FFF701F8B0EEE6
:10353000481AF0EE480ABDEC028B2A462146BDE847
:10354000F04107489FED070A5438FEF71BBE000004
:103550000C07002000000000CDCC4C3F7B14AE3E99
:103560003C0800209A99594010B5FFF73BF8FFF747
:1035700065F8FFF749F8FFF771F8FFF7FFF800F07B
:103580001BF80B48B0F90E30CC38B0F95220B0F926
:103590000E100020FEF776FF06498888012805D125
:1035A0000020888002494431C860886110BD000055
:1035B000D8070020240000202DE9F047FFF7E2FBA8
:1035C0002E4D0024DFF8B090A046A5F5887600BF08
:1035D000B9F84610298004EB8401A6F80A8009EBAB
:1035E0004100A6F84E80B0F9340004EB041106EB5C
:1035F000810700EE100A7880B7F90A00F8EEC00AD9
:1036000000EE100A07F11000B8EEC00AFEF7D2FD76
:10361000BDEEC00A641C032C10EE100AF881D7DB43
:10362000FFF75AFB95ED030A1448F8EEC00A95ED32
:10363000060A2030B8EEC00AFEF78EFFBDEEC00AC3
:1036400010EE100A00B2A883B6F98A1000EE101A24
:10365000F8EEC00A00EE100A0848B8EEC00A343886
:10366000FEF7A8FDBDEEC00A044910EE100A443969
:10367000C881BDE8F0870000FC0400201C08002081
:1036800018B501680A68D20624D5CA68D20621D5C1
:1036900004460868486800900F4884421AD1606B5D
:1036A0000068016821F001010160606B00684068FA
:1036B00080B2202804D1094901F11200FFF7BAFEB7
:1036C000616B322009684860606B0068016841F0F6
:1036D0000101016018BD00008C0500207008002069
:1036E000D0E9013201699A60D0E901235A604A6841
:1036F000824201D182684A60002202610868401E4D
:103700000860086870470000034B036003F1540031
:1037100008608020106070476802002000F10801F6
:103720004FF0FF32C0E90112C16001610021016068
:10373000704700210161704730B50B685A1C02D0F8
:1037400000F1080202E0026904E02246546825689C
:103750009D42FAD953684B6099608A605160086154
:103760000168491C016030BD42684A6093688B6003
:1037700093685960916008610168491C0160704755
:10378000502080F31188BFF34F8FBFF36F8F0A492A
:103790004868401C486001280CD10848006810F0B7
:1037A000FF0F07D0502080F31188BFF34F8FBFF376
:1037B0006F8FFEE770470000A400002004ED00E0DA
:1037C0000849486828B1401E486001D180F311883B
:1037D0007047502080F31188BFF34F8FBFF36F8F76
:1037E000FEE70000A400002070B5002827D0144D8B
:1037F000A0F108046168E868014207D1502080F315
:103800001188BFF34F8FBFF36F8FFEE722683AB185
:10381000502080F31188BFF34F8FBFF36F8FFEE707
:103820008143616000F018F9606869680844686065
:103830002046FFF719FDBDE8704000F079BA70BD71
:103840008C0000204FF0E0200021016181610549DA
:103850004FF47A720968B1FBF2F1491E4161072108
:10386000016170474C00002010B5020014D00F48D1
:10387000806B38B1502080F31188BFF34F8FBFF3B6
:103880006F8FFEE700F0E8F800211046FFF790FB8D
:1038900000F04EFA002807D105494FF0805008602B
:1038A000BFF34F8FBFF36F8F10BD0000500000209B
:1038B00004ED00E070B504002BD01A4D2868844256
:1038C0002FD0FFF75DFF2046FFF718FDE8B1201D60
:1038D000FFF706FFE06A0121AA6981401143A9614F
:1038E000114900EB800001EB8000211DFFF73CFF38
:1038F000E06A2968C96A884207D30C494FF08050B2
:103900000860BFF34F8FBFF36F8FBDE87040FFF7C4
:1039100057BF502080F31188BFF34F8FBFF36F8FD5
:10392000FEE770BD500000209008002004ED00E08C
:1039300010B586B00024039405AA04A903A8049432
:10394000FFF7E2FEDDE903010094CDE90110002359
:103950000EA11048059A00F05CF90F490028486351
:1039600011D0502080F31188BFF34F8FBFF36F8FBA
:103970004FF0FF3008630120C8614C6106B0BDE81C
:10398000104000F09FB806B010BD000049444C45FF
:1039900000000000713100085000002070B504469E
:1039A000FFF7EEFE294D04B92C68201DFFF798FEA5
:1039B00058B9E06A264A00EB800152F8211021B97B
:1039C00001218140A8698843A861A06A18B104F167
:1039D0001800FFF785FE1E48211DDC30FFF7C4FEEE
:1039E00094F850000026012801D184F85060FFF7B8
:1039F000E7FEE86928B1FFF7C3FEFFF75BFCFFF7BE
:103A0000DFFE2868844213D1E86990B1A86B38B111
:103A1000502080F31188BFF34F8FBFF36F8FFEE705
:103A20000C494FF080500860BFF34F8FBFF36F8F8A
:103A300070BD0748DC3000682969884201D12E60DA
:103A400070BDBDE8704000F00FB8000050000020CD
:103A50009008002004ED00E00248816B491C81635E
:103A600070470000500000201448816B11B1012103
:103A700041627047002141628169B1FA81F1C1F16F
:103A80001F0101EB81020E4951F822306BB101EBAD
:103A9000820101F108034A6852684A609A4201D1E2
:103AA00052684A60D16801607047502080F31188E5
:103AB000BFF34F8FBFF36F8FFEE700005000002071
:103AC000900800201CB537480168374A914207D159
:103AD000502080F31188BFF34F8FBFF36F8FFEE745
:103AE00000683149491E884207D1502080F311886F
:103AF000BFF34F8FBFF36F8FFEE72C49087801901B
:103B0000FF20087008788DF800009DF800009DF8EF
:103B1000002000F0F000904207D0502080F3118880
:103B2000BFF34F8FBFF36F8FFEE79DF80000204B70
:103B300000F0500018700720986005E09DF8002004
:103B400052008DF80020401E9DF800201206F5D48A
:103B50009860032807D0502080F31188BFF34F8F5F
:103B6000BFF36F8FFEE74FF44070986001980870C4
:103B70000C482030016841F470010160016841F097
:103B800070410160FFF75EFE00205860FCF73CFBCF
:103B90000848016841F040410160FCF721FB00202A
:103BA0001CBD000000ED00E071C20F4100E400E028
:103BB000A400002034EF00E02DE9FF5F8346DDE93B
:103BC0000E87994616468A469000FFF7B1FB05001E
:103BD0001CD05420FFF7ACFB040014D00020256358
:103BE00084F85100CDE90240CDE900874B463246CA
:103BF00051465846FFF7ECFA2046FFF711FA01202C
:103C000004B0BDE8F09F2846FFF7EEFD4FF0FF300F
:103C1000F6E7F0B585B0DDE90B640A9DA6B1DCB12D
:103C2000542700972663022684F85160002604AFCB
:103C3000CDE90246CDE90057FFF7CAFA2046FFF763
:103C4000EFF9049805B0F0BD502080F31188BFF360
:103C50004F8FBFF36F8FFEE7502080F31188BFF3C3
:103C60004F8FBFF36F8FFEE72DE9F0412E4C0027F9
:103C7000A06B40B1206A401C2062606A00B101273D
:103C80003846BDE8F0816669761C666113D16068CC
:103C9000006838B1502080F31188BFF34F8FBFF315
:103CA0006F8FFEE76068A1686160A060A06A401C39
:103CB000A062FFF7FFFA206BDFF87080864209D31D
:103CC0006068006880B16068C068C56868688642DE
:103CD0000DD220632068C06A00EB800158F82100F3
:103CE0000128CAD90127C8E74FF0FF30F1E7281DA6
:103CF000FFF7F6FCA86A18B105F11800FFF7F0FC11
:103D0000E86A0121A26981401143A16100EB8001B1
:103D100008EB8100291DFFF727FDE86A2168C96AC1
:103D20008842CDD30127CBE7500000209008002027
:103D30002DE9F0472C4D00242746A86B38B1FFF73A
:103D40001FFDA86B401EA863A86B40B146E0502041
:103D500080F31188BFF34F8FBFF36F8FFEE72969A0
:103D6000224E0120D1B3A6F1B40980463068E8B1F3
:103D7000F068C46804F11800FFF7B2FC201DFFF7DB
:103D8000AFFCE06AAA6908FA00F11143A96100EBEF
:103D9000800109EB8100211DFFF7E6FCE06A29683C
:103DA000C96A8842E2D3C5F82480DFE70CB1FFF787
:103DB00081FA2C6A44B14646FFF756FF00B16E62A5
:103DC000641EF9D100202862686A38B108490127C9
:103DD00038070860BFF34F8FBFF36F8FFFF7F0FC1A
:103DE0003846BDE8F087000050000020440900205C
:103DF00004ED00E0A83E00086D2600080000000069
:103E00000000000080000000000000000000000032
:103E1000A03E00087D260008000000000000000011
:103E2000800000000000000000000000B43E000818
:103E30009926000803000000000000008000000038
:103E40000000000000000000B03E000861270008EC
:103E500000000000000000008000000000000000E2
:103E600000000000BC3E00086D27000800000000B4
:103E700000000000800000000000000000000000C2
:103E800000061016000610160000000000000000DA
:103E900001020304060708090000000001020304F0
:103EA000474D3630323000004D3335303800000099
:103EB00044696500436F6E74726F6C0073686F7451
:103EC00000000000E43E000800000020B0000000F8
:103ED0008E2C0008943F0008B0000020D04800005D
:103EE0009E2C000800000000000000000000000000
:103EF00000000000000000000000000000000000C2
:103F000000000000000000000000000000000000B1
:103F100000000000000000000000000000000000A1
:103F20000000000001000000100000000000000080
:103F30000024F40000000000000000000000000069
:103F40000000000000000000000000000000000071
:103F50000000000000000000000000000000000061
:103F60000000000000000000000000000000000051
:103F70000000000000000000000000000000000041
:103F8000000000000000000000000000AAAAAAAA89
:043F9000000000002D
:04000005080001AD41
:00000001FF
