:020000040800F2
:10000000C84C002081020008C5380008FD300008F7
:1000100019380008D70E0008A543000800000000AA
:10002000000000000000000000000000C101000806
:10003000A9110008000000001D020008E93A0008AC
:100040009B0200089B0200089B0200089B0200081C
:100050009B0200089B0200089B0200089B0200080C
:100060009B0200089B0200089B0200089B020008FC
:100070009B0200089B0200089B0200089B020008EC
:100080009B0200089B0200089B0200089B020008DC
:10009000D90E00089B0200089B0200089B02000882
:1000A0009B0200089B0200089B0200089B020008BC
:1000B000B53B00089B0200089B0200089B02000859
:1000C0009B0200089B0200089B0200089B0200089C
:1000D0009B020008D14000089B0200089B02000818
:1000E0009B0200089B0200089B0200089B0200087C
:1000F0009B0200089B0200089B0200089B0200086C
:100100009B0200089B0200089B0200089B0200085B
:100110009B0200089B020008C13B00089B020008EC
:100120009B0200089B020008F91000089B020008CF
:100130009B0200089B0200089B0200089B0200082B
:100140009B0200089B0200089B0200089B0200081B
:100150009B0200089B0200089B020008E94000087F
:100160009B0200089B0200089B0200089B020008FB
:100170009B0200089B0200089B0200080000000090
:100180009B0200089B0200089B0200089B020008DB
:100190009B0200089B0200089B0200089B020008CB
:1001A00000000000000000009B020008DFF80CD0F7
:1001B00000F0F8FA00480047C5510008C84C00207C
:1001C0002C4B19680868B0E8F04F80F30988BFF33A
:1001D0006F8F4FF0000080F311887047000000001F
:1001E00008480068006880F308884FF0000080F33A
:1001F000148862B661B6BFF34F8FBFF36F8F00DF15
:1002000000BF00BF08ED00E0DFF80C00016841F41A
:1002100070010160704700BF88ED00E0EFF30980D6
:10022000BFF36F8F134B1A681EF0100F08BF20ED3D
:10023000108A20E9F04F106009B44FF0500080F3AD
:100240001188BFF34F8FBFF36F8F05F095FE4FF00E
:10025000000080F3118809BC19680868B0E8F04F05
:100260001EF0100F08BFB0EC108A80F30988BFF3AE
:100270006F8F70471C000020EFF30580704700006F
:100280000648804706480047FEE7FEE7FEE7FEE730
:10029000FEE7FEE7FEE7FEE7FEE7FEE7993B000824
:1002A000AD0100082DE9F05F0546002092469B460F
:1002B00088460646814640241BE02846414647467C
:1002C000224600F0B8F953465A46C01A914110D35D
:1002D00011461846224600F09FF92D1A67EB0108D7
:1002E0004F4622460120002100F096F917EB000945
:1002F0004E41201EA4F10104DFDC484631462A4667
:100300004346BDE8F09F40EA01039B0703D009E0A4
:1003100008C9121F08C0042AFAD203E011F8013BF1
:1003200000F8013B521EF9D27047D2B201E000F84A
:10033000012B491EFBD270470022F6E710B5134689
:100340000A4604461946FFF7F0FF204610BD2DE986
:10035000FE4F804681EA0300C00F0C46009021F05A
:10036000004123F00045B8EB0200A94105D2404608
:10037000214690461C460B46024623F0004010439F
:1003800047D0270DC7F30A00C3F30A510290401A61
:10039000019040286BDAC3F3130040F4801B0098EF
:1003A000924620B10023D2EB030A63EB0B0B0198BA
:1003B0005946C0F14002504600F02EF906460D465F
:1003C00050465946019A00F046F910EB0800614189
:1003D000002487EA115284EAE7731A4340D0009A56
:1003E00062B3019A012A4FEA075215DC001B61EB48
:1003F00002014FF0004202EA0752CDE90042001C20
:1004000041F5801132462B4600F07DF903B0BDE87E
:10041000F08F40462146F9E7001B61EB0201001C0A
:1004200041F5801300185B412018A2F5001747EB37
:10043000030140EAD570B6196D4111E06D084FEA2D
:10044000360645EAC0754FEA0752001B61EB020110
:10045000001C41F5801149084FEA30000019514154
:1004600032462B4603B0BDE8F04F00F03DB900988E
:10047000012240000023D0EB020263EBE0730098FE
:1004800021464FEAE074B8EB000061EB0401E9E7B4
:1004900083F000435BE781F0004158E72DE9FE4F10
:1004A00081EA030404F0004421F0004100944FF07D
:1004B000000B23F0004350EA01045ED052EA03042B
:1004C0005BD0C3F30A54C1F30A552C44A4F2F334AD
:1004D0000194A0FB0254C1F3130141F48011C3F352
:1004E000130343F4801301FB024400FB034E840A10
:1004F000970A44EA815447EA8357A4FB07680295A8
:100500008D0A05FB07854FEA932C04FB0C54270545
:10051000029D4FEA065847EA1637B5EB08056EEB21
:10052000070C870E920E47EA811742EA8312A7FB57
:100530000201B6EB0B0164EB00042B0D43EA0C3314
:100540005E1844EB1C50DA465146E7FB0201C5F346
:1005500013044FEA0B3343EA14534FEA0432019C6D
:1005600043EA0603A4F10C040294009CCDE900B414
:1005700000F0C9F803B0BDE8F08F00200146F9E7AC
:100580000EB5C10F80EAE0700844CA07002140F2AE
:1005900033438DE80E000A460B4600F0B4F803B072
:1005A00000BD70B5C1F30A5201F000450024C1F34B
:1005B000130140F2FF3341F480119A4201DA002026
:1005C00070BD40F233439A42A2F2334203DC5242FE
:1005D00000F031F800E090402C43F1D0404270BD73
:1005E00001F0004330B421F0004150EA010206D08E
:1005F0000A0DA2F56072C1F31301002A02DC30BCBF
:1006000000207047440F44EAC104C100E01830BC28
:1006100000EBC25000F031B8202A04DB203A00FA87
:1006200002F1002070479140C2F1200320FA03F349
:10063000194390407047202A04DB203A21FA02F047
:100640000021704721FA02F3D040C2F1200291400C
:10065000084319467047202A06DBCB17203A41FA97
:1006600002F043EAE07306E041FA02F3D040C2F13F
:10067000200291400843194670470029A8BF7047DF
:10068000401C490008BF20F00100704710B4B0FAC8
:1006900080FC00FA0CF050EA010404BF10BC704763
:1006A00049B1CCF1200421FA04F411FA0CF118BF7D
:1006B000012121430843A3EB0C01CB1D4FEA00614C
:1006C0004FEA102042BF002010BC704700EBC3501F
:1006D00010440029A4BF10BC7047401C490008BF4B
:1006E00020F0010010BC704710B5141E73F1000417
:1006F00008DA401C41F1000192185B411A4301D114
:1007000020F0010010BD2DE9F04D92469B4611B13D
:10071000B1FA81F202E0B0FA80F220329046FFF79F
:100720007BFF04460F4640EA0A0041EA0B015346AC
:100730005A46084313D0114653EA010019D0C8F1B4
:1007400040025046FFF777FF05460E465046594691
:100750004246FFF761FF084305D0012004E0204630
:100760003946BDE8F08D0020054346EAE0762C438B
:1007700037430A986305E40AA0EB08000022FD0A4B
:1007800044EA47540A3002D500200146E9E7010552
:1007900010196941DDE9084500196941BDE8F04DCE
:1007A000A2E70000064C074D06E0E06840F00103B8
:1007B00094E8070098471034AC42F6D3FFF7FAFCF0
:1007C000A06B0008C06B000870B58C1810F8015BB6
:1007D00015F0070301D110F8013B2A1106D110F8DA
:1007E000012B03E010F8016B01F8016B5B1EF9D1DE
:1007F0002B0705D40023521E0DD401F8013BFAE764
:1008000010F8013BCB1A921C03E013F8015B01F8CE
:10081000015B521EF9D5A142D8D3002070BD000063
:100820009FED241AB5EE002A46F29C330021B7EE64
:10083000004AC0F6000320EE010A30EE020ABDEEC7
:10084000C01AB5EEC00A11EE100AF1EE10FA9FEDD3
:100850001A1AB8BF013802EE100AB8EEC22A30EEFA
:10086000420A9FED162A20EE010ABDEEC01A11EED3
:10087000100A30EE021A0246B1EB502F18BF0022C8
:1008800002EE102A03EB8203B1EB502F18BFB0EE3B
:10089000410AB8EE421A93ED002A93ED013A30EE88
:1008A000410A34EE401A20EE030A21EE021A31EE1C
:1008B000000A704783F9223E00000044000000C493
:1008C0009FED221A46F29C330021B7EE004AC0F693
:1008D000000320EE010ABDEEC01AB5EEC00A11EE0B
:1008E000100AF1EE10FA9FED1A1AB8BF013802EEA5
:1008F000100AB8EEC22A30EE420A9FED162A20EE08
:10090000010ABDEEC01A11EE100A30EE021A0246BC
:10091000B1EB502F18BF002202EE102A03EB820326
:10092000B1EB502F18BFB0EE410AB8EE421A93ED6A
:10093000002A93ED013A30EE410A34EE401A20EEDF
:10094000030A21EE021A31EE000A704783F9223EB3
:1009500000000044000000C4464910B54A6822F473
:1009600040324A604A6843681A434A6001684A68EC
:1009700022F480724A6001684A68036942EA0322ED
:100980004A6001684A6822F040724A6001684A6819
:1009900083681A434A6001688A6822F400628A60A8
:1009A00001688A68C3681A438A60816A6FF070625E
:1009B000D14201688A6822F070628A6001688A68A0
:1009C0000CD0836A1A438A6001688A6822F0405218
:1009D0008A6001688A68C36A1A4301E022F04052C3
:1009E0008A6001688A6822F002028A6001688A6867
:1009F000037E42EA43028A6090F8201000290168D1
:100A00004A680FD042F400624A6001684A6822F4E2
:100A100060424A6001684A68174C436A04EB4333FA
:100A20001A4301E022F400624A600168CA6A22F4B3
:100A30007002CA620168CA6A838B104C04EB0353CC
:100A40001A43CA6201688A6822F400728A600168E7
:100A50008A6890F8303042EA43228A6001688A68E6
:100A600022F480628A6001688A68406942EA8020D4
:100A7000886010BD0023014000E0FFFF0000F0FF90
:100A800003F0B4BC03F048BDFFF7CABEF0EE400A65
:100A9000F5EEC00AF1EE10FA02DDB0EE600A704722
:100AA000B1EE600AFBE70000002803D09FED020AC8
:100AB00080ED000A7047000000000000002803D00D
:100AC0009FED020A80ED000A70470000AE47B94171
:100AD00070B52DED0C8B84B006460C4615469FED87
:100AE000990AF0EE408A9FED970AB0EE409A9FED8A
:100AF000950AF0EE40BA9FED930AF0EE409A9FED12
:100B0000910AB0EE40AA0EB104B11DB904B0BDEC1B
:100B10000C8B70BD8C48FFF7C7FF8C48FFF7CEFFEA
:100B20008A48D0ED000A9FED8A1A60EE810AB0EE85
:100B3000600A00F031F9F0EE408A28EEA80AF0EEE3
:100B4000408A8248D0ED000AB0EE001A60EE810AB9
:100B50009FED7F1A60EE810AB0EE600A00F01CF98A
:100B6000B0EE409A29EE090AB0EE409ADFED790A1C
:100B7000B7EE000A00EEA80ADFED770A00EEC90A18
:100B8000DFED760A20EE200A754880ED000A6E48F7
:100B900090ED000ADFED730A80EE201AB7EE000A2E
:100BA00031EE000A20EE000A6D48D0ED000A80EE1A
:100BB000801A6D4880ED001A94ED000AB5EEC00A67
:100BC000F1EE10FA0DD194ED010AB5EEC00AF1EE86
:100BD00010FA06D194ED020AB5EEC00AF1EE10FA51
:100BE00046D09FED580AB0EE408A00200190029056
:100BF0000390D4ED000A60EEA00A94ED011AD4ED42
:100C0000011A41EE210A94ED021AD4ED021A41EEC6
:100C1000210AB0EE600A00F0A9F8B0EE408A94ED27
:100C2000000A20EE080A8DED010A94ED010A20EE7B
:100C3000080A8DED020A94ED020A20EE080A8DEDF5
:100C4000030ADDED010AF1EE600AB0EE600AFFF77B
:100C500017FFF0EE409A9DED031AF0EE410A9DED6C
:100C6000021AB0EE410AFFF70DFFB0EE40AA07E00E
:100C70009FED340AF0EE409A9FED320AB0EE40AAA2
:100C800095ED000AB5EEC00AF1EE10FA0DD195ED22
:100C9000010AB5EEC00AF1EE10FA06D195ED020A8E
:100CA000B5EEC00AF1EE10FA3CD0B0EE690A00F0E1
:100CB00073F8B0EE408AB0EE690AFFF7E5FEB0EED9
:100CC00040DAB0EE4A0A00F067F8F0EE40AAB0EE63
:100CD0004A0AFFF7D9FEB0EE40BA28EE2A0AD5ED4F
:100CE000010A20EE200AD5ED000A0DEE200A68EE7A
:100CF0000B0A95ED021A00EE810AB0EE40CA95ED9E
:100D0000010A20EE0B0AD5ED020A0AEEE00AF0EE27
:100D100040CAF0EE6C0AB0EE4C0AFFF7B3FEF0EEFC
:100D200040BA03E09FED070AF0EE40BAB0EE4A1A6F
:100D3000F0EE690AB0EE6B0A304603F02BFF00BFFD
:100D4000E4E60000000000008C010020900100207B
:100D500035FA8E3CC1BFAD3B9DF8C5362F7C1C419A
:100D600094010020506CC24A9801002010EE100A35
:100D7000F6EE000A074960EE200AA1EB600000EEE3
:100D8000100A20EE801AF7EE080A41EE400A20EE23
:100D9000800A7047DF59375FFFF792BD2DE9F041B8
:100DA0002DED028B9AB00546B0EE408A0E461746EE
:100DB000984600201790189019901490159016904E
:100DC0004DB146B13FB1B8F1000F04D0B5EEC08AC5
:100DD000F1EE10FA05D100201AB0BDEC028BBDE88F
:100DE000F08196ED000A8DED170A96ED010A8DED62
:100DF000180A96ED020A8DED190A97ED000A8DED9D
:100E0000140A97ED010A8DED150A97ED020A8DED92
:100E1000160A17AA14A9284603F0E8FC402104A8E2
:100E2000FFF78AFA002000900190029003900024BE
:100E300017A904A804F03CFF00BF30E004A800EBB1
:100E4000041090ED000AD5ED000A20EE200A04A857
:100E500000EB0410D0ED010A95ED011A00EE810AB5
:100E600004A800EB0410D0ED020A95ED021A00EE82
:100E7000810A04A800EB0410D0ED030A95ED031AD3
:100E800000EE810A20EE080AF0EE000A80EE201A39
:100E9000684600EB840080ED001A601CC4B2042C8C
:100EA000CCDB002410E005EB840090ED000A6846DE
:100EB00000EB8400D0ED000A30EE200A05EB840040
:100EC00080ED000A601CC4B2042CECDB284604F060
:100ED000D9FD012080E7FEE7014800F0C8BB000013
:100EE0003C04002000B58BB000200121CDE90601B3
:100EF0000590009001900290039004900E20CDE99F
:100F000008106946054800F0B7FA044800F0AAFD49
:100F10000221024800F03AFA0BB000BD3C04002068
:100F200030B54418A31803EB43039D00094B141B71
:100F300004EB44041D600D1A154405EB4505401AE9
:100F4000AD001044A40000EB400080005D60C3E9E8
:100F5000024030BDB443002000B5014680EC020AD7
:100F600030EE600A80ED020AD0ED030A70EE600AEE
:100F7000C0ED040A90ED051A21EE001A80ED081A62
:100F800090ED091AD0ED061A01EE801A80ED091ACB
:100F900090ED070A01F1240020EE800A81ED0A0A93
:100FA00091ED0E0A03F00CFC91ED080AD1ED090A4F
:100FB00001F12C0030EE200AD1ED0A0A30EE200AB1
:100FC00081ED0B0A91ED0C0A03F0FAFB91ED020A98
:100FD00081ED030A91ED0B0A00BD00002DE9F041FF
:100FE00000242DED048B4FF4FA57FD10384E9FED81
:100FF000398ADFED398A00BF04EB041006EB80006C
:101000002A463946B0EE481AF0EE680AB0EE040AF5
:10101000103002F0EBF9641C042CEDDB2C489FED42
:101020002F9A42F210772A463946B0EE481AF0EE6F
:10103000480AB0EE490A343802F046FC24482A46F1
:101040003946B0EE481AF0EE480A9FED250A883876
:1010500002F0CCF92A463946B0EE481AF0EE480ABA
:10106000B0EE490A1F4802F02FFC1E482A463946B6
:10107000B0EE481ADFED1C0A9FED1C0A443002F066
:10108000B5F92A463946B0EE481AF0EE480AB0EEF5
:10109000490A174802F018FC2E463D46144F00241A
:1010A00017F1340704EB041007EB800032462946A1
:1010B000B0EE481AF0EE680AB0EE040A103002F002
:1010C00095F9641C042CEDDBBDEC048BBDE8F081CC
:1010D000F444002000000000CDCC4C3F7B14AE3E19
:1010E0009A995940E44300209A99993E0000704231
:1010F0002446002004F0E0B8014800F0F9BC0000EC
:101100002406002001681823CAB2103AB2FBF3F299
:10111000054B6FF30901032A9B5CC36500D9091DC8
:1011200081650846704700003C63000810B5014621
:1011300000208B698A6A4FF0C07453B1B3F5005F29
:1011400015D072B1012A0CD0022A0AD0032A09D183
:1011500004E01AB1012A06D0022A03D1C96AC901E2
:1011600000D5012010BDC96AA142FAD010BD002AE5
:10117000F7D0012AF2D0022AF3D0032AF3D010BD0F
:1011800030B50468256825F480252560046863600F
:101190008368402B036803D099600068C26030BD4B
:1011A0009A600068C16030BD7047704778B5002410
:1011B000009490F83C20012A19D0012280F83C20AC
:1011C0000A6807230568092A13D9EE680A3A02EB70
:1011D000420293409E43EE600B788A680A3B03EB21
:1011E00043039A400368DD682A43DA6010E0022076
:1011F00078BD2E6902EB420293409E432E610B782C
:101200008A6803EB43039A4003681D692A431A6105
:101210004A681F23072A13D205686E6B521E02EB21
:10122000820293409E436E630A8893B20A79521EEB
:1012300002EB820293400268556B2B43536327E015
:1012400005680D2A12D22E6BD21F02EB8202934048
:101250009E432E630B790A88DB1F92B203EB830354
:101260009A4003681D6B2A431A6311E0EE6A0D3A37
:1012700002EB820293409E43EE620B790A880D3B9B
:1012800092B203EB83039A400368DD6A2A43DA6271
:101290001B4B0568194A9D420AD10D68122D07D1D2
:1012A000556825F400055560556845F4800555607E
:1012B00005689D421DD1134D0B68AB4201D0112B27
:1012C00017D1536823F480035360536843F4000339
:1012D00053600968A9420CD10B490C4A0968B1FB5B
:1012E000F2F101EB8101490000E0491E0091002963
:1012F000FBD180F83C40002078BD00000023014075
:1013000000200140120000101800002040420F0091
:1013100070B504004FF0000503D0206C002610B11A
:1013200007E0012070BD204600F01CF8666484F8D8
:101330003C60206CC00610D4206C20F4885040F033
:10134000020020642046FFF707FB6664206C20F053
:10135000020040F00100206400E0012584F83C60B8
:10136000284670BD08B500680649884208D106487D
:10137000016841F480710160006800F480700090A1
:1013800008BD0000002001404438024090F82020B1
:10139000012A07D0022A05D0416A41F48021416226
:1013A00001207047006842690A434261002070478B
:1013B000F0B590F820500468A468012D05D0022DE6
:1013C00003D0416A41F4802153E014F0406F01D111
:1013D000E5004BD5C4F30164022C03D9416A41F402
:1013E000000146E00125A5401D608D684FF4C073E3
:1013F0009DB1CE6835434E6845EAC605066803EBE5
:101400000417F5514FF4C275076805EB04150E6912
:101410007E51097D012905D009E00E88CD6845EA95
:101420004655EBE701684E5946F480764E511179E6
:10143000D2F805504FF4C67641EA0525016806EB5F
:1014400004168D511178D2F801204FF4C47541EA89
:101450000221026805EB04155151006803EB0411E9
:10146000425842F0010242500020F0BD416A41F46E
:10147000001141620120F0BD10B590F82020012A32
:1014800007D0022A05D0416A41F48021416201203F
:1014900010BD3B48D0F8002242F00102C0F8002203
:1014A000D0F8002222F47C52C0F80022D0F80022AA
:1014B0004B6A42EA0322C0F800220A7D02F01F03B1
:1014C00001229A40D0F81C329343C0F81C32CB69F9
:1014D000B3B9D0F80C329343C0F80C328C894B6806
:1014E00064F31F434C6900EBC404C4F840320C8918
:1014F0000B6864F31F434C6900EBC404C4F8443226
:10150000CB69012B16D1D0F80C321343C0F80C3242
:101510000C884B6864F31F434C6900EBC404C4F8A7
:1015200040320C89CB6864F31F434C6900EBC40460
:10153000C4F844328B69002BD0F804320ED0134328
:10154000C0F804320B69002BD0F8143208D01343D2
:10155000C0F81432096A012904D008E09343EFE788
:101560009343F5E7D0F81C121143C0F81C12D0F8D1
:10157000001221F00101C0F80012002010BD00008F
:1015800000640040704730B590F82040012C05D031
:10159000022C03D0416A41F480215DE004680029F7
:1015A00055D02469A40754D04FF4D874056804EBCF
:1015B00001142D5915F00405956005682D594ED07C
:1015C000ED08556005682C5904F00204D4604FF40E
:1015D000DA74056804EB01142D5905F00F05156147
:1015E00005682D59C5F30725956105682C59240C0C
:1015F00054614FF4DC72046802EB0112A4581C70B1
:101600000468A458240A5C700468A458240C9C70D4
:101610000468A258120EDA704FF4DE72046802EB0E
:101620000112A4581C710468A458240A5C7104684F
:10163000A458240C9C710468A258120EDA71006838
:1016400081B1016941F020010161002030BDE468F1
:10165000A8E7416A41F400114162012030BD6D0DDF
:101660001560AFE7C16841F02001C160EDE72DE9E9
:10167000F05F0546006800244669D0F8049087684A
:10168000D0F80CB0D0F810A0D0F81880F10748D0EE
:10169000F90714D001218160B80703D5284600F06E
:1016A0000EFA0CE0780702D54FF4006407E0380723
:1016B00002D54FF4805402E0284600F0FFF9F80507
:1016C00016D529684FF480708860B80503D5284680
:1016D00000F0F7F90CE0780502D544F4005407E077
:1016E000380502D544F4804402E0284600F0E8F9C9
:1016F000F80316D529684FF480308860B80303D505
:10170000284600F0E0F90CE0780302D544F40044E8
:1017100007E0380302D544F4803402E0284600F0A4
:10172000D1F9300707D55FEACB6004D529681020CE
:1017300044F40074C86070074FF0080707D55FEAEB
:101740000B7004D52868C760284600F057F9B00729
:1017500006D52868C068800702D0284600F050F9F6
:10176000700607D55FEACA6004D52968102044F4E2
:1017700080640861B00607D55FEA0A7004D528685E
:101780000761284600F06AF9F00606D52868006966
:10179000800702D0284600F062F9B00308D55FEA5E
:1017A000C96005D5296810204860284600F058F91E
:1017B000F00307D55FEA097004D52868476028461A
:1017C00000F082F9300446D55FEA497040D5F00553
:1017D00004D55FEAC87001D044F00104B00504D517
:1017E0005FEA887001D544F00204700504D55FEA11
:1017F000487001D544F00404300529D518F0700F65
:1018000026D008F07000402815D006DC102809D03A
:1018100020280AD0302816D10AE050280ED060289F
:1018200011D10EE044F008040DE044F010040AE089
:1018300044F0200407E044F0400404E044F0800455
:1018400001E044F480742868816921F070018161AD
:10185000296804204860002C05D0686A204368622B
:101860002846FFF78FFEBDE8F09F70B5040003D057
:1018700094F8200010B104E0012070BD204600F073
:1018800081F82068016821F00201016000F090FBFE
:101890000546052604E000F08BFB401B0A2811D802
:1018A000206840688007F6D42068016841F0010193
:1018B000016000F07DFB05460BE000F079FB401B6A
:1018C0000A2806D9606A40F40030606284F820601B
:1018D000D2E720684068C007EFD0207E012820684A
:1018E00001683DD021F080010160607E0128206800
:1018F000016838D021F040010160A07E01282068F5
:10190000016833D021F020010160E07E01282068C9
:1019100001682ED041F010010160207F012820686D
:10192000016829D021F008010160607F012820684A
:10193000016824D021F004010160D4E902010843C8
:10194000D4E90412114308436168491E0843216821
:10195000C86100206062012084F82000002070BD72
:1019600041F08001C0E741F04001C5E741F02001AE
:10197000CAE721F01001CFE741F00801D4E741F0B8
:101980000401D9E710B586B0044614216846FEF775
:10199000D3FC17492068884227D1164800210268E5
:1019A00042F000720260006800F00070059011487B
:1019B0001038026842F0080202600068022200F05B
:1019C000080005900320CDE90210CDE900020920AE
:1019D00004906946084800F0FBF9002211461420E3
:1019E00000F06EFB142000F05DFB06B010BD00009F
:1019F0000064004040380240000C02407047000084
:101A000000B58BB001AB03AA0021FFF7BCFD039822
:101A1000A0F2012007281AD80E49C0B200EB8002BC
:101A200008700D4901EB420031F812300381BDF816
:101A300004305BBA21F81230BDF8061049BA418073
:101A4000BDF8081049BA81809DF80A1081710BB069
:101A500000BD0000080000207C0400207047704793
:101A60007047000070B5044690F82000012804D0AB
:101A7000606A40F40020606218E0022084F82000D0
:101A80002068016821F00101016000F091FA05462B
:101A90000EE000BF00F08CFA401B0A2808D9606AEB
:101AA00040F400306062052084F82000012070BD01
:101AB00020684068C007EDD1606270BD7047704714
:101AC0007047704770477047704790F8351002298B
:101AD00003D08021416501207047052180F8351031
:101AE0000068016821F001010160002070470000DA
:101AF0002DE9F84304464FF00009CDF80090634803
:101B00004FF41651A56D0068B0FBF1F72E6894F8FC
:101B10005C10082000FA01F131420FD021680A68F8
:101B200052070BD50A6822F004020A6094F85C1090
:101B30008840A860606D40F00100606594F85C101A
:101B40004FF0010808FA01F0304208D021684969D5
:101B5000090604D5A860606D40F00200606594F845
:101B60005C1004208840304208D021680968890749
:101B700004D5A860606D40F00400606594F85C10C6
:101B800010208840304218D021680968090714D510
:101B9000A86020680168490304D50068000308D5DF
:101BA000A16C07E00168C90503D4016821F00801B0
:101BB0000160216C09B12046884794F85C10202010
:101BC0008840304231D021680968C9062DD5A86007
:101BD00094F8350005282068016806D0490347D5E8
:101BE000006800031DD4616C1CE021F01601016047
:101BF0002068416921F080014161206C08B9A06C26
:101C000020B12068016821F00801016094F85C109F
:101C10003F208840A86084F8349084F83580216D96
:101C20001FE0E16B09B120468847606D00282BD08A
:101C3000606DC00714D0052084F835002068016865
:101C400021F0010101600098401C0090B84203D8C7
:101C500020680068C007F6D184F8349084F8358095
:101C6000E16C002910D001B02046BDE8F0430847E0
:101C70000168C905D5D4016821F01001016084F81C
:101C8000349084F83580CCE7BDE8F8831800002054
:101C90002DE9F041044600F08BF906465CB10025C1
:101CA00084F83450022084F835002068016821F05F
:101CB000010101600DE00120BDE8F08100F078F93C
:101CC000801B052805D920206065032084F8350095
:101CD000F2E720680068C007F0D122681168204848
:101CE0000140D4E901031843D4E9033633431843D0
:101CF00063691843A3691843E3691843236A1843C7
:101D00000843616A042903D1D4E90B13194308433A
:101D1000106020684069666A20F0070130460E4373
:101D2000012704280CD1A06A0643E06A40B120468E
:101D3000FFF7FCF920B14020606584F83570BAE700
:101D4000206846612046FFF7DDF994F85C203F21CA
:101D500091408160656584F835700020ACE7000033
:101D60003F8010F070B5044690F83400002501283B
:101D70000CD0012084F8340094F835600020012E46
:101D800006D084F834000225284670BD022070BDBC
:101D9000022684F8356060652046FFF7F1F9206877
:101DA000016841F001010160EEE7000070B50446F2
:101DB00000F0FEF80546601C02D004480078044498
:101DC00000F0F6F8401BA042FAD370BD0C000020D2
:101DD0002DE9F84F00224FF0010803254FF00F0EB8
:101DE0000B6808FA02F42340A3426ED14E68012E1C
:101DF00005D0022E03D0112E01D0122E12D18668EA
:101E00004FEA420C05FA0CF7BE43CF6807FA0CF70D
:101E1000374387604668A6430C79C4F300149440A6
:101E200034434460C668570005FA07FC8C6826EA0C
:101E30000C06BC403443C4604C68022C01D0122C08
:101E400013D1D40800EB8404A346D4F8209054079F
:101E50004FEAD46A0EFA0AF629EA06090E6906FA6A
:101E60000AF646EA0906CBF8206004680E7924EAEF
:101E70000C0406F00306BE40264306604C68E400EE
:101E80006FD53B4C266846F480462660246822F0D5
:101E9000030604F480440094364C3444A446D4F839
:101EA00008489607360F0EFA06F7BC43324FB84281
:101EB00001D100272EE0314FB84201D1012729E09E
:101EC0002F4FB84202D1022724E04AE02D4FB842FA
:101ED00001D103271EE02C4FB84201D1042719E09D
:101EE0002A4FB84201D1052714E0294FB84201D149
:101EF00006270FE0274FB84201D107270AE0264FF7
:101F0000B84201D1082705E0244FB84201D1092782
:101F100000E00A27B7402743CCF80878204E346801
:101F20004F689C43FF0300D51C4334601C4E361D94
:101F300034684F689C43BF0300D51C433460184E7F
:101F4000083634684F689C43FF0200D51C43346058
:101F5000134E0C3634684F689C43BF0200D51C43B7
:101F60003460521C102AFFF43BAFBDE8F88F00002C
:101F700044380240003001400000024000040240AA
:101F800000080240000C0240001002400014024011
:101F900000180240001C02400020024000240240C1
:101FA000003C01400AB1816170470904FBE7000071
:101FB00001488068704700000C00002002488168DA
:101FC00002781144816070470C0000200B4810B566
:101FD000016841F400710160016841F480610160B1
:101FE000016841F480710160032000F089F800204D
:101FF00000F006F800F03EF8002010BD003C024062
:1020000010B5014688B00022362000F059F836207D
:1020100000F048F813480024016841F01001016005
:10202000006805A900F010000690684600F014F959
:1020300000F032F90C494000B0FBF1F10C480B4ABA
:10204000491E026040F2E732C0E90324C0E90114EE
:1020500000F0D4FC10B1012008B010BD044800F01D
:1020600011FDF9E74038024040420F0000100040E7
:10207000840600200A4808B5016841F480410160E7
:10208000006800F4804000900548001F016841F09E
:1020900080510160006800F08050009008BD000091
:1020A00044380240002809DB00F01F020121914062
:1020B0004009800000F1E020C0F8001170470000E6
:1020C000F0B40E4B1B680C46C3F30223C3F10705A3
:1020D000042D00D90425191D072901D2002300E091
:1020E000DB1E012606FA05F1491E214099409E405B
:1020F000761E16403143F0BC02F068B90CED00E0EA
:10210000064900F0070208684FF6FF03184040EA4E
:102110000220034A10430860704700000CED00E005
:102120000000FA052DE9F0470E46050065D0DFF8FE
:102130001481D8F80000F7B200F00F00B04207D2C7
:1021400088F80070D8F8000000F00F00B04254D1B9
:1021500028683D4C810712D5400703D5206840F41C
:10216000E05020602878000703D5206840F46040E4
:1021700020602068A96820F0F000084320602878DB
:10218000C0072DD0304968680839012812D00228CC
:1021900013D0032811D00968890700292DDA216896
:1021A00021F0030101432160FFF702FF814641F264
:1021B000883A0EE009688903EFE709688901ECE7CE
:1021C000FFF7F6FEA0EB0901514502D90320BDE857
:1021D000F0872068696800F00C00B0EB810FEFD148
:1021E000D8F80010404601F00F01B14207D907703E
:1021F000006800F00F00B04201D00120E7E7287826
:10220000400705D52068E96820F4E05008432060C5
:102210002878000706D52068296920F4604040EA44
:10222000C100206000F058F82168084AC1F303118A
:10223000515CC8400649086006480068FFF7E0FEA8
:102240000020C4E7003C0240083802404463000814
:1022500018000020100000200F2202600C4A1368B2
:1022600003F003034360136803F0F0038360136813
:1022700003F4E053C36012684FF4E05303EAD20260
:1022800002610448006800F00F0008607047000019
:1022900008380240003C02400448054900680968CB
:1022A000044AC1F38221515CC840704718000020E5
:1022B000083802405463000804480549006809686A
:1022C000044AC1F34231515CC840704718000020F5
:1022D0000838024054630008154810B5006810F033
:1022E0000C02144813D01449042A0FD0082A0ED126
:1022F0000F4C241F2268236802F03F025B0207D5BF
:102300002068C0F38810A0FB010106E0084610BD5C
:102310002168C1F38811A1FB00010023FDF7C2FF72
:102320002168C1F30141491C4900B0FBF1F010BD27
:10233000083802400024F400001BB7002DE9F84FD4
:1023400004006ED02078DFF83C93C007A9F10405A3
:102350004AD009F104000168C1F38101012908D0C4
:102360000068C0F3810002280AD1D9F800004002B9
:1023700006D52868800337D560680028E1D033E0AF
:102380006068B0F5803F10D0B0F5A02F286810D05D
:1023900020F480302860286820F48020286060685D
:1023A000A8B1FFF705FE06460DE0286840F480302E
:1023B000F4E740F480202860F7E700BFFFF7F8FD5E
:1023C000801B642873D828688003F7D50CE0FFF7DA
:1023D000EFFD064605E000BFFFF7EAFD801B64281D
:1023E000F0D828688003F7D42078DFF89C82800733
:1023F0004FF0000A3ED5A348001D016811F00C0FF4
:1024000008D00068C0F3810002280BD1D9F8000081
:10241000400207D42868800716D5E068012800D15B
:1024200012E02BE1E068B8B10120C8F80000FFF726
:10243000BFFD064605E000BFFFF7BAFD801B02287E
:10244000C0D828688007F7D52868216920F0F800EF
:1024500040EAC10028600DE0C8F800A0FFF7A8FD21
:10246000064604E0FFF7A4FD801B02281FD8286859
:102470008007F7D42078000722D5824E834861690F
:10248000703671B101210160FFF792FD074604E04B
:10249000FFF78EFDC01B022809D830688007F7D5EA
:1024A0000EE0C0F800A0FFF783FD074605E082E0DC
:1024B000FFF77EFDC01B02287DD830688007F7D467
:1024C0002078400768D5DFF8BCB100270BF13C0B42
:1024D000DBF80000C0000BD4DBF8001041F08051A5
:1024E000CBF80010DBF80000012700F080500090CE
:1024F000674E3068C00510D4306840F4807030609A
:10250000FFF756FD009005E0FFF752FD0099401AD5
:10251000022850D83068C005F6D55A4EA0686C36EF
:1025200001280FD00528306810D020F0010030605D
:10253000306820F004003060A068B8B1FFF738FDC3
:1025400000900FE0306840F00100F4E740F0040034
:102550003060F7E7FFF72CFD0099411A41F288300F
:10256000814266D830688007F4D50EE0FFF720FD81
:10257000009007E0FFF71CFD0099411A41F28830F6
:10258000814256D830688007F4D42FB1DBF80010B0
:1025900021F08051CBF80010A069C8B33949091D5A
:1025A0000968C1F3810102294AD00228504607D0A8
:1025B000C8F8600000E03CE0FFF7FAFC04463BE0AE
:1025C0004746C8F86000FFF7F3FC064605E000BF89
:1025D000FFF7EEFC801B02282BD828688001F7D477
:1025E000D4E907010843A16A2A4A490802EB0141DC
:1025F000626A41EA8211084394F82C1040EA0161B2
:10260000C9F8001001203866FFF7D2FC044606E046
:1026100036E000BFFFF7CCFC001B022809D8286871
:102620008001F7D52CE000BFFFF7C2FC001B022899
:1026300002D90320BDE8F88F28688001F4D41FE098
:102640000128F7D0D9F80000E26900F48001914236
:1026500014D1226A00F03F0191420FD147F6C071B8
:10266000626A0140914209D1A26A00F4403191426C
:1026700004D1E16A00F07060884201D00120D9E7FE
:102680000020D7E70438024000004742800E47424E
:10269000007000400000FFFF70B5040005D0002569
:1026A000A56294F8510010B106E0012070BD84F8D5
:1026B0005050204600F030F8022084F85100206885
:1026C000016821F040010160D4E901010843D4E927
:1026D00003121143084361690843218B01F400711F
:1026E0000843E1690843216A0843A16A0843216855
:1026F0000860A069042101EA1040616A084321686A
:1027000048602068C16921F40061C16165650120EC
:1027100084F85100002070BD10B586B00446142125
:102720006846FDF709FE14492068884221D1134804
:102730000021026842F480120260006800F48010F8
:1027400005900E481438026842F0200202600068CA
:1027500000F0200005904FF4607000900220CDE959
:102760000101032003900520049069460448FFF707
:102770002FFB06B010BD000000500140443802405D
:10278000001402402DE9F84F044690F8500000274D
:102790000A9E1D4692468B464FF0010901280ED035
:1027A000012084F85000FFF703FC804694F85100A4
:1027B000616801280CD0B1F5827F07D102E00220C8
:1027C000BDE8F88FA16809B9042801D00227C2E04A
:1027D000BBF1000F27D0BAF1000F24D01DB394F83D
:1027E0005100042802D0052084F8510000206065C3
:1027F000C4F838A0E587A587C4F830B0E586A5867B
:102800002064606420680168490603D4016841F0CF
:1028100040010160E068B0F5006F606805D0E8B382
:10282000012D46D07FE0012795E008B1012D39D177
:10283000206B21680088C860206B801C2063E08EBC
:10284000401EE0862EE02068816889070FD5E18E62
:1028500069B1B9F1010F0AD1216B0988C160206B00
:10286000801C2063E08E401EE0864FF00009206847
:102870008168C9070CD0E18F51B1C068A16B088095
:10288000A06B801CA063E08F401EE0874FF0010921
:10289000FFF78EFBA0EB0800B04200E009E001D397
:1028A000701C50D1E08E0028CDD1E08F0028CAD115
:1028B0003FE0206B216800780873206B401C206388
:1028C000E08E401EE0862EE02068816889070FD5E3
:1028D000E18E69B1B9F1010F0AD1216B0978017359
:1028E000206B401C2063E08E401EE0864FF0000904
:1028F00020688168C9070CD0E18F51B1C068A16B15
:102900000870A06B401CA063E08F401EE0874FF072
:102910000109FFF74DFBA0EB0800B04202D3701C89
:1029200001D010E07EB1E08E0028CDD1E08F0028EC
:10293000CAD142463146204601F02EF828B101277F
:102940002020606507E0032705E0A06818B920682B
:10295000C16880680090012084F85100002084F84C
:10296000500038462CE770477047000070B590F86B
:102970003C20012A32D0012480F83C40022280F819
:102980003D2003685A689D6822F070060A68324349
:102990005A60134B02689A4214D0B2F1804F11D0A2
:1029A000104B9A420ED0104B9A420BD00F4B9A42CA
:1029B00008D00F4B9A4205D00E4B9A4202D00E4BD4
:1029C0009A4204D1496825F080031943916080F848
:1029D0003D40002180F83C10084670BD022070BDCB
:1029E000000001400004004000080040000C0040CE
:1029F00000040140004001400018004010B50400F0
:102A000003D094F83D0010B107E0012010BD002074
:102A100084F83C00204600F00DF8022084F83D00C8
:102A2000211D206801F0D2F8012084F83D0000202B
:102A300010BD000008B501681048B1F1804F0BD0FF
:102A40000F4A914207D1016841F00201016000681C
:102A500000F00200009008BD016841F00101016032
:102A60000068002200F00100009011461C20FFF7D2
:102A700027FBBDE808401C20FFF714BB403802408C
:102A8000000400400168CA6842F00102CA600068A0
:102A9000816801F00701062903D0016841F00101B6
:102AA00001600020704770B5044690F83C00012892
:102AB00017D0012584F83C50022084F83D0020689E
:102AC000826822F0770222F47F42826008685028F0
:102AD00030D00DDC20284DD005DC98B310283BD138
:102AE00048E0022070BD302844D0402834D139E07D
:102AF000602828D0702806D0B0F5805F2CD0B0F5C3
:102B0000005F29D10AE0CB68D1E90121206801F0FA
:102B1000C1F82068816841F0770109E0CB68D1E90C
:102B20000121206801F0B6F82068816841F48041F5
:102B3000816011E0CA684968206801F07FF950217E
:102B4000206807E016E0CA684968206801F087F944
:102B50006021206801F0A8F884F83D50002084F836
:102B60003C0070BDCA684968206801F067F94021DF
:102B70002068EFE7226801461046EBE7704770B522
:102B80000446006801694FF00005C943890715D460
:102B9000C168C943890711D4E91E0161012020776A
:102BA000206880698007204602D0FFF7E7FF04E035
:102BB00000F0C0F8204600F042F92577206801694E
:102BC000C943490717D4C168C943490713D46FF0F3
:102BD00004010161022020772068806910F4407FA1
:102BE000204602D0FFF7CAFF04E000F0A3F8204619
:102BF00000F025F9257720680169C943090716D433
:102C0000C168C943090712D46FF0080101610420AB
:102C100020772068C0698007204602D0FFF7AEFF0A
:102C200004E000F087F8204600F009F925772068D5
:102C30000169C943C90617D4C168C943C90613D479
:102C40006FF010010161082020772068C06910F43E
:102C5000407F204602D0FFF791FF04E000F06AF8C1
:102C6000204600F0ECF8257720680169C943C907C0
:102C700008D1C168C943C90704D1891E0161204632
:102C800000F0DEF820680169C943090609D4C1686B
:102C9000C943090605D46FF0800101612046FFF7A2
:102CA00062FE20680169C943490609D4C168C94365
:102CB000490605D46FF040010161204600F0CAF8D2
:102CC00020680169C94389060BD4C168C9438906D4
:102CD00007D46FF0200101612046BDE87040FFF786
:102CE00043BE70BD10B586B0044614216846FDF79A
:102CF00023FB0D492068884214D10C48002102684A
:102D000042F002020260006800F0020005902020FC
:102D100000900220CDE90101CDE903106946044885
:102D2000FFF756F806B010BD0004004030380240EE
:102D300000040240704770B5044690F83C000D4610
:102D400001280DD0012684F83C60022084F83D0063
:102D500042B1042A18D0082A2AD00C2A4DD139E0D1
:102D6000022070BD206800F0A7FF2068816941F053
:102D7000080181612068816921F004018161206876
:102D800081692A69114311E0206800F0C5FF2068BD
:102D9000816941F4006181612068816921F4806169
:102DA0008161206881692A6941EA0221816124E008
:102DB000206800F0E7FF2068C16941F00801C161A7
:102DC0002068C16921F00401C1612068C1692A69D4
:102DD000114311E0206801F009F82068C16941F44D
:102DE0000061C1612068C16921F48061C16120680E
:102DF000C1692A6941EA0221C16184F83D6000206D
:102E000084F83C0070BD10B5040003D094F83D0078
:102E100010B107E0012010BD002084F83C002046DE
:102E200000F00CF8022084F83D00211D206800F01D
:102E3000CDFE012084F83D00002010BD7047704792
:102E400000680349884201D1FFF7B8B87047000015
:102E5000001000407047704770B502680446106863
:102E6000D168536910F00F0F52D003F0010501F43F
:102E700090762E435FD0C20705D0CA0503D5E26B1A
:102E800042F00102E263420705D5DA0703D0E26BA4
:102E900042F00202E263820705D5DA0703D0E26B53
:102EA00042F00402E263020707D501F020022A4340
:102EB00003D0E26B42F00802E263E26B002A33D0F7
:102EC000800604D5880602D5204600F0F0FF206871
:102ED0004069E16BC0F38010090700D428B3204695
:102EE00000F0D7FF2068416949061AD5416921F0F1
:102EF00040014161606BA0B11B490165606BFEF749
:102F0000E4FD002810D0606B016DBDE870400847FB
:102F1000830610D58B060ED52046BDE8704000F024
:102F2000C6BF2046FFF797FF70BD2046FFF793FF0F
:102F30000020E06370BD030606D50B0604D52046CD
:102F4000BDE8704001F092B84006F3D54806F1D5CF
:102F5000D168204621F04001D160202184F8391049
:102F600000F0B9F870BD0000833E000870B50400A1
:102F700004D094F83900002510B106E0012070BD9E
:102F800084F83850204600F023F8242084F83900D3
:102F90002068C16821F40051C160204600F0D2FFD2
:102FA0002068016921F4904101612068416921F0A4
:102FB0002A0141612068C16841F40051C160E563A4
:102FC000202084F8390084F83A00002070BD000009
:102FD000F0B587B0064614216846FDF7ADF93749CC
:102FE000354F346800253548143902220323BC428A
:102FF0003AD1046844F010040460006800F0100046
:103000000590086840F0020008600868694600F012
:1030100002000590C0208DE825000720CDE903308F
:103020002748FEF7D5FE284C264820604FF0006068
:10303000C4E901054014C4E9035080106561C4E986
:1030400006504FF44030C4E908052046FEF720FE44
:1030500008B1FEF7AAF87463002211462520A66382
:10306000FFF72EF8252023E0184EB44222D1046841
:1030700044F020040460006800F020000590086817
:1030800040F0400008600868694600F04000059084
:103090004FF484408DE825000820CDE903300C482A
:1030A000FEF796FE002211464720FFF709F8472059
:1030B000FEF7F8FF07B0F0BD0010014044380240B1
:1030C0000004024040640240240600200014014035
:1030D0000018024070477047B0F90020B1F90010A5
:1030E000511AB1F5805F02DDA2F5005204E011F53E
:1030F000805F02DA02F5005202807047FEE70000AE
:103100002DE9F04FDFF8CCC0DFF8CCA00CF124089B
:10311000099F002408F124090AF10C0B04EB440672
:103120000CEB860593ED050AD5ED000A95ED011A25
:1031300020EE200AD3ED060A00EE810AD3ED070A3D
:1031400095ED021A00EB840500EE810A85ED000A78
:1031500008EB860593ED010AD5ED000A95ED011AFD
:1031600020EE200AD3ED020A00EE810AD3ED030A15
:1031700095ED021A0AEB840500EE810AD5ED000AEE
:1031800001EB840530EE200A85ED000A09EB860587
:1031900097ED010AD5ED000A95ED011A20EE200AFF
:1031A000D7ED020A00EE810AD7ED030A95ED021A67
:1031B0000BEB840500EE810AD5ED000A02EB8405D5
:1031C000641CE4B2032C30EE200A85ED000AA5D37E
:1031D000BDE8F08F100100207C480020064810B5A3
:1031E00090F9000000EE100AB8EEC00A00F0BEF838
:1031F000BDE8104000F07EBFA400002030B5554C63
:103200002278520603D5027842F002020270037857
:103210009A070BD5504A15786D1CEDB215700A2D22
:1032200004D90025157023F0020202702278D3071A
:10323000484A02F110026BD0037843F00103037097
:10324000B2F9003000EE103AF8EEC00A9FED430AE2
:1032500060EE800AC0ED010AB2F9023000EE903A49
:10326000F8EEE00A60EE800AC0ED020AB2F904301E
:1032700000EE903AF8EEE00A20EE800A80ED030AB4
:10328000B2F90C3000EE103AF8EEC00A9FED341A95
:1032900080EE810AF3EE050A30EE200A80ED040A82
:1032A000B2F90E3000EE103AF8EEC00A9FED2D0A8A
:1032B00060EE800AC0ED050AB2F9103000EE903AD7
:1032C000F8EEE00A60EE800AC0ED060AB2F91230AC
:1032D00000EE903AF8EEE00A20EE800A80ED070A50
:1032E000B2F90E3000EE103AB8EEC00A80ED080ACE
:1032F000B2F9103000EE103AB8EEC00A80ED090ABB
:10330000B2F9123000EE103AB8EEC00A80ED0A0AA7
:10331000B2F9060000EE100AF8EEC00A9FED120A9C
:1033200060EE800AC1ED010AB2F9080000EE900AD1
:10333000F8EEE00A60EE800AC1ED020AB2F90A0076
:1033400000EE900AF8EEE00A20EE800A81ED030A12
:1033500030BD00009448002004010020CDCC1C3A70
:103360005CEFA64358A00B3A9A99993E70B51A485B
:103370001A491B4D4278D1ED040A00F108049AB1B4
:10338000E16B0830884794ED0B0AB5EEC00AF1EE08
:1033900010FA03D29FED130A84ED0B0ABCEEC00AAB
:1033A00010EE100A80B214E0F4EEC00A0121F1EE32
:1033B00010FA0BD28278521CD2B28270142A06D92B
:1033C00041709FED090A84ED090A00E0417041F265
:1033D00087302968886370BDA4000020044800205D
:1033E000640500200000000000401C45DFED0A1AC3
:1033F00000F11403C0ED001AC0ED011AC0ED021A6D
:10340000C0ED031AC0ED041A83EC030AC0E90912E7
:10341000C0ED081A704700000000000008B5014622
:1034200080EC020A30EE600A80ED020AD0ED030A59
:10343000D0ED051A30EE601A21EE211AD0ED061AF1
:1034400061EE801ACDED001AF0EE001A00EEE10AEE
:10345000D0ED040A30EE200AD0ED070A684660EE8F
:10346000201A91ED0A0AB8EE400A01F0A9F9DDED43
:10347000000A91ED080A01F1200071EE200A70EEB9
:10348000A10A30EE200A81ED080A91ED090AB8EE92
:10349000400A01F095F991ED030A81ED040A91EDDE
:1034A000020A81ED030A91ED080A08BD7FB50024E8
:1034B00015480094019402941249039401604FF45A
:1034C0008031C0E901140461047680F820400F497E
:1034D000C0E90A140125C561C46080F83040456127
:1034E000FDF716FF08B1FDF760FE0948CDE90005BC
:1034F000694602940448FDF759FE002801D0FDF703
:1035000054FE7FBD00200140F40300200100000FA5
:10351000120000100F4810B50D49016007214160ED
:1035200000214FF400328160C0E90312D2004261F1
:103530000176012242768276C27601774177FEF7E4
:1035400094F9002803D0BDE81040FDF72EBE10BD51
:10355000006400403C040020094808B5016841F4BB
:10356000800101600068002200F480000090114694
:103570003A20FEF7A5FDBDE808403A20FEF792BDCF
:103580003038024010B58EB01C220B496846FCF75B
:10359000BAFE0021684602F023F8084C06491C22B6
:1035A00020601C3107A8FCF7AEFE002107A802F03E
:1035B00017F860600EB010BD046300080000002022
:1035C00030B587B014216846FCF7B6FE21480024C8
:1035D000016841F002010160016801F002010591FA
:1035E000016841F040010160016801F0400105916E
:1035F000016841F001010160016801F001010591DC
:10360000016841F008010160016801F008010591BD
:10361000016841F080010160016801F080010591BD
:10362000016841F02001016000680B4D00F02000AE
:103630000590002240212846FEF7B4FC402000906F
:103640000120CDE90104694628460394FEF7C0FB3A
:1036500007B030BD3038024000140240104810B5A9
:103660000E4901604FF48271416000218160C160A8
:103670004FF400720161C0E905123022C0E9072150
:10368000416281620A21C162FFF706F8002803D077
:10369000BDE81040FDF789BD10BD0000005001409D
:1036A000CC04002010B586B0002417480094019483
:1036B0000294039404944FF080410594016042F217
:1036C000CF01C0E901143121C0E9031480218161D7
:1036D000FFF794F908B1FDF768FD4FF480500090B2
:1036E00069460948FFF7DFF908B1FDF75EFD04946C
:1036F00004A905480594FFF739F9002801D0FDF722
:1037000054FD06B010BD00002405002010B58EB099
:1037100000240794089409940A940B941C21684689
:103720000C94FCF709FE1E481C49C0E9001441F244
:103730002F11C0E9024104618461FFF75FF908B10C
:10374000FDF733FD4FF48050079007A91448FFF7A9
:10375000AAF908B1FDF729FD1148FFF754FB08B19C
:10376000FDF723FD0B940BA90D480C94FFF7FEF811
:1037700008B1FDF71AFD6020CDE90004029404228F
:10378000694607480494FFF7D6FA08B1FDF70DFD26
:103790000348FFF7A7FA0EB010BD00000004004078
:1037A000640500200C4810B50A4901600B494160CE
:1037B000002181600C22C160C0E904128161C161F5
:1037C000FFF7D4FB002803D0BDE81040FDF7EDBCA7
:1037D00010BD000000100140A4050020A0860100DB
:1037E0000C4810B50A4901604FF4E13141600021F5
:1037F00081600C22C160C0E904128161C161FFF7E0
:10380000B5FB002803D0BDE81040FDF7CEBC10BDCD
:1038100000140140E4050020FEE700007CB500250F
:10382000124C00950195A560E5600825256140F2E0
:10383000FF152560040A8DF800408DF80100080A84
:103840008DF80200100A8DF804008DF80520180A82
:103850008DF803108DF8060004498DF80730002319
:103860006A46A1F12800FDF7A3FD7CBD6404002099
:103870007CB50025124C00950195A560E5600825F2
:103880002561AD012560040A8DF800408DF8010026
:10389000080A8DF80200100A8DF804008DF8052042
:1038A000180A8DF803108DF8060005498DF80730C9
:1038B00000236A46A1F12800FDF77AFD7CBD0000D7
:1038C0006404002070470000DFED081AC0ED001A04
:1038D000C0ED011AC0E90912C0ED021AC0ED031AC9
:1038E000C0ED041A143080EC040A70470000000098
:1038F00008B5014680EC020A30EE600A80ED020A4B
:10390000D0ED040A70EE800AC0ED040AD0ED061A6C
:1039100090ED051A61EEA00A21EE001ACDED000A25
:10392000D0ED031A30EE610AD0ED071A124860EEAE
:10393000211ABDEEE00A80ED000A91ED0A0A684600
:10394000B8EE400A00F03CFF9DED000A01F12000B6
:1039500031EE000A30EE210A81ED080A91ED090AE4
:10396000B8EE400A00F02CFF91ED020A81ED030A47
:1039700091ED080A08BD0000A0000020BDEEC00ABD
:1039800010EE100A41B203482329017001DD232102
:1039900001707047A400002038B504461248134B4C
:1039A0000068B0FBF3F04FF47A73584300906068FE
:1039B000B0F5827F0DD10B46009200228021204677
:1039C00000F016F870B1606D40F0200060650320D3
:1039D00038BD009830B1401E009020688068C04318
:1039E0000006F6D5002038BD1800002000366E0114
:1039F0002DE9F0411D4617460E460446DDF81880B5
:103A000008E0681C06D0FEF7D3FAA0EB0800A84235
:103A10000BD255B12068806836EA000030D0002013
:103A2000B842EED10020BDE8F0812068416821F065
:103A3000E00141606068B0F5827F0BD1A068B0F50D
:103A4000004F02D0B0F5806F04D12068016821F0EA
:103A500040010160A06AB0F5005F09D120680168EB
:103A600021F4005101602068016841F400510160B7
:103A7000012084F85100002084F850000320D2E790
:103A80000120CDE7114CA07A022802D0012806D0EF
:103A900017E0E07A022814D101F0C8FA11E0E07AC8
:103AA000022804D0012807D0032808D009E001F03B
:103AB0005BF901F0D5F904E001F056F901E001F0FD
:103AC000B3FB0A2001F080FDDDE700007A4700200B
:103AD000044C6068804702F071F8012001F074FD29
:103AE000F7E70000EC00002010B5502080F31188AB
:103AF000BFF34F8FBFF36F8F02F03EFB18B1044945
:103B00004FF080500860002080F3118810BD000045
:103B100004ED00E030B593B030216846FCF70CFCB2
:103B200014210CA8FCF708FC19480025016841F095
:103B300080510160006800F08050119015480168C4
:103B400041F4404101600068022400F440401190BB
:103B500001200090000401908001CDE9064006207C
:103B60000890A820CDE9090404200B906846FEF7D0
:103B7000E5FB0CA90F2081E831004FF4A0500F9015
:103B8000E002109005210CA8FEF7CCFA13B030BD6E
:103B900040380240007000400548016841F470015F
:103BA000016003494FF000608039086070470000F1
:103BB00088ED00E00148FEF7E2BF00002405002088
:103BC0000148FEF7DCBF000084060020F0B5026863
:103BD000254C264D264E274F274B4FF0804CA042B8
:103BE00009D0604507D0A84205D0B04203D0B84202
:103BF00001D0984204D122F0700E4A6842EA0E02C7
:103C0000A0421BD0604519D0A84217D0B04215D0B1
:103C1000B84213D0984211D0184DA8420ED0184D7A
:103C2000A8420BD0174DA84208D0174DA84205D086
:103C3000164DA84202D0164DA84203D122F4407579
:103C4000CA682A434D6922F080022A4302608A68CA
:103C5000C2620A688262A04201D0984201D1096919
:103C6000016301214161F0BD0000014000040040FA
:103C700000080040000C00400004014000400140EA
:103C8000004401400048014000180040001C004072
:103C90000020004010B5846842EA032224F47F44E7
:103CA0000A432243826010BD826822F070020A43F8
:103CB00042F0070181607047F0B5026A22F001020C
:103CC0000262036A42688469124E24F073050C682C
:103CD0002C4323F002058B682B430D4DA84201D0E5
:103CE000B04205D123F00807CB683B4323F004031F
:103CF000A84201D0B04205D14D6922F4407215436B
:103D00008A692A4342608461496841630362F0BD65
:103D10000000014000040140F0B5026A22F01002E8
:103D20000262026A436884690D6824F4E64444EA46
:103D300005248D6822F0200242EA05120F4D104E34
:103D4000A84201D0B04206D1CF6822F0800242EAF8
:103D5000071222F04002A84201D0B04207D14D69BB
:103D600023F4406343EA85038D6943EA8503436096
:103D70008461496881630262F0BD00000000014077
:103D800000040140F0B5026A22F480720262026A05
:103D90004368C46922F4007224F073050C68124E63
:103DA0002C438D6842EA05220E4DA84201D0B04254
:103DB00006D1CF6822F4006242EA072222F4806230
:103DC000A84201D0B04207D14D6923F4405343EAE1
:103DD00005138D6943EA05134360C4614968C163F3
:103DE0000262F0BD000001400004014030B5026AEB
:103DF00022F480520262046A4268C3690D6823F4A7
:103E0000E64343EA05238D6824F4005444EA05346C
:103E1000084DA84202D0084DA84204D14D6922F4B1
:103E2000804242EA85124260C361496801640462CB
:103E300030BD0000000001400004014010B5036ADD
:103E4000046A24F001040462846924F0F00444EA62
:103E5000021423F00A020A438461026210BD10B505
:103E6000036A23F0100303628369046A23F4704336
:103E700043EA023224F0A00343EA011182610162A5
:103E800010BD10B5806B0021C185C184FEF7E3FF32
:103E900010BD0168CA6822F49072CA6001684A695C
:103EA00022F001024A61202180F83A10704710B5D3
:103EB00090F83A10222901D0022010BD8168B1F596
:103EC000805F11D00169002901681FD0496801F0A5
:103ED0007F03816A4A1C82620B70C18D491E0904EE
:103EE000090CC18518D02BE00269816A002A02689A
:103EF000526805D0D2B20A80816A491C8162ECE71F
:103F0000C2F308020A80816A891CF7E74A68816A5D
:103F10004B1C83620A70E0E70168CA6822F0200245
:103F2000CA600168CA6822F48072CA6001684A697E
:103F300022F001024A61202180F83A10FFF7CAF806
:103F4000002010BD2DE9F041044600680169E268D7
:103F500021F44051114301612169A068E2690843DD
:103F60006169114308432168CA6849F20C639A43A6
:103F70000243CA6020684169A26921F4407111437B
:103F80004161E069192764253226B0F5004F354AB2
:103F9000354920684FF0000806D0884201D0904291
:103FA00036D1FEF789F935E0884201D0904202D13E
:103FB000FEF782F901E0FEF76FF961684A18A0FB8D
:103FC000070148EB0803FCF76DF90146B0FBF5F07B
:103FD0000201B1FBF5F06FF01803584301EB8000CC
:103FE00006EBC000B0FBF5F000F0F80002EB400279
:103FF000B1FBF5F0584301EB800006EBC000B0FBCD
:10400000F5F000F00700216810448860BDE8F081F9
:10401000FEF742F961688B0F8A00A0FB0701FCF7ED
:1040200041F90146B0FBF5F06FF01802504301EB87
:10403000800006EB0010B0FBF5F000F0F002B1FBE1
:10404000F5F002EB0012B1FBF5F06FF018035843E6
:1040500001EB800006EB0010B0FBF5F000F00F0064
:10406000D1E70000001401400010014090F8391021
:10407000212901D0022070478168B1F5805F016A73
:104080000BD04A1C0262026809785160C18C491E3B
:104090000904090CC1840ED017E009880268C1F335
:1040A0000801516001690029016A02D0491C0162BE
:1040B000ECE7891CFBE70168CA6822F08002CA604D
:1040C0000068C16841F04001C160002070470000F5
:1040D00010B5044801F0BCFDBDE810400148FEF7F2
:1040E000BBBE0000A40500200148FEF7B5BE0000DD
:1040F000E40500202DE9F84F9F4C606880479F49F8
:10410000E268A1F12C0090479C480090A468A0F1BF
:104110002C03A0F17802A0F184019038A047974DBC
:104120002C3D2878C0076FD0954EA5F14004A5F12D
:104130005808F07804F1080704F1340904F1280A5A
:1041400004F11C0BF0B39AED000A50468BED000A07
:1041500099ED001A49468AED001ADFED8A0A61EEF0
:10416000201A9FED891A98ED002A40EE011A9FED62
:10417000870A42EE001AC9ED001ADAED011ACBEDFA
:10418000011A99ED012A80ED012A22EE202A01EE82
:10419000812AD8ED011A01EE802A81ED012AD0EDA5
:1041A000021ACBED021A91ED022A8AED022A62EE82
:1041B000200A41EE810A98ED021A41EE000AC9ED8B
:1041C000020A00E021E0A4F10C034A4658399FEDB1
:1041D000700A381DFCF7E2FD3B46221D2146381DC2
:1041E00000F0B0FEB188E9B34FF4FA7081426BD2AF
:1041F000634B2E78A4F130001B1D00F10C02B707B1
:1042000043D50020188064E02AE05C4A783AA2F1A5
:104210000C0101F12400FCF75BFC58493B466C396A
:10422000221D01F10C0000F08DFE98ED000A89EDD1
:10423000000A8AED000A8BED000A98ED010A89ED6B
:10424000010A8AED010A8BED010A98ED020A89ED57
:10425000020A8AED020A8BED020AF078401CF07027
:10426000BDE8F88FFFE74548A83800F10C0190ED54
:10427000000A81ED000A90ED010A81ED010A90ED3E
:10428000020A012081ED020A22E0F60721D0D0EDDA
:10429000000A92ED001A9FED3F0A491C41EE400AC8
:1042A000C0ED000AD0ED010A92ED011A41EE400A7C
:1042B000C0ED010AD0ED020A92ED021A41EE400A69
:1042C000C0ED020A198004E0814202D140F2F510EB
:1042D000B0802A4A95ED040A1032DFED2F0A9FEDD7
:1042E0002F1A2F4B82ED0E0A002000BF04EB800135
:1042F000B0EE410AD1ED001A02EB800101EEA00AF6
:1043000081ED000AD1ED061A30EE610A10EE106A56
:104310009E4204D902EB4006378E7F1C378691ED12
:10432000060AD1ED001A30EE610A10EE106A9E42C4
:1043300004D902EB40073E8E761E3E8602EB400615
:1043400091ED000A368E4FF4B47716FB07F601EEB6
:10435000906A05EB8006401CF8EEE11A032870EE27
:10436000211AC1ED091A81ED060A96ED080A81EDC0
:10437000030ABBDB74E70000F40000203048002093
:10438000A40000205AF8F63F5D896EBFD5A9183BFE
:104390006F12833A52499D393333654200003443EA
:1043A000000096C3FEE74100080218BF04200A0E71
:1043B00018BF40F001004FF07F4232EA010108BF10
:1043C00040F00200012808BF052070470907090EC8
:1043D000002804DB00F1E02080F80014704700F0B2
:1043E0000F0000F1E02080F8141D704710B54FF069
:1043F0000E402DED028BB0EE408A18EE104A00EB15
:104400004400B0F1506F4AD84FF0FC40B0EB440F7D
:1044100022D2B0EEC80AF7EE000A30EEC00AF6EE7D
:10442000000A60EE208A18EE900A01F0F1FB01EE1E
:10443000100A14F0004F1DBFDFED2D0A9FED2D0A6D
:10444000B1EE411ADFED2C0A08BF9FED2C0AF8EE01
:10445000001A21EE218A05E0DFED290A68EE088ABC
:10446000B0EE600A9FED271ADFED271A30EE080A3A
:1044700048EE811A9FED251A08EEA11ADFED241AE5
:1044800048EE811A9FED231A08EEA11A68EE281A49
:10449000BDEC028B01EE810A30EE200A10BD4FF018
:1044A000E440B0EB440F0CD918EE100AFFF77BFF85
:1044B000042808BF00F066F9B0EE480ABDEC028B94
:1044C00010BD4FF07F40B0EB440F07D2B0EE480A6A
:1044D000BDEC028BBDE8104000F046B9012000F0B1
:1044E00069F9BDEC028BBDE8104000F043B9000053
:1044F0000000C9BF22AAFDB90000C93F22AAFD39A8
:104500000000000024FE1C3DC78AD83C1E67383DD1
:104510001B93993DAFAA2A3E10EE100A10B510EE7B
:10452000901A4FF0684202EB40032DED028BB3F17D
:10453000654F3CBF02EB4102B2F1654F7CD200BF38
:10454000C0F3C753C1F3C7529A1A1B2A09DD10F0F2
:10455000004F14BF9FED6E0A9FED6E0ABDEC028BFB
:1045600010BD12F11A0F1BDA11F0004F09D010F034
:10457000004F0CBF9FED680A9FED680ABDEC028BEF
:1045800010BD80EE208A18EE100AFFF70CFF0428F9
:1045900008BF00F0F7F8B0EE480ABDEC028B10BD82
:1045A0004200B2EB410F37D910F0004F19BFDFEDD9
:1045B0005C1A9FED5C1ADFED5C1A9FED5C1AB0EEA1
:1045C000602A0A46F1EE400A80F00041B0EE420A4D
:1045D00010460A1A5200B2F1807F34D2484010F0DF
:1045E000004FDFED532A9FED533A1DBFBEEE002A68
:1045F00071EEE21A31EE431AB6EE002A04BF71EEF4
:10460000A21A31EE031AF0EE402A42EE602A40EE82
:10461000020A82EEA02A18E011F0004F04BF9FEDBD
:10462000461AF0EE411AD4D010F0004F1CBFDFED57
:10463000431A9FED431A00E026E004BFDFED411A64
:104640009FED411AC5E780EE202A22EE020ADFED37
:104650003F0ADFED3F2ABDEC028B40EE202ADFED62
:104660003D0A40EE220ADFED3C2A40EE202ADFED33
:104670003B0A40EE220A22EE000A00EE201A31EE3A
:10468000020A30EE210A10BD4FF07F42B2EB400F1C
:1046900028BFB2EB410F05D2BDEC028BBDE8104044
:1046A00000F065B840EA01035B0008BF41F0FF413C
:1046B0000BD0B2EB400F08BFB2EB410F08D120F096
:1046C000804000EE100A21F0804100EE901A37E79A
:1046D000B2EB400F12BF5FEA410240F0FF4001F031
:1046E00000413FF42DAF4A0092EA40033FF528AF66
:1046F000002AACBF9FED1A1A9FED1A1A20EE010A8C
:1047000060EE810A10EE100A10EE901A18E7000011
:10471000DB0FC9BFDB0FC93FDB0F4940DB0F49C0CF
:104720000000C9BF22AAFDB90000C93F22AAFD3975
:104730000060ED3EC30ACE3700000000000049C013
:1047400022AA7DBA0000494022AA7D3A2DAD65BD5E
:104750008FB8D53D0FB511BE61C84C3EA8AAAABE00
:104760000000804F0000802F30EE000A704730EECE
:10477000200A7047DFED020A80EEA00A70470000B1
:10478000000000009FED020A20EE000A70470000C2
:104790000000001002E008C8121F08C1002AFAD168
:1047A00070477047002001E001C1121F002AFBD1B1
:1047B0007047000001490860704700009C0100201C
:1047C000D0ED000AF4EEC00AF1EE10FA01DD80ED42
:1047D000000AD0ED000AB1EE400AF4EEC00AF1EE94
:1047E00010FA01D280ED000A7047000070B52DED7F
:1047F000028B8AB005460C4616460DB104B11EB9AF
:104800000AB0BDEC028B70BD94ED000AB5EEC00A93
:10481000F1EE10FA0DD194ED010AB5EEC00AF1EEF9
:1048200010FA06D194ED020AB5EEC00AF1EE10FAC4
:104830007DD09FED600AB0EE408A0020079008907E
:1048400009900490059006905B4A07CA01AB07C324
:1048500095ED010AD5ED030A20EE200AD5ED000AF8
:1048600095ED021A00EEC10AF0EE000A20EE200AD1
:104870008DED070A95ED000AD5ED010A20EE200A1C
:10488000D5ED020A95ED031A00EE810AF0EE000A5A
:1048900020EE200A8DED080A95ED000A20EE000AB0
:1048A000D5ED030A95ED031A00EE810AF7EE000A32
:1048B000B0EE001A51EE000ACDED090A01AB224616
:1048C0003146284600F07AF8D4ED000A60EEA00ADE
:1048D00094ED011AD4ED011A41EE210A94ED021A69
:1048E000D4ED021A41EE210AB0EE600AFCF73EFA5E
:1048F000B0EE408A94ED000A20EE080A84ED000A2A
:1049000094ED010A20EE080A84ED010A94ED020AF2
:1049100020EE080A84ED020A94ED010ADDED090A91
:1049200020EE200AD4ED020A9DED081A00E03EE0D8
:1049300000EEC10A8DED040A94ED020ADDED070ACE
:1049400020EE200AD4ED000A9DED091A00EEC10AFE
:104950008DED050A94ED000ADDED080A20EE200A2F
:10496000D4ED010A9DED071A00EEC10A8DED060A8D
:1049700096ED000ADDED010A9DED041A00EE810AB4
:1049800086ED000A96ED010ADDED020A9DED051A9D
:1049900000EE810A86ED010A96ED020ADDED030ABA
:1049A0009DED061A00EE810A86ED020A00BF00BFE7
:1049B00026E7000000000000786300082DE9F041C0
:1049C0002DED048B07460D4614461E469FED580AF2
:1049D000B0EE409A9FED560AB0EE408A9FED540A21
:1049E000F0EE408AD4ED000A60EEA00A94ED011AC0
:1049F000D4ED011A41EE210A94ED021AD4ED021A07
:104A000041EE210AB0EE600AFCF7B0F9F7EE000AB9
:104A100080EE801AB0EE419AD5ED000AB0EE600A41
:104A2000FCF734F8F0EE409AD5ED010AB0EE600ADA
:104A3000FCF72CF879EE809AD5ED020AB0EE600A08
:104A4000FCF724F839EE800AF0EE408A3948D0EDC0
:104A5000000A79EE600AB0EE600AFCF717F8B0EED3
:104A6000408A9FED350AB4EEC08AF1EE10FA06DCFA
:104A70009FED320AF4EEC08AF1EE10FA53DD9FED9D
:104A80002C2AB0EE420A9FED2A2AF0EE421AB7EE27
:104A9000002AF0EE420A9FED262AB0EE421AB5EE49
:104AA000C08AF1EE10FA05DD9FED232AC2EE082A36
:104AB000B0EE620A9FED222AB4EEC20AF1EE10FABD
:104AC00003D29FED1B2AB0EE420AF5EEC08AF1EE4A
:104AD00010FA05DD9FED192AC2EE282AF0EE621ABF
:104AE000B7EE002AB4EEC20AF1EE10FA03D220EEBD
:104AF000802AF0EE420AB7EE002AF4EEC21AF1EE76
:104B000010FA03D220EEA12AF0EE420A9FED0D2A00
:104B100020EE822AB0EE421A86ED001A86ED011AC6
:104B200086ED021A00BFBDEC048BBDE8F0810000E9
:104B30000000000098010020CDCCCC3D8FC2F53D97
:104B40009A99993ECDCC4C3E30B50F480F4C104B46
:104B5000B0F95210226A8D1A9D4202DA45896D1C05
:104B60004581521A9A4202DA4289521E4281B0F9B4
:104B70000A2001EB4232C2602162018A491C018293
:104B80000121418230BD0000C44300207C00002090
:104B90009CE6FFFF10B52DED048B86B00446B0EE09
:104BA000408AF0EE608AB0EE419A002003900490B3
:104BB0000590009001900290B0EE000AC8EE000A45
:104BC000F0EE609AB0EE690AFBF75EFF8DED030A26
:104BD000B0EE000AC8EE800AF0EE609AB0EE690A04
:104BE000FBF752FF8DED040AB0EE000AC9EE000A91
:104BF000F0EE609AB0EE690AFBF746FF8DED050A0C
:104C0000B0EE000AC8EE000AF0EE609AB0EE690A53
:104C1000FCF7C2F88DED000AB0EE000AC8EE800A7B
:104C2000F0EE609AB0EE690AFCF7B6F88DED010A75
:104C3000B0EE000AC9EE000AF0EE609AB0EE690A22
:104C4000FCF7AAF88DED020A9DED050ADDED040AD8
:104C500020EE200ADDED030A20EE200ADDED020A37
:104C60009DED011A60EE810A9DED001A00EE810AA9
:104C700084ED000A9DED020ADDED040A20EE200A13
:104C8000DDED030A20EE200ADDED050A9DED011A97
:104C900060EE810A9DED001A00EEC10A84ED010A62
:104CA0009DED050ADDED010A20EE200ADDED030A87
:104CB00020EE200ADDED020A9DED041A60EE810A65
:104CC0009DED001A00EE810A84ED020A9DED050AB1
:104CD000DDED040A20EE200ADDED000A20EE200AB8
:104CE000DDED020A9DED011A60EE810A9DED031AC9
:104CF00000EEC10A84ED030A06B0BDEC048B10BDC2
:104D0000DFED050A054920EE200ABDEEC00A10EECF
:104D1000100AA1F8520070478805B641C44300202C
:104D200038B50F4800210068026842680092C268E6
:104D300042F01002C2600A4C0A4A94F83A00202855
:104D40000DD13223A262A385E1632168606B091D46
:104D5000FDF708F82068416941F04001416138BD24
:104D6000A40500206847002070B53648364C2DED6C
:104D7000028B00884042A080201D00F015FFB4F98E
:104D80000400FBF7FDFB9FED311B53EC112BFBF7F0
:104D900085FB41EC180B6069FBF7F2FB53EC182B19
:104DA000FBF7D5FAFBF7FDFB60612A482A4D408DE1
:104DB00068802A4890ED000ABDEEC00AB8EEC00A2D
:104DC000FFF79EFF94ED050AD4ED070AA5F1540400
:104DD000B8EEC00A30EE800ABDEEC00A84ED060AC5
:104DE000FFF7B2FE94ED030A04F12000F8EEC00ACA
:104DF00094ED060AB8EEC00AFEF77AFDBDEEC00AD1
:104E000010EE100A00B2A083B5F9021000EE101ADD
:104E1000F8EEC00A00EE100A04F16400B8EEC00A11
:104E2000FEF7FCFABDEEC00A00231A4610EE100A87
:104E3000194600B2E881BDEC028BBDE87040FEF778
:104E4000EDBC00007A4700207C0000209A999999D7
:104E50009999C93F7C040020184400204048002054
:104E60002DE9F0473348344D344E8188E980C088BD
:104E7000A91C40422881308D6880881EFEF72CF9DD
:104E8000B5F9020000EE100AB5F90000F8EEC00A0C
:104E900000EE100A2A48B8EEC00AFEF729FDBDEE62
:104EA000C00A274B10EE100A203B9883A81D00F083
:104EB0007BFE05F1080000F077FEB046204E00248E
:104EC00034369946A6F5297AB9F91C20B5F90610A9
:104ED000B5F90800FCF724F804EB840108EB410065
:104EE000B0F9021004EB041006EB800700EE101A74
:104EF00079805AF82400F8EEC00A00EE100A07F193
:104F00001000B8EEC00AFEF789FABDEEC00A641CB4
:104F1000042C10EE100AF881D6DBB6F9DA30B6F9B7
:104F20009620B6F95210B6F90E00BDE8F047FEF72C
:104F30009FBC00007A4700207C0000207C040020F9
:104F4000244600202DE9F04104460D4616461F4632
:104F500014B10DB106B10FB9BDE8F081D4ED010A6D
:104F600094ED031A60EE810A94ED001AD4ED021A52
:104F700041EE610AB8EE001A60EE810AB0EE600AF6
:104F8000FBF77EFD86ED000A94ED001A21EE011A72
:104F9000D4ED011A94ED012A01EE821AF7EE001AFF
:104FA000B0EE002A52EE011AF0EE610A94ED001AFA
:104FB000D4ED031A21EE211AD4ED011A94ED022A40
:104FC00001EE821AF0EE001A21EE211AB0EE410A2B
:104FD000FBF758FD85ED000A94ED001A21EE011A49
:104FE000D4ED031A94ED032A01EE821AF7EE001AAB
:104FF000B0EE002A52EE011AF0EE610A94ED001AAA
:10500000D4ED011A21EE211AD4ED021A94ED032AEF
:1050100001EE821AF0EE001A21EE211AB0EE410ADA
:10502000FBF730FD87ED000A00BF95E7002310B5C0
:105030001A4619461846FEF71BFC0023BDE810402F
:105040001A4619461846FEF7E9BB10B530216A200A
:1050500000F090FA0A20FCF7A9FE0D21242000F0B0
:1050600089FA0A20FCF7A2FE0E21282000F082FA1D
:105070000A20FCF79BFE8E21312000F07BFA0A20EB
:10508000FCF794FE01210B2000F07BF80A20FCF7CE
:105090008DFE002000F059F8102801D0012010BD2D
:1050A00001210B2000F06DF80A20FCF77FFE0021A3
:1050B0000A2000F066F80A2000F047F808B1022044
:1050C00010BD0A20FCF772FE00210B2000F059F8F9
:1050D0000B2000F03AF808B1032010BD0A20FCF7BD
:1050E00065FE2421412000F04CF8412000F02DF80D
:1050F000242801D0042010BD0A20FCF757FEC0214F
:10510000422000F03EF8422000F01FF8C02801D0F5
:10511000052010BD0A20FCF749FE00212A2000F0DE
:1051200029FA0A20FCF742FE0021342000F022FA7E
:105130000A20FCF73BFE062203210E2000F028F98E
:105140006420FCF733FE002010BD10B5014632206C
:1051500000F010FA0A20FCF729FE8021342000F02C
:1051600009FA0A20FCF722FE352000F0ADF90446CA
:105170000021342000F0FEF90A20FCF717FE20463B
:1051800010BD70B50D46044600212A2000F0F2F94A
:105190000220FCF70BFE2146292000F0EBF902204B
:1051A000FCF704FE2946642000F0E4F90220FCF735
:1051B000FDFD81212A2000F0DDF9BDE870400A20C4
:1051C000FCF7F4BDFCF702FFFEF7A4FCFEF7F8F9CC
:1051D000FEF7C2F9FEF79EF9FEF740FAFEF7E2FA93
:1051E000FEF760FAFEF7FCFAFEF760F9FEF78EFABA
:1051F000FFF796FDFBF776FE0648FDF743FCFBF74D
:10520000EDFE054800688047FEF7BCF900F0E3F9C1
:10521000FEE7000024050020F400002001460020E5
:10522000842900D0C81C70472DE9F047DFF8808042
:105230001E4EDFF88090002408F5A075B6F9060030
:10524000B6F90020B6F904104042FBF769FE38F8C1
:10525000240004EB041105EB810704EB840200B287
:1052600009EB42017881B1F90210798000EE101A41
:10527000F8EEC00A00EE100A07F11000B8EEC00AFE
:10528000FEF7CCF8BDEEC00A641C042C10EE100A28
:10529000F881D3DBB5F9DA30B5F99620B5F95210BB
:1052A000B5F90E00BDE8F047FEF7E2BA7A470020F4
:1052B000B44300207C04002030B587B06420FCF7A4
:1052C00075FD752000F000F9134900241C22C870F8
:1052D00012496846FBF717F84FEA0D0505EB440045
:1052E000417815F8140000F045F90120FCF75EFD47
:1052F000641CE4B20E2CF1D318211B2000F03AF903
:1053000010211C2000F036F9FFF79FFE00F088F80E
:1053100007B0002030BD0000040100205C630008DD
:1053200010B50F2218493A2000F0F6F8164931F866
:10533000010F42BA1448103002804A8852BA4280A3
:105340008A8852BA8280CA8852BA82810A89438B7B
:1053500052BAD21AC2814A89838B52BAD21A0282B5
:105360008989C28B49BA891A418208490622492093
:1053700000F0D2F8044805491838091F4A68C0F8F7
:105380002E200989418610BD944800200801002084
:1053900070B50E46044601461546282000F0EAF88E
:1053A0000220FCF703FD0A21292000F0E3F8022087
:1053B000FCF7FCFC0121642000F0DCF80220FCF783
:1053C000F5FC44F08001252000F0D4F80220FCF721
:1053D000EDFC3146262000F0CDF80220FCF7E6FC7B
:1053E0000321342000F0C6F80220FCF7DFFC032183
:1053F000672000F0BFF80220FCF7D8FC81212A20AA
:1054000000F0B8F80620FCF7D1FC45F08001272019
:1054100000F0B0F8BDE870400220FCF7C7BC000007
:105420002DE9F041274E002706F110044FF47A755C
:105430000E2224493B2000F06FF83188A08A49BA37
:105440000844A0827188E08A49BA0844E082B188A1
:10545000208B49BA084420833189608B49BA0844BB
:1054600060837189A08B49BA0844A083B189E08B1D
:1054700049BA0844E0830520FCF798FC7F1CAF4242
:10548000D6DBB4F9140090FBF5F0A082B4F9160055
:1054900090FBF5F0E082B4F9180090FBF5F0208362
:1054A000B4F91A0090FBF5F06083B4F91C0090FB8E
:1054B000F5F0A083B4F91E0090FBF5F0E083BDE8A1
:1054C000F081000094480020F8B5104E04460022F8
:1054D00040213046FCF766FD44F080000C4C372537
:1054E000A21C60700123511E0A480095FDF74AF97D
:1054F000A21C0123511E07480095FDF743F9012224
:1055000040213046FCF74EFDA078F8BD0014024063
:1055100004010020CC040020F8B5134F15460E46B8
:105520000446002240213846FCF73CFD0F4944F078
:105530008000372448707831A1F176020870012389
:1055400077390B480094FDF71DF908492B46324680
:10555000783107480094FDF715F9012240213846BB
:10556000FCF720FD0020F8BD0014024004010020DB
:10557000CC040020F8B5114F0E460446002240210D
:105580003846FCF70FFD04F07F000D4C3725A21CB8
:1055900060700123511E0B480095FDF7F3F866700B
:1055A000A21C0123511E07480095FDF7EBF80122CC
:1055B00040213846FCF7F6FC0020F8BD00140240FC
:1055C00004010020CC04002010B500B9012000F037
:1055D0006FFC002010BD10B500F090FC002010BD45
:1055E0007FB50D4604464169B0F9080081B1A16953
:1055F00071B1FFF713FED4E905128DE80700D4E975
:1056000000102B46226900F08CFD039004B070BDA1
:10561000FFF704FE03A9CDE90001208A2B4682B2E0
:10562000D4E9001000F050FD012801D00020EDE782
:105630000398EBE72DE9F041184C0F4605466669E3
:105640002068001D00F071FB38B9206890F82C101C
:1056500001208840A1698143A161681C07D137B14D
:105660002168BDE8F0410E48091D00F0A1BB20688B
:105670003544B5424560216805D2A068BDE8F041D7
:10568000091D00F07DBB6068091D00F079FB206BEF
:10569000854200D22563BDE8F08100001C00002097
:1056A000A00700202DE9F041054600F08DFB2E4CAF
:1056B0002069401C206120682C4F10B1E06940B384
:1056C0002DE025602069012829D1002606EB8600FF
:1056D00007EB800000F046FB761C072EF6D323482C
:1056E0008C3000F03FFB2148A03000F03BFB1F480E
:1056F000B43000F037FB1D48C83000F033FB1B48C6
:10570000DC3000F02FFB19488C3060601430A06052
:1057100005E02068E96AC06A884200D82560E06A2E
:10572000401CE062E96A0120A26988401043A06140
:1057300001EB810007EB8000291D00F039FB00F030
:1057400063FBE06900280CD02068E96AC06A8842DF
:1057500007D207494FF080500860BFF34F8FBFF367
:105760006F8FBDE8F08100001C000020C4060020FF
:1057700004ED00E010B5044690F8510058B101283E
:105780000CD002280FD0502080F31188BFF34F8F28
:10579000BFF36F8FFEE7206B00F04AFB2046BDE8A9
:1057A000104000F045BB10BD10484FF47051420747
:1057B00006D0C01D0D4920F00700411AC1F57051F7
:1057C0000B4A00230144C2E900030839103A21F0D2
:1057D000070111604B600B600B1AC0E90013936066
:1057E0004FF000405360D06070470000B4070020C5
:1057F00068000020144E154CA6F1C8074FF08058E1
:10580000DFF84C9012E000BF00F0DEFAF068C568E7
:10581000281D00F08AFA2069401E2061E068401EC1
:10582000E06000F0F1FA2846FFF7A4FFE0680028E6
:10583000EAD138680128F9D9C9F80080BFF34F8F41
:10584000BFF36F8FF2E700008C0700201C000020E0
:1058500004ED00E02DE9F0479A46DDE90984814630
:105860006FF00303206B03EB82021044089E20F0CC
:105870000707780707D0502080F31188BFF34F8FB8
:10588000BFF36F8FFEE7002561B1002023180A5C8B
:1058900083F834200A5C12B1401C1028F6D384F837
:1058A000435001E084F83450072E00D30626E66208
:1058B000C4E91165201D00F060FA04F1180000F041
:1058C0005CFA2461C6F107006462A061E56484F8B3
:1058D000505052464946384600F0BEF82060B8F1B4
:1058E000000F01D0C8F80040BDE8F08730B511497D
:1058F00000E011460A688242FBD34B685C18844280
:1059000003D1406818444860084643681C18944214
:1059100009D1084C103C2468A24209D052681A44AC
:1059200042600A6812680260814200D0086030BD9F
:105930000460F9E76800002006484168096829B159
:105940004168C968C9684968016370474FF0FF3111
:10595000FAE700001C00002008484068401C4FF097
:10596000500080F3118804D0BFF34F8FBFF36F8FC7
:10597000FEE7BFF34F8FBFF36F8FFEE7700000208D
:105980002DE9F0410546002700F0EEFA314E30686F
:1059900008B9FFF709FFF06805424BD1C5B30835D8
:1059A00068070ED005F00700C0F10800054468073D
:1059B00007D0502080F31188BFF34F8FBFF36F8F54
:1059C000FEE72DB37068854234D822481030014676
:1059D0000C6801E020460C466168A94202D22168A9
:1059E0000029F7D131688C4224D007682168016012
:1059F00060680837411B10290FD96019420708D089
:105A0000502080F31188BFF34F8FBFF36F8FFEE7F5
:105A100010E041606560FFF769FF61687068401AD7
:105A20007060B268904200D2B060F068014300201C
:105A3000C4E9000100F004FC780707D0502080F38F
:105A40001188BFF34F8FBFF36F8FFEE73846BDE875
:105A5000F08100005800002010B5031F4FF0807443
:105A60001C601B1F21F001011960191F044B0B6002
:105A700014390A60091F6FF0020244380A6010BD31
:105A80005959000810B52DED028B04469FED1D0AF3
:105A9000B0EE408AD4ED000A60EEA00A94ED011A3F
:105AA000D4ED011A41EE210A94ED021AD4ED021A46
:105AB00041EE210A94ED031AD4ED031A41EE210AB6
:105AC000B0EE600AFBF752F9B0EE408A94ED000A9E
:105AD00020EE080A84ED000A94ED010A20EE080A7F
