:020000040800F2
:10000000700800200D070008910200089302000804
:10001000970200089B0200089F02000800000000F1
:10002000000000000000000000000000A302000823
:10003000A502000800000000A7020008A9020008AD
:1000400027070008270700082707000827070008D8
:1000500027070008270700082707000827070008C8
:1000600027070008270700082707000827070008B8
:1000700027070008270700082707000827070008A8
:100080002707000827070008270700082707000898
:100090002707000827070008270700082707000888
:1000A0002707000827070008270700082707000878
:1000B000AB020008C3020008DB02000827070008A3
:1000C0002707000827070008270700082707000858
:1000D00027070008830600082707000827070008ED
:1000E0002707000827070008270700082707000838
:1000F0002707000827070008270700082707000828
:100100002707000827070008F30200082707000850
:10011000270700082707000827070008ED2900081F
:1001200027070008270700082707000827070008F7
:1001300000F002F800F03AF80AA090E8000C8244BF
:100140008344AAF10107DA4501D100F02FF8AFF29C
:10015000090EBAE80F0013F0010F18BFFB1A43F0A5
:1001600001031847743A0000943A0000103A24BF83
:1001700078C878C1FAD8520724BF30C830C144BF0C
:1001800004680C607047000000230024002500264E
:10019000103A28BF78C1FBD8520728BF30C148BFEA
:1001A0000B6070471FB51FBD10B510BD03F0C9FA35
:1001B0001146FFF7F7FF00F009F803F0E7FA03B480
:1001C000FFF7F2FF03BC00F001FA000002F06AFC46
:1001D00053E00A2000F0CDF902F080FE044608202A
:1001E00002F09FFE25490860072002F09AFE24498C
:1001F0000860052002F095FE224908600D2C06D00B
:100200000E2C0AD00F2C0BD0102C0CD102E002F0D7
:1002100050FD0EE002F046FD0BE002F037FD08E075
:1002200002F028FD05E002F01EFD002016490860DE
:1002300000BF00BF092C06D10120144908600A2024
:1002400000F073F913E00A2C03D102200F49086073
:100250000DE00B2C03D103200C49086007E00C2CA7
:1002600005D10420094908600A2000F05EF902F077
:10027000D4FC0A2000F059F900BFAAE700000020D2
:100280000400002008000020A08121425800002026
:10029000704700BFFEE700BFFEE700BFFEE700BFFC
:1002A000FEE7704770477047704710B50121880717
:1002B00001F027FD012803D10121800701F03EFD57
:1002C00010BD10B50121114801F01BFD012803D11B
:1002D00001210E4801F032FD10BD10B501210C487E
:1002E00001F00FFD012803D10121094801F026FD8D
:1002F00010BD10B50121074801F003FD012803D10D
:100300000121044801F01AFD10BD00000004004066
:1003100000080040000C00400CB500200190009047
:100320006C48006840F480306A49086000BF694842
:10033000006800F4003000900198401C0190009883
:1003400018B90198B0F5A06FF1D16248006800F4C7
:10035000003010B10120009001E0002000900098D2
:10036000012843D15C48006840F010005A490860F9
:100370000846006820F0030008600846006840F066
:100380000200086053484068524948600846406887
:1003900048600846406840F480604860084640680D
:1003A00020F47C1048600846406840F4E81048603B
:1003B0000846006840F08070086000BF454800684B
:1003C00000F000700028F9D04248406820F0030097
:1003D000404948600846406840F00200486000BF5D
:1003E0003C48406800F00C000828F9D10CBD10B55D
:1003F000FFF792FF10BD10B53648006840F00100CD
:10040000344908600846406834490840314948602A
:1004100008460068324908402E49086008460068CE
:1004200020F4802008600846406820F4FE00486000
:100430004FF41F008860FFF7DAFF4FF00060294992
:10044000086010BD10B5002100200022214B5B6820
:1004500003F00C0121B1042906D0082928D107E0B6
:10046000214B224C236027E01F4B204C236023E0CC
:10047000184B5B6803F47010164B5B6803F4803212
:10048000022303EB904022B9194B4343174C2360DE
:100490000DE0104B5B6803F4003323B1144B43436E
:1004A000124C236003E0104B4343104C236003E0E5
:1004B0000D4B0E4C236000BF00BF064B5B68C3F3BF
:1004C00003130C4CE15C094B1B68CB40074C2360C9
:1004D00010BD000000100240002002400000FFF8A4
:1004E000FFFFF6FE08ED00E000127A000C0000208D
:1004F00000093D001000002010B56FF0040000F06E
:1005000074F92E4800682E49B0FBF1F02D490870AF
:100510000846007800EB4001C1EBC0104FF6FF71B8
:1005200001EAC0002849088010BD0146254A12781A
:100530004A434FF0E0235A6100229A611A46126939
:1005400042F001021A6100BF4FF0E022106900F092
:1005500001021AB100F48032002AF5D04FF0E022F7
:10056000126922F001024FF0E0231A6100229A6121
:1005700070470146144A12884A434FF0E0235A61FB
:1005800000229A611A46126942F001021A6100BF04
:100590004FF0E022106900F001021AB100F480323D
:1005A000002AF5D04FF0E022126922F001024FF04C
:1005B000E0231A6100229A61704700000C000020BD
:1005C00000127A002000002022000020014600BF17
:1005D000704700BF494A128802F04002002AF9D051
:1005E000C2B2464B1B1D1A80704710B586B0044638
:1005F000012144F2040000F033FC4FF40070ADF828
:10060000140003208DF8160018208DF8170005A996
:100610003B4800F069F94FF48060ADF81400042005
:100620008DF8170005A9364800F05EF925208DF8F1
:10063000000003208DF801008DF8020001208DF8E4
:100640000300684600F087F801940020ADF8080028
:10065000ADF80A00ADF80C00ADF810000C20ADF8B4
:100660000E0001A9254801F0B0FB012240F22551FE
:10067000224801F042FC0121204801F032FC06B082
:1006800010BD10B540F225511C4801F01BFD10B300
:100690001A4801F097FCC4B21A48008800F40040E0
:1006A000C8B91848008800F4804060B10A2C03D013
:1006B00000201449088020E01248008840F40040DF
:1006C0001049088019E00D2C06D10E48008840F42E
:1006D00080400C49088010E00A480088C0F30D00F3
:1006E00009490C5407480088401C06490880084600
:1006F0000088C72801DD0020088010BD00380140B7
:1007000000080140280000202401002009488047FB
:1007100009480047FEE7FEE7FEE7FEE7FEE7FEE7E3
:10072000FEE7FEE7FEE7FEE704480549054A064BFB
:1007300070470000F7030008310100087002002034
:10074000700800207004002070040020314901432B
:10075000314A1160704770B5002100230F22C47820
:1007600004B32D4C246804F4E064C4F5E064210A69
:10077000C1F10403CA40447804FA03F184781440B8
:1007800021430901254C0678A155047804F01F0582
:100790000124AC4005786D11AD0005F1E025C5F8E8
:1007A000004109E0047804F01F050124AC401C4D11
:1007B0000678761145F8264070BD1A4A0A40024371
:1007C000154B1B1F1A60704739B1134A121D12686E
:1007D0000243114B1B1D1A6006E00F4A121D1268DE
:1007E00082430D4B1B1D1A607047042808D14FF03F
:1007F000E021096941F004014FF0E022116107E0B6
:100800004FF0E021096921F004014FF0E02211616D
:10081000704700000000FA050CED00E000E400E085
:1008200080E100E080FFFF1F10B50446CC48844201
:1008300008D10121042000F02DFB0021042000F04C
:1008400029FB46E0C748844208D10121082000F076
:1008500021FB0021082000F01DFB3AE0C248844241
:1008600008D10121102000F015FB0021102000F01C
:1008700011FB2EE0BD48844208D10121202000F068
:1008800009FB0021202000F005FB22E0B84884424B
:1008900008D10121402000F0FDFA0021402000F0A5
:1008A000F9FA16E0B348844208D10121802000F013
:1008B000F1FA0021802000F0EDFA0AE0AE4884420F
:1008C00007D10121801500F0E5FA0021A01500F004
:1008D000E1FA10BD10B50121084600F0DBFA002155
:1008E000012000F0D7FA10BD2DE9F04102460025A5
:1008F0000026002000230024002791F803C00CF0FC
:100900000F0591F803C00CF0100CBCF1000F03D0E0
:1009100091F802C04CEA050591F800C0BCF1000F47
:1009200031D0146800202BE04FF0010C0CFA00F3DA
:10093000B1F800C00CEA03069E4220D183004FF0BC
:100940000F0C0CFA03F7BC4305FA03FC4CEA040451
:1009500091F803C0BCF1280F06D14FF0010C0CFA3E
:1009600000FCC2F814C00AE091F803C0BCF1480FC3
:1009700005D14FF0010C0CFA00FCC2F810C0401C6D
:100980000828D1D31460B1F800C0BCF1FF0F34DDEA
:10099000546800202EE000F1080C4FF0010808FA1E
:1009A0000CF3B1F800C00CEA03069E4221D183008B
:1009B0004FF00F0C0CFA03F7BC4305FA03FC4CEAAA
:1009C000040491F803C0BCF1280F05D100F1080C14
:1009D00008FA0CF8C2F8148091F803C0BCF1480F73
:1009E00007D100F1080C4FF0010808FA0CF8C2F822
:1009F0001080401C0828CED35460BDE8F0814FF62B
:100A0000FF710180022181700421C170704702468C
:100A1000002093680B400BB1012000E000207047DC
:100A20000146886880B2704702460020D3680B40B8
:100A30000BB1012000E0002070470146C86880B279
:100A4000704701617047416170470AB1016100E080
:100A500041617047C16070474FF480320A43826140
:100A60008161826182698269704702460020434B3E
:100A700018684FF68073184040EA021008433F4B55
:100A8000186070473E49C8617047F0B50A460023B8
:100A900000240021002500F00046B6F1004F02D1ED
:100AA000364EF16901E0354E7168C0F3034583B2FB
:100AB00000F44016B6F5401F08D121F070612F4EAA
:100AC000766826F070662D4F7E6012E000F4801686
:100AD000B6F5801F06D1032606FA05F4A14341F0BE
:100AE000706106E0460D360103FA06F6B14341F0A7
:100AF000706122B1460D360103FA06F6314300F06B
:100B00000046B6F1004F02D11C4EF16101E01B4ED0
:100B10007160F0BD30B500228B071C0F0F2303FA64
:100B200004F2164B08338C1053F824309343134CC3
:100B300008348D1044F8253023468C1053F82430A7
:100B40008C07240F00FA04F423430C4C08348D1056
:100B500044F8253030BD0A49DC3108607047000098
:100B600000080140000C0140001001400014014049
:100B700000180140001C014000200140000001401D
:100B800000002042DF48006840F00100DD490860B5
:100B900008464068DC490840DA4948600846006871
:100BA000DA490840D74908600846006820F48020E8
:100BB00008600846406820F4FE0048604FF41F00BB
:100BC00088607047CF49096821F48031CD4A1160AF
:100BD0001146096821F480211160B0F5803F03D0EF
:100BE000B0F5802F0ED106E0C649096841F4803186
:100BF000C44A116007E0C349096841F4A021C14A11
:100C0000116000E000BF00BF704710B50146002230
:100C1000002300204A11012A02D1BA4C236806E0C1
:100C2000022A02D1B74C236A01E0B64C636A01F094
:100C30001F02012494401C400CB1012000E0002060
:100C400010BD38B5002000900024002500BF3120E1
:100C5000FFF7DBFF05460098401C00900098B0F5B8
:100C6000A06F01D0002DF2D03120FFF7CEFF08B1E8
:100C7000012400E00024204638BD01460020A14A9E
:100C8000106820F0F80040EAC10010607047A049E9
:100C900008607047024600209A4B586820F47C1088
:100CA00042EA01031843974B586070479849086619
:100CB000704701460020934A506820F00300084323
:100CC000506070478F48406800F00C007047014644
:100CD00000208C4A506820F0F000084350607047B4
:100CE00001460020874A506820F4E06008435060C5
:100CF000704701460020834A506820F4605040EA63
:100D0000C1005060704729B17E4A527A02437D4B40
:100D10005A7204E07B4A527A82437A4B5A72704785
:100D20007B49D8310860704701460020754A5068F9
:100D300020F440400843506070470021714A20323F
:100D40001170704A82F82010012802D004280AD1BC
:100D500004E001216B4A2032117005E00521694A47
:100D60002032117000E000BF00BF70476949086081
:100D700070476449096A0143624A116270476549D4
:100D800044390860704730B5002100220024002358
:100D90005C4D6D6805F00C0121B1042905D00829CE
:100DA00023D105E05C4D056022E05B4D05601FE04E
:100DB000544D6D6805F47012524D6D6805F4803421
:100DC000022505EB92421CB9544D554305600BE0DA
:100DD0004C4D6D6805F400351DB1504D554305600F
:100DE00002E04D4D5543056002E04B4D056000BFEC
:100DF00000BF444D6D6805F0F0010909484D6B5C7A
:100E00000568DD4045603F4D6D6805F4E061090A05
:100E1000434D6B5C4568DD4085603A4D6D6805F477
:100E20006051C90A3E4D6B5C4568DD40C560354D7B
:100E30006D6805F44041890B3A4D6B5CC568B5FBA4
:100E4000F3F5056130BD29B12E4A526902432D4B9D
:100E50005A6104E02B4A526982432A4B5A61704717
:100E600029B1284A92690243264B9A6104E0254A37
:100E700092698243234B9A61704729B1214AD26912
:100E80000243204BDA6104E01E4AD26982431D4BC3
:100E9000DA61704729B11B4AD2680243194BDA6004
:100EA00004E0184AD2688243164BDA60704729B1D1
:100EB000144A12690243134B1A6104E0114A126981
:100EC0008243104B1A6170471249403908607047DD
:100ED0000F49C86470470B49C87170470948406A98
:100EE00040F0807007494862704701460020054A7B
:100EF00092680A400AB1012000E0002070470149D1
:100F000088727047001002400000FFF8FFFFF6FEF5
:100F1000000042428004424200127A0000093D0073
:100F20002A0000203A00002010B50446FE48844202
:100F300008D10121C014FFF7ADFF0021E014FFF735
:100F4000A9FFC4E0B4F1804F08D101210846FFF7A2
:100F5000AEFF00210120FFF7AAFFB8E0F34884426A
:100F600008D101210220FFF7A2FF00210220FFF794
:100F70009EFFACE0EE48844208D101210420FFF737
:100F800096FF00210420FFF792FFA0E0E948844289
:100F900008D101210820FFF78AFF00210820FFF770
:100FA00086FF94E0E448844208D101211020FFF735
:100FB0007EFF00211020FFF77AFF88E0DF4884429F
:100FC00008D101212020FFF772FF00212020FFF728
:100FD0006EFF7CE0DA48844208D101214014FFF71B
:100FE00059FF00216014FFF755FF70E0D548844297
:100FF00009D10121C804FFF74DFF00214FF4002063
:10100000FFF748FF63E0D048844209D10121080579
:10101000FFF740FF00214FF48010FFF73BFF56E041
:10102000CA48844209D101214805FFF733FF002156
:101030004FF40010FFF72EFF49E0C548844208D165
:1010400001214020FFF733FF00214020FFF72FFF51
:101050003DE0C048844208D101218020FFF727FFEE
:1010600000218020FFF723FF31E0BB48844208D1F4
:1010700001218015FFF71BFF0021A015FFF717FFC7
:1010800025E0B648844209D101210804FFF702FF98
:1010900000214FF48030FFF7FDFE18E0B048844295
:1010A00009D101214804FFF7F5FE00214FF400307B
:1010B000FFF7F0FE0BE0AB48844208D10121880421
:1010C000FFF7E8FE00214FF48020FFF7E3FE10BD9C
:1010D00000220288944B98420ED0994B98420BD034
:1010E000B0F1804F08D0914B984205D0904B984278
:1010F00002D0904B984204D14FF68F731A404B8820
:101100001A438D4B984207D08C4B984204D04FF62F
:10111000FF431A40CB881A4302808B8883850B8853
:101120000385814B98420BD0854B984208D08B4B5E
:10113000984205D08A4B984202D08A4B984201D1FE
:101140000B7A038601238382704770B50024002246
:101150000023058C4FF6FE7635400584028C83888B
:10116000048B4FF68F752C40B51E2C400D882C43F8
:10117000751E2A400D892A434D882A436A4DA8428C
:101180000BD06F4DA84208D0744DA84205D0744DC5
:10119000A84202D0734DA84213D14FF6F7752A40EA
:1011A0004D892A434FF6FB752A408D882A434FF616
:1011B000FF652B404FF6FF552B408D892B43CD8982
:1011C0002B4383800483CD888586028470BD70B5EF
:1011D000002400220023058C4FF6EF76354005846D
:1011E000028C8388048B48F6FF752C404FF6FF4530
:1011F0002C400D884FF6FF7606EA05252C434FF666
:10120000DF752A400D8906EA05152A434D8806EA4E
:1012100005152A43444DA84202D0494DA8421DD18C
:101220004FF67F752A404D894FF6FF7606EA051581
:101230002A434FF6BF752A408D8806EA05152A43D2
:101240004FF6FF352B404FF2FF752B408D8906EA94
:1012500085052B43CD8906EA85052B4383800483CE
:10126000CD880587028470BD70B50024002200235C
:10127000058C4FF6FF6635400584028C8388848B8D
:101280004FF68F752C404FF6FC752C400D882C4383
:101290004FF6FF552A400D894FF6FF7606EA0525E1
:1012A0002A434D8806EA05252A431F4DA84202D04D
:1012B000234DA8421DD14FF2FF752A404D894FF6AC
:1012C000FF7606EA05252A434FF6FF352A408D882A
:1012D00006EA05252A434EF6FF752B404DF6FF75AD
:1012E0002B408D8906EA05152B43CD8906EA0515A5
:1012F0002B4383808483CD888587028470BD70B53D
:10130000002200230024058C4EF6FF76354005842C
:10131000038C8488828B48F6FF752A404FF6FF4580
:101320002A400D8820E00000002C0140000400400D
:1013300000080040000C0040001000400014004075
:1013400000340140004C0140005001400054014075
:1013500000180040001C00400020004000400140F8
:1013600000440140004801404FF6FF7606EA05259B
:101370002A434DF6FF752B400D8906EA05352B43B0
:101380004D8806EA05352B43FA4DA84202D0FA4DA6
:10139000A84208D14BF6FF752C408D894FF6FF7699
:1013A00006EA85152C4384808283CD88A0F84050BE
:1013B000038470BD828B4FF2FF331A408283828B8D
:1013C0004FF6FF7303EA01231A4382837047F0B597
:1013D0000C461546002200210026078C4EF6FF7CA5
:1013E00007EA0C070784828B018C4FF6FF7707EA28
:1013F000043640F6FF473A404FF6FF7707EA0527E5
:101400003A434FF6FF7707EA03373A43D94FB842DA
:101410000ED0D94FB8420BD0B0F1804F08D0D74F83
:10142000B84205D0D64FB84202D0D64FB84206D106
:101430004DF6FF77394046F48057394305E047F6CB
:10144000FF57394044F48057394382830184F0BD0B
:10145000828B4FF6F3731A408283828B0A43828316
:101460007047F0B50C461546002200210026078C77
:101470004FF6FF6C07EA0C070784828B018C4FF64E
:10148000FF7707EA04264FF60C773A404FF6FF77CE
:1014900007EA03172F433A43B64FB8420ED0B64F70
:1014A000B8420BD0B0F1804F08D0B44FB84205D04D
:1014B000B34FB84202D0B34FB84206D14FF6FF57F0
:1014C000394046F48077394305E04FF2FF57394001
:1014D00044F48077394382830184F0BD028B4FF25C
:1014E000FF331A400283028B4FF6FF7303EA012396
:1014F0001A4302837047F0B50C46154600220021BE
:101500000026078C4FF6EF7C07EA0C070784028B56
:10151000018C4FF6FF7707EA041640F6FF473A4082
:101520004FF6FF7707EA03373A434FF6FF7707EAAC
:1015300005273A438F4FB8420ED08F4FB8420BD099
:10154000B0F1804F08D08D4FB84205D08C4FB842D3
:1015500002D08C4FB84206D14FF6DF77394046F0C3
:101560001007394305E04FF65F77394044F0100724
:10157000394302830184F0BD028B4FF6F3731A40A6
:101580000283028B0A4302837047F0B50C4615466E
:1015900000220021068C4FF6FE773E400684028B27
:1015A000018C4FF60C7632407E1C06EA03162E4361
:1015B0003243704EB0420ED06F4EB0420BD0B0F1FD
:1015C000804F08D06D4EB04205D06D4EB04202D073
:1015D0006C4EB04206D14FF6FD76314044F0010624
:1015E000314305E04FF6F576314044F001063143D2
:1015F00002830184F0BD70B505460C465D48854206
:101600000ED05D4885420BD0B5F1804F08D05B48C5
:10161000854205D05A48854202D05A48854200D1B9
:1016200000E000BF208850B92389A288618828463D
:10163000FFF7ABFFE1882846FFF79EFF25E02088F3
:1016400004280AD12389A28861882846FFF753FF1E
:10165000E1882846FFF742FF17E0208808280AD1D2
:101660002389A28861882846FFF7FBFEE188284687
:10167000FFF7EEFE09E02389A28861882846FFF77C
:10168000A6FEE1882846FFF795FE70BD2DE9F041E2
:1016900005460C4600260127608808B9022600E0AE
:1016A0000026A088012801D1022700E00127208818
:1016B000A0B92389A28861882846FFF766FFE188E0
:1016C0002846FFF759FF23893A4631462846FFF757
:1016D00012FFE1882846FFF701FF13E02389A28863
:1016E00061882846FFF707FFE1882846FFF7F6FEE6
:1016F00023893A4631462846FFF747FFE1882846C6
:10170000FFF73AFFBDE8F0810A884B881A438B88BF
:101710001A43CB881A430B891A434B891A438B8986
:101720001A43A0F8442070474FF6FF7181800021D2
:101730000180C18041800172704700210180418099
:101740008180C180018141818181C18170470021F7
:1017500001804180012181800021C1800181704789
:101760000021018041808180C1800181418181818E
:1017700070470000002C014000340140000400408C
:1017800000080040000C004021B1028842F0010234
:10179000028004E002884FF6FE731A400280704710
:1017A00031B1B0F8442042F40042A0F8442005E0F2
:1017B000B0F84420C2F30E02A0F8442070471AB1DA
:1017C00083890B43838102E083898B438381704744
:1017D0008182704741EA0203A0F8483070471AB18D
:1017E00083890B43838102E083898B438381704724
:1017F00001894FF6F8721140018170470A460021B5
:1018000001894FF68F73194011430181704730B53C
:1018100004460D4629462046FFF7F0FF208940F098
:101820000700208130BD2DE9F04104460D461646E3
:101830001F46602D06D13B46012231462046FFF768
:101840005AFE05E03B46012231462046FFF79DFE49
:1018500029462046FFF7D2FF208940F0070020816B
:10186000BDE8F08130B50C4600210189C9B24FF6C0
:10187000FF7505EA0325154325432943018130BD42
:101880002DE9F04105460E4617469846002443468A
:101890003A4631462846FFF7E5FF2C894FF6F870A7
:1018A000044044F007044FF68F70044044F0700485
:1018B0002C81BDE8F081F0B504460D4616461F4662
:1018C0003B46324629462046FFF7CCFF208940F4AC
:1018D00080402081F0BD0185828270470A46002148
:1018E00001884FF68F731940114301807047F0B59E
:1018F0000C4615461E460021002200230189028B5A
:10190000038C4FF6F877394021434FF6FC473A40B5
:1019100040F201173A434FF6DD773B404FF6FF7731
:1019200007EA06172F433B43018102830384F0BD7E
:101930000A460021018B4FF68F7319401143018332
:1019400070470A460021018B48F6FF7319404FF695
:10195000FF7303EA02231943018370470A460021FB
:10196000818B4FF68F7319401143818370470A466C
:101970000021818B48F6FF7319404FF6FF7303EA8D
:10198000022319438183704721B1028842F080020B
:10199000028004E002884FF67F731A40028070478D
:1019A00021B1828842F00402828004E082884FF6EE
:1019B000FB731A408280704721B1828842F008028E
:1019C000828004E082884FF6F7731A408280704765
:1019D00021B1828842F00102828004E082884FF6C1
:1019E000FE731A40828070470A460021018B4FF631
:1019F000F77319401143018370470A460021018B98
:101A00004FF2FF7319404FF6FF7303EA02231943A5
:101A1000018370470A460021818B4FF6F773194006
:101A20001143818370470A460021818B4FF2FF7377
:101A300019404FF6FF7303EA02231943818370476D
:101A40000A460021018B4FF6FB73194011430183B5
:101A500070470A460021018B4FF6FF3319404FF6BD
:101A6000FF7303EA02231943018370470A460021EA
:101A7000818B4FF6FB7319401143818370470A46EF
:101A80000021818B4FF6FF3319404FF6FF7303EAB5
:101A900002231943818370470A460021018B4FF6C8
:101AA0007F7319401143018370470A460021018B5F
:101AB000C1F30E014FF6FF7303EA022319430183BA
:101AC00070470A460021818B4FF67F7319401143FE
:101AD000818370470A460021818BC1F30E014FF6C6
:101AE000FF7303EA02231943818370470A460021EA
:101AF000018C4FF6FD7319401143018470470A466B
:101B00000021018C4FF6F77319401143018470478F
:101B10000A460021018C4FF6DF7319404FF6FF7320
:101B200003EA02131943018470470A460021018C1D
:101B30004FF67F7319404FF6FF7303EA0213194300
:101B4000018470470A460021018C4FF6FF5319406B
:101B50004FF6FF7303EA02231943018470470A46D4
:101B60000021018C4FF2FF7319404FF6FF7303EA17
:101B700002231943018470470A460021018C4DF667
:101B8000FF7319404FF6FF7303EA023319430184D0
:101B9000704730B5002301248C40A3B2048C9C43D1
:101BA0000484048C02FA01F5ADB22C43048430BDE8
:101BB00030B5002304248C40A3B2048C9C430484DD
:101BC000048C02FA01F5ADB22C43048430BD70B52B
:101BD0000346002000241846183001258D40ACB281
:101BE0001D8CA5431D8409B1082909D100EB6100B2
:101BF000056825F0700505600568154305600EE071
:101C00000D1FC5F34E052844056825F4E045056021
:101C100005684FF6FF7606EA02263543056070BD7B
:101C200021B1028842F00202028004E002884FF6ED
:101C3000FD731A400280704721B1028842F004020D
:101C4000028004E002884FF6FB731A40028070475E
:101C500021B1828842F08002828004E082884FF6BF
:101C60007F731A408280704702884FF6F7731A40DC
:101C7000028002880A430280704782884FF68F7381
:101C80001A40828082880A438280704702894FF618
:101C9000F8731A40028102890A430281704702895F
:101CA0004FF67F731A40028102890A43028170470E
:101CB00081847047818570478186704701877047AE
:101CC00081877047A0F84010704702884FF6FF43A5
:101CD0001A40028002880A43028070470146888EBB
:101CE00070470146088F70470146888F704701464C
:101CF000B1F8400070470146888C70470146088D56
:101D0000704702460020138A0B400BB1012000E00F
:101D100000207047CA430282704730B50246002057
:101D200000230024158A05EA0103958905EA0104C8
:101D300013B10CB1012000E0002030BDCA43028283
:101D40007047000010B50446FB48844209D10121C8
:101D50008803FFF79FF800214FF48040FFF79AF8BF
:101D600032E0F648844209D101214804FFF79FF888
:101D700000214FF40030FFF79AF825E0F048844244
:101D800009D101218804FFF792F800214FF4802047
:101D9000FFF78DF818E0EB48844209D10121C8040F
:101DA000FFF785F800214FF40020FFF780F80BE0E3
:101DB000E548844208D101210805FFF778F80021A1
:101DC0004FF48010FFF773F810BD2DE9F04786B08F
:101DD00005460E460024A24600BFA1460027B08952
:101DE00000B100BF2F462C8A4CF6FF700440F088EB
:101DF00004432C82AC894EF6F3100440B08831893C
:101E00000843718908430443AC81AC8A4FF6FF4014
:101E10000440B0890443AC8201A8FEF7B4FFC64871
:101E2000874202D1DDF810A001E0DDF80CA0A889FE
:101E300000F4004040B10AEBCA0000EB0A10316820
:101E40004900B0FBF1F807E00AEBCA0000EB0A100A
:101E500031688900B0FBF1F86420B8FBF0F00401B0
:101E60002009642101FB1089A88900F4004040B1D9
:101E7000322000EBC900B0FBF1F000F00700044392
:101E800008E0322000EB09106421B0FBF1F000F013
:101E90000F0004432C8106B0BDE8F0874FF41651C3
:101EA000016000218180C18001810C2141810021DC
:101EB0008181704710B502460020108A4FF2FF035F
:101EC00018400B884C8823438C882343CC882343B9
:101ED0001843108210BD0021018041808180C180A3
:101EE000704721B1828942F40052828104E08289E4
:101EF0004DF6FF731A4082817047F0B50346002407
:101F000000260025002040F66A17B94200D100BF24
:101F10001846C1F3421401F01F06012707FA06F51F
:101F2000012C01D10C3004E0022C01D1103000E072
:101F300014301AB107682F43076002E00768AF4307
:101F40000760F0BD1AB1838A0B43838202E0838A63
:101F50008B4383827047028A4FF6F0731A400282E5
:101F6000028A0A430282704782894FF2FF731A4045
:101F7000828182890A438281704721B1828942F03D
:101F80000202828104E082894FF6FD731A40828149
:101F90007047028A4FF6DF731A400282028A0A43B0
:101FA0000282704721B1028A42F48042028204E038
:101FB000028A4BF6FF731A4002827047C1F308028F
:101FC0008280704701468888C0F308007047818985
:101FD00041F0010181817047028BD2B20283028BF2
:101FE00042EA012202837047028B02F47F4202839D
:101FF000028B0A430283704721B1828A42F0200299
:10200000828204E0828A4FF6DF731A408282704730
:1020100021B1828A42F01002828204E0828A4FF665
:10202000EF731A408282704721B1828A42F008021F
:10203000828204E0828A4FF6F7731A4082827047E8
:1020400021B1828942F40042828103E08289C2F395
:102050000E028281704721B1828A42F4006282823C
:1020600004E0828A4FF2FF731A4082827047828AAC
:102070004FF6FB731A408282828A0A43828270473B
:1020800021B1828A42F00202828204E0828A4FF603
:10209000FD731A408282704702460020B1F5007F2E
:1020A00000D100BF13880B400BB1012000E00020DD
:1020B000704701F40072B2F5007F00D100BFCA433F
:1020C0000280704770B502460024002300250020DE
:1020D00040F66A16B14200D100BFC1F3421501F0CB
:1020E0001F03012606FA03F3012D02D1968933401E
:1020F00006E0022D02D1168A334001E0968A334071
:102100000C12012606FA04F41688344013B10CB1FF
:10211000012000E0002070BD10B50022002340F631
:102120006A14A14200D100BF0A1201249440A3B254
:10213000DC43048010BD0000003801400044004032
:1021400000480040004C00400050004000B587B0FF
:1021500001210846FEF791FE01210D20FEF780FEC9
:102160000121EB48FEF791FC0121EA48FEF78DFCC6
:102170004FF40040ADF8000004208DF803006946DC
:10218000E548FEF7B1FB0820ADF8000004208DF80B
:1021900003006946E148FEF7A7FB04A8FFF7C4FA6D
:1021A0000020ADF810004FF6FE70ADF814000020CE
:1021B000ADF81600ADF8120004A94FF08040FEF70C
:1021C00087FF00231A4603214FF08040FFF78FFB63
:1021D00001A8FFF7BCFA0020ADF80400ADF80A0032
:1021E000ADF806000120ADF808000020ADF80C00A5
:1021F00001A94FF08040FFF7FEF90420ADF804007C
:102200000020ADF80A00ADF806000120ADF8080086
:102210000020ADF80C0001A94FF08040FFF7EBF96A
:1022200001218807FFF776FD012211469007FFF78D
:10223000C6FA00214FF08040FFF73AFD01218807E0
:10224000FFF7A2FA07B000BD00B587B00121022058
:10225000FEF713FE01210420FEF702FEC020ADF8B8
:10226000000004208DF803006946AB48FEF73CFBF4
:1022700004A8FFF759FA0020ADF810004FF6FE70E1
:10228000ADF814000020ADF81600ADF8120004A956
:10229000A348FEF71DFF00231A460321A048FFF7BD
:1022A00026FB01A8FFF753FA0020ADF80C00ADF8AB
:1022B0000400ADF80600ADF80A000120ADF80800F2
:1022C00001A99748FFF797F90020ADF80C0004200A
:1022D000ADF804000020ADF80A00ADF806000120BA
:1022E000ADF8080001A98E48FFF785F901218C4857
:1022F000FFF710FD012211468948FFF760FA00211F
:102300008748FFF7D5FC01218548FFF73DFA07B064
:1023100000BD00B587B001210420FEF7AEFD01210C
:102320000820FEF79DFDC020ADF8000004208DF8C8
:10233000030069467948FEF7D7FA04A8FFF7F4F9D5
:102340000020ADF810004FF6FE70ADF8140000202C
:10235000ADF81600ADF8120004A97248FEF7B8FEF9
:1023600000231A4603216F48FFF7C1FA01A8FFF7BF
:10237000EEF90020ADF80400ADF80A00ADF8060053
:102380000120ADF808000020ADF80C0001A9654857
:10239000FFF731F90420ADF804000020ADF80A0081
:1023A000ADF806000120ADF808000020ADF80C00E3
:1023B00001A95C48FFF71FF901215A48FFF7AAFC61
:1023C000012211465748FFF7FAF900215548FFF757
:1023D0006FFC01215348FFF7D7F907B000BD00B5E6
:1023E00087B001210820FEF748FD01210420FEF7F7
:1023F00037FD0320ADF8000004208DF80300694686
:102400004548FEF771FA04A8FFF78EF90020ADF8F1
:1024100010004FF6FE70ADF814000020ADF8160065
:10242000ADF8120004A94048FEF752FE00231A46F8
:1024300003213D48FFF75BFA01A8FFF788F9002068
:10244000ADF80400ADF80A00ADF806000120ADF8C3
:1024500008000020ADF80C0001A93248FFF7CBF8C6
:102460000420ADF804000020ADF80A00ADF8060025
:102470000120ADF808000020ADF80C0001A92A48A1
:10248000FFF7B9F801212848FFF744FC0122114663
:102490002548FFF794F900212348FFF709FC0121A3
:1024A0002148FFF771F907B000BD0146022906D0A7
:1024B00003290DD0042914D0052924D11AE04FF0A6
:1024C0008042928C10B200224FF080439A841CE02C
:1024D000134A2432128810B20022114B24331A807E
:1024E00013E0104A2432128810B200220D4B24331C
:1024F0001A800AE00C4A2432128810B200220A4BD9
:1025000024331A8001E0002000BF00BF70470000A4
:10251000000318000002300000080140000C0140D8
:102520000004004000080040000C004008B50121F4
:102530004020FEF795FC2020ADF8000010208DF81B
:10254000030003208DF8020069460C48FEF7CCF921
:1025500020210B48FEF775FA08BD0A490968491C95
:10256000084A1160814208D107490968C943074AEE
:10257000C2F8B0110021034A116070470008014001
:102580000018014040000020B0012142000021421B
:1025900008B501210820FEF763FC10208DF8030028
:1025A0004FF47040ADF8000003208DF8020069463A
:1025B0003D48FEF799F908BD08B501218020FEF7D6
:1025C0004FFC10208DF803001E20ADF80000032002
:1025D0008DF8020069463548FEF786F908BD00B55A
:1025E00089B001211020FEF73BFC01214803FEF7D2
:1025F00037FC4FF47070ADF8200018208DF82300E0
:1026000003208DF8220008A92948FEF76DF9002063
:10261000ADF8140041F61F40ADF818000020ADF8E9
:102620001600ADF81A008DF81C0005A92148FEF728
:102630004FFD0020ADF80A000120ADF80600602033
:10264000ADF804000020ADF80C0001A91948FEF710
:102650007CFD01A91748FEF7BAFD01A91548FEF750
:1026600003FE01A91348FEF74AFE08211148FFF7AF
:10267000BBF908210F48FFF7C0F908210D48FFF703
:10268000C9F908210B48FFF7CEF901210948FFF7E6
:1026900087F801210748FFF777F901210548FFF77F
:1026A00073F809B000BD0000000C0140001C01409F
:1026B00000100140003401400146002901DA48427F
:1026C00000E00846704700B50246002A07DD0120F9
:1026D000FE4908600020FE49C1F88C0106E0002098
:1026E000FA4908600120FA49C1F88C011046FFF749
:1026F000E3FFF849088000BD00B50246002A08DD66
:102700000120F249083908600020F149C1F884012C
:1027100007E00020ED49083908600120EC49C1F8C4
:1027200084011046FFF7C8FFEA49091F088000BD71
:1027300000B50246002A07DD0120E74908600020B5
:10274000E649C1F8B00106E00020E3490860012035
:10275000E249C1F8B0011046FFF7AEFFDD49083984
:10276000088000BD00B50246002A08DD0120DA49D4
:10277000091D08600020D949C1F8BC0107E000200C
:10278000D549091D08600120D449C1F8BC01104693
:10279000FFF792FFCF490C39088000BD41F6BC30ED
:1027A000CF4909684242914202DA4142CC4A116063
:1027B000CB490968814201DDC9490860704741F68B
:1027C000BC30C84909684242914202DA4142C54AD6
:1027D0001160C4490968814201DDC249086070473F
:1027E00041F6BC30C04909684242914202DA414296
:1027F000BD4A1160BC490968814201DDBA490860DF
:10280000704741F6BC30B94909684242914202DA48
:102810004142B64A1160B5490968814201DDB349B8
:10282000086070472DE9F05F04460D46601BB04913
:1028300008600846006801F075F88346AD480168F5
:10284000584601F087F88046A9490968AA4A1268E3
:10285000881A01F067F88346A8480168584601F0D5
:1028600079F88146414600F09FFF0746A44800687A
:1028700001F058F88246394600F096FF064601F00E
:1028800035F89F4908609A4800689B4908609C4851
:102890000068BDE8F09F2DE9F05F04460D46601B1F
:1028A000984908600846006801F03CF8834696485D
:1028B0000168584601F04EF8804692490968934AEB
:1028C0001268881A01F02EF883469148016858462C
:1028D00001F040F88146414600F066FF07468D480A
:1028E000006801F01FF88246394600F05DFF064699
:1028F00000F0FCFF8749086082480068834908604F
:1029000084480068BDE8F09F2DE9F05F04460D465D
:10291000601B814908600846006801F003F883469F
:102920007E480168584601F015F880467A490968E2
:102930007B4A1268881A00F0F5FF834679480168DF
:10294000584601F007F88146414600F02DFF074642
:102950007548006800F0E6FF8246394600F024FF23
:10296000064600F0C3FF704908606B4800686C4978
:1029700008606D480068BDE8F09F2DE9F05F0446EF
:102980000D46601B694908600846006800F0CAFFF0
:10299000834667480168584600F0DCFF804663497B
:1029A0000968644A1268881A00F0BCFF83466248CE
:1029B0000168584600F0CEFF8146414600F0F4FE23
:1029C00007465E48006800F0ADFF8246394600F0D9
:1029D000EBFE064600F08AFF58490860534800683D
:1029E0005449086055480068BDE8F09F10B50121C2
:1029F0005348FFF786F9012852D101215048FFF7CB
:102A00009DF90220FFF751FD4E4908600320FFF7B2
:102A10004CFD4D4908600420FFF747FD4B49086015
:102A20000520FFF742FD4A4908606420FFF795FD45
:102A30004848016843480068FFF79FFF2B4908603A
:102A40004548016840480068FFF75EFF2649086076
:102A5000424801683D480068FFF71DFF21490860B2
:102A60003F4801683A480068FFF7DCFE1C490860EF
:102A7000FFF7C7FEFFF7B4FEFFF7A1FEFFF78EFEDC
:102A80001A480068FFF76EFE17480068FFF750FE0F
:102A900014480068FFF730FE11480068FFF713FE86
:102AA000002010BD10B54FF4A060FDF74FFEFDF7FC
:102AB000A2FCFDF721FD4FF4E130FDF796FDFFF795
:102AC00067FDFFF779FDFFF78AFD4BE09081234218
:102AD0000080234240340140B481214200802142E1
:102AE0006C000020680000206400002060000020CE
:102AF000C40000209C000020CC0000209800002092
:102B0000C8000020B800002094000020C000002071
:102B100090000020BC000020AC0000208C000020B1
:102B2000B400002088000020B0000020A000002099
:102B300084000020A800002080000020A4000020C5
:102B40000014004070000020740000207800002075
:102B50007C00002044000020480000204C000020A1
:102B600050000020FFF7F2FAFFF76EFBFFF7D1FBF2
:102B7000FFF735FC00F028FD0A20FDF7FAFC00F015
:102B8000D5F800F0BBFA41F61F41632000F0A6FD26
:102B900000F088FD00F0D0FA0A20FDF7EAFC10BD35
:102BA00010B543425B1A9B1AC3EB03135B00544CF2
:102BB0002360431A1344C3EB03135B00514C23609F
:102BC00043420B441344C3EB03135B004E4C23609E
:102BD0004318D31AC3EB03135B004C4C236010BDA6
:102BE00070B54B480068C0F17F0000EB4000052144
:102BF00090FBF1F5474800687F3800EB400090FB00
:102C0000F1F645480068A0F17F0404EBD47042104F
:102C100029463046FFF7C4FF70BD10B53F48006835
:102C2000012805D10A20FDF780FCFFF7D9FF19E044
:102C30003A480068022805D10A20FDF776FC00F02A
:102C4000B7FC0FE03548006803280BD000202C4962
:102C500008602C4908602C4908602C4908600A204B
:102C6000FDF763FC10BD10B540F2DC512C48FFF7B6
:102C700027F810BD10B54FF4FA612948FFF71CF88A
:102C80004FF4FA612648FFF719F810BD10B54FF45C
:102C9000AF612348FFF710F84FF416612048FFF7A3
:102CA0000DF810BD10B54FF4FA711D48FFF708F884
:102CB00010BD10B540F6C4111948FFF701F810BD5A
:102CC00010B5184800780D2806D00E280AD00F2815
:102CD0000BD010280CD102E0FFF7EBFF0EE0FFF75E
:102CE000E1FF0BE0FFF7D2FF08E0FFF7C3FF05E0CD
:102CF000FFF7B9FF00200C49086000BF00BF10BDFE
:102D000044000020480000204C000020500000201B
:102D100000000020040000200800002058000020CF
:102D2000002C01405C000020A081214208B5012157
:102D30004020FEF795F80720ADF8000010208DF830
:102D4000030003208DF802006946F448FDF7CCFD2E
:102D50004020ADF8000028208DF8030003208DF8F6
:102D600002006946ED48FDF7BFFD08BD38B50446D1
:102D7000012000900020EA494870012000902EE0D8
:102D8000BDF80000204018B10120E649086002E0CB
:102D90000020E44908600120E249083108600A2067
:102DA000FDF7C3FB0020E049C1F888010A20FDF7C8
:102DB000BCFB0120DC49C1F888010846D0F81801A5
:102DC00030B1D7484078BDF800100843D449487066
:102DD000BDF800004FF6FF7101EA40000090BDF819
:102DE0000000FF28CCDD1020FDF79FFB38BD10B59B
:102DF0000020CC49091D0860CC490878FFF7B6FFD0
:102E0000CA494878FFF7B2FF0120C749C1F88401D9
:102E1000C3484078732801D1002010BD0120FCE791
:102E20001CB500200190012000900020BD49091D23
:102E30000860BE490878FFF799FFBC494878FFF75A
:102E400095FF0220019036E00120009027E001204C
:102E5000B449083108600A20FDF767FB0020B24939
:102E6000C1F888010A20FDF760FB0120AE49C1F8D6
:102E700088010846D0F8180150B1A9489DF80410FF
:102E8000405CBDF800100843A5499DF80420885413
:102E9000BDF800004FF6FF7101EA40000090BDF858
:102EA0000000FF28D3DD0A20FDF73FFB9DF804005A
:102EB000401CC0B201909DF804000928C4DB012029
:102EC0009849091D08601CBD002004E00021944AB7
:102ED0001154411CC8B20928F8DB704710B5FFF740
:102EE000F3FFFFF79DFF8E48C0788D49097940EACE
:102EF00001208F49088000240FE08E4810F814004C
:102F0000401E012101FA00F089490988084010B9E2
:102F1000601CC0B210BD601CC4B2102CEDDB0020E0
:102F2000F8E701467E48405C704770B505460C46A0
:102F300000207C49091D08601020FDF7F6FA0120E9
:102F4000FFF714FF4220FFF711FF0020FFF70EFFED
:102F50002846FFF70BFF2046FFF708FF0020FFF78A
:102F600005FF0020FFF702FF0020FFF7FFFE002013
:102F7000FFF7FCFE01206C49C1F884011020FDF729
:102F8000D4FA70BD10B500206649091D08601020F4
:102F9000FDF7CBFA0120FFF7E9FE4220FFF7E6FE3E
:102FA0000020FFF7E3FE0020FFF7E0FE0020FFF720
:102FB000DDFE01205C49C1F884011020FDF7B5FA5F
:102FC00010BD10B500205749091D08601020FDF7FD
:102FD000ACFA0120FFF7CAFE4320FFF7C7FE00202E
:102FE000FFF7C4FE0120FFF7C1FE0020FFF7BEFE81
:102FF0000020FFF7BBFE0020FFF7B8FE0020FFF720
:10300000B5FE0020FFF7B2FE01204749C1F8840158
:103010001020FDF78AFA10BD10B500204149091DA6
:1030200008600120FFF7A2FE4420FFF79FFE00206A
:10303000FFF79CFE0120FFF799FEEE20FFF796FEBA
:103040000020FFF793FE0020FFF790FE0020FFF71F
:103050008DFE0020FFF78AFE01203349C1F884016C
:103060001020FDF762FA10BD10B500202D49091D92
:1030700008601020FDF759FA0120FFF777FE4D2078
:10308000FFF774FE0020FFF771FE0020FFF76EFED1
:103090000120FFF76BFE01202349C1F884011020B5
:1030A000FDF743FA10BD10B500201E49091D086048
:1030B0001020FDF73AFA0120FFF758FE4320FFF7F2
:1030C00055FE0020FFF752FE0020FFF74FFE5A206A
:1030D000FFF74CFE5A20FFF749FE5A20FFF746FE45
:1030E0005A20FFF743FE5A20FFF740FE01200E4909
:1030F000C1F884011020FDF718FA10BD10B5FFF7D4
:1031000041FFFFF73FFFFFF73DFFFFF75AFFFFF7D4
:1031100083FFFFF7A9FFFFF7C6FF10BD00180140AE
:10312000EC0100208001234200002342D200002055
:10313000D0000020D400002008B501210802FDF7CE
:103140008FFE6E20ADF8000004208DF803000320F0
:103150008DF802006946FE48FDF7C6FB08BD10B5B4
:103160000221FB48FDF753FCFA4908600421F848A6
:10317000FDF74DFCF74948600821F548FDF747FC8D
:10318000F44988601021F248FDF741FCF149C8601C
:103190002021EF48FDF73BFCEE4908610846006836
:1031A000012814D108464068012810D108468068DB
:1031B00001280CD10846C068012808D108460069DA
:1031C000012804D14FF07E50E34908600CE1E1484A
:1031D000006898B9DF48406801280FD1DD48806851
:1031E00001280BD1DB48C068012807D1D948006904
:1031F00020B94FF07E50D8490860F5E0D548006806
:1032000098B9D448406801280FD1D2488068012875
:103210000BD1D048C068012807D1CE4800690128E9
:1032200003D18007CC490860DEE0CA48006890B945
:10323000C848406878B9C748806801280BD1C5489C
:10324000C068012807D1C348006920B94FF0804009
:10325000C1490860C8E0BF480068012812D1BD48D4
:10326000406801280ED1BB48806801280AD1B948BE
:10327000C068012806D1B748006918B9B748B649EF
:103280000860B1E0B348006888B9B24840680128D6
:103290000DD1B0488068012809D1AE48C06830B966
:1032A000AC48006918B9AD48AB4908609CE0A94832
:1032B000006888B9A748406801280DD1A5488068F2
:1032C000012809D1A348C06830B9A248006918B9DB
:1032D000A248A149086087E09E48006880B99D48DF
:1032E000406868B99B48806850B99A48C06838B946
:1032F00098480069012803D180079949086073E064
:103300009448006898B99348406880B991488068AB
:1033100001280CD18F48C068012808D18D48006968
:10332000012804D14FF07E508D4908605CE0894847
:10333000006880B98748406868B986488068012875
:1033400009D18448C06830B98248006918B90020A2
:103350008349086048E07F480068012811D17D4812
:10336000406801280DD17B488068012809D179483F
:10337000C06830B97748006918B97A487849086058
:1033800032E074480068012811D172484068012871
:103390000DD17048806850B96E48C06838B96D4822
:1033A000006920B94FF040406D4908601CE0694851
:1033B0000068C8B967484068B0B96648806898B97D
:1033C0006448C06880B96348006968B94FF04041FB
:1033D0006348006800F056FA03D16348604908600A
:1033E00002E05E485E49086010BD2DE9F0415C488E
:1033F00000685E4908605A4801685D48006800F04E
:10340000D3F95B4908605B4801685548006800F0E3
:103410006DFB59490860084601685848006800F08B
:1034200099FA0546524801685548006800F092FA3A
:1034300006464E4801685348006800F08BFA07467C
:10344000314600F0B1F90446294600F0ADF94E4985
:1034500008604348006847490860BDE8F08110B53E
:103460004FF07E513C48006800F00CFA0BD1474801
:103470004749086047490860404247490860404260
:103480004649086024E04FF080413348006800F06E
:10349000F9F90BD13D483E49086040423D4908607A
:1034A00040423D4908603D49086011E02B492A48E7
:1034B000006800F0E7F90BD14FF448703449086018
:1034C000404234490860404233490860334908604B
:1034D00010BD70B53248006800F024FA05462A484D
:1034E0000168284600F060F980F00044204600F0B2
:1034F000FDF9274908602A48006800F013FA0546DC
:1035000021480168284600F0F1FA80F00044204686
:1035100000F0ECF91F4908602148006800F002FA49
:10352000054619480168284600F03EF9044600F0B7
:10353000DDF9194908601A48006800F0F3F90546FA
:1035400011480168284600F0D1FA80F0004429E0D3
:1035500000200140F801002014010020000040403C
:1035600000010020000080BF000040C004010020D6
:1035700008010020180100200C010020FC000020A0
:10358000F8000020F400002010010020E0FCFFFF04
:1035900044000020480000204C0000205000002083
:1035A00020010020204600F0A1F90649086070BD06
:1035B00010B5FFF7D4FDFFF718FFFFF750FFFFF737
:1035C00088FF10BD5000002000B589B00121C8025D
:1035D000FDF746FC01214020FDF742FC0121084691
:1035E000FDF73EFC01212C48FDF74FFA4FF428501F
:1035F000ADF8040018208DF8070003208DF80600B0
:1036000001A92648FDF770F90020ADF81E0044F628
:103610001F60ADF81C004720ADF818000020ADF881
:103620001A00ADF81E0006A91D48FDF751FD6020E7
:10363000ADF808000120ADF80A000020ADF80E003A
:10364000ADF8100002A91648FDF77FFD02A9144845
:10365000FDF7BDFD02A91248FDF706FE082110483E
:10366000FEF7C2F908210E48FEF7C7F908210C48F9
:10367000FEF7D0F908210A48FEF7D5F901210848DC
:10368000FEF78EF801210648FEF77EF90121044875
:10369000FEF77AF809B000BDC0001600001801401E
:1036A000002C014008B501210820FDF7D9FB4FF49B
:1036B0008070ADF8000010208DF8030003208DF815
:1036C000020069460448FDF70FF94FF48071024883
:1036D000FDF7B9F908BD0000000C01407FB50546B3
:1036E0000C4601212020FDF7C8FBADF80850ADF8CD
:1036F00004400020ADF80A00ADF8060001A90D480D
:10370000FDF7E6FC012211460A48FEF758F837207B
:103710008DF8000001208DF803008DF801000320D2
:103720008DF802006846FDF716F801210148FEF702
:103730002BF87FBD001400407047704770477047FA
:103740007047754600F02CF8AE46050069465346B2
:1037500020F00700854618B020B5FCF7E5FFBDE86E
:1037600020404FF000064FF000074FF000084FF0E8
:10377000000B21F00701AC46ACE8C009ACE8C00979
:10378000ACE8C009ACE8C0098D46704710B50446E6
:10379000AFF300802046BDE81040FCF710BD0000EC
:1037A000004870470C02002090EA010F48BF81F0EA
:1037B000004100F1A281421A3CBF801A89184FEAE9
:1037C000D0524FF07F4C1CEA410FA2EBD15318BFEF
:1037D0009CEA026F00F03B804FF0004C4CEA002066
:1037E0004CEA012121FA03FC10EB0C0C1ED202F171
:1037F000FF325FEA1C2040EBC25038BF70471CF01C
:103800007F0F4FEA400C18BFBCF17F4F38BF7047A5
:10381000C3F12003994008BF20F00100BCF17F4FA5
:1038200038BF7047A0F1C04000F05BB94FEA3C00E0
:10383000000A40EBC25028BF1CF0FF0F4FEA400CBB
:10384000E6D018BFBCF17F4F38BF7047EAE79CEA6B
:10385000026F05D010EA5C0F08BF00F0004070470F
:1038600010B500F0F8F800BF64FBBE3E401058BF32
:10387000C0F14040491058BFC1F140418142EFF3CF
:103880000080704750EA010C00F113801CF5000F16
:1038900058BFBCF5000F01D48842704707D710F518
:1038A000000F58BF11F5000F15D4884270478942A8
:1038B00070471CF5000F04D5BCF5000FF7D5814209
:1038C00070474FF0807C1CEB400F38BF1CEB410F62
:1038D00001D28142704710B500F0BDF89224490032
:1038E0004FF000504FF08051FFF7C0BF41000B0E6A
:1038F000D3F19E0208D950F400034FEA032323FAC0
:1039000002F048BF4042704710B500F0A4F800BF75
:1039100049922480002070476FF0004282EA200024
:103920007047000010F0004148BF4042B0FA80F3F9
:1039300010FA03F2C3F19D030BD051EAC35101EB1E
:103940001220530638BF704700F1010008BF20F075
:10395000010070474FF47F0C1CEAD0121EBF1CEA16
:10396000D11392EA0C0F93EA0C0F00F0478090EA13
:10397000010F48BF42F480724FF0004C4CEA002027
:103980004CEA012102EB0302A0FB0113A2F50002A5
:10399000002918BF43F001035B0028BF4FEA33033F
:1039A00042EB22425FEA132C4CEBC2502EBFBCEB21
:1039B000436FB2F57C0F70474FEA036CBCF1004FC8
:1039C00008BF20F00100B2F57C0F38BF70470BD55F
:1039D00082F0FF0212F5803FC8BF704700F1C0407F
:1039E000D8BF00F00040704700F5000C5FEA4C0CB7
:1039F00048BF7047B0F1C04000F073B890EA010FC3
:103A00000CEAD11348BF42F48072624538BF634567
:103A100004D280EA010000F00040704710B500F0C9
:103A20001AF800BF8900013E00F007B800F009B89D
:103A30005FEA410C5FEA1C6C08D080EA010000F0EC
:103A400050B85FEA400C5FEA1C6CF6D14FF00040C2
:103A5000A0F5800070470EF1020E2EF0030E5EF806
:103A6000044B244204D44FEA4102B2F17F4F11D8F3
:103A70004FEA4003B3F17F4F0CD80ED14FEAD07C10
:103A8000B2F17F4F0CEB4C0C0CF1020C08BF4CEB6D
:103A9000D17C04E04FF0080C01E04FEAD17C0CEB44
:103AA0004C0324FA03F404F00704B4F1040C06D226
:103AB0000EEB840CBDE810404CF0010C6047DFE8D1
:103AC0000CF0070802024FF00040A0F5800010BD86
:103AD0000846420018BFD2F1807288BF00F0004053
:103AE00010BDFF2141EAD050C005704790EA010F98
:103AF00048BF81F000413FF55EAE421A04D882F023
:103B00000042A0EB020011444FEAD0524FF07F4C2C
:103B10001CEA410FA2EBD15318BF9CEA026F4AD0B6
:103B20004FF0004C4CEA00204CEA012121FA03FC42
:103B3000B0EB0C0C0FD412F0FE0F36D05FEA4C0045
:103B40001DD5001240EBC25038BF70471CF03F0F2C
:103B500018BF70470BE0A2F101025FEA1C2040EBA6
:103B6000C25038BF70471CF07F0F18BF7047C3F1B9
:103B70002003994014BF401E20F0010070478008C8
:103B80004FEA122308BF7047B0FA80FCA2EB0C0288
:103B9000CCF1280C60FA0CF093EA122F04BF00EB72
:103BA000C25070474FEAC3707047130A5FEADC10D7
:103BB00008BF7047F6E79CEA026F04D010EA5C0F7A
:103BC00008BF0020704710B5FFF745FF40DFF63E05
:103BD00081F0004070470000F83B00080000002022
:103BE000240100006C0100081C3D00082401002095
:103BF0004C070000880100080000000000000000E1
:103C00000000000000A24A040000000000000000C4
:103C1000010203040607080900000000000000007C
:103C20000000000000000102030401020304060773
:103C3000080902040608000000000000000000005F
:103C40000000000000000000000000000000000074
:103C50000000000000000000000000000000000064
:103C60000000000000000000000000000000000054
:103C70000000000000000000000000416666663F92
:103C8000000000416666663F000000416666663FD0
:103C9000000000416666663F000000000000000072
:103CA0000000000000000000000000000000000014
:103CB0000000000000000000000000000000000004
:103CC00000000000000000000000014201000200AE
:103CD00003000400050006000700080009000A00B0
:103CE0000B000C000D000E000F0010000000204122
:103CF0000000003F00000000000000000000000085
:103D000000000000000000000000000000000000B3
:0C3D1000000000000000000000000000A7
:0400000508000131BD
:00000001FF
