:020000040800F2
:10000000C008002041070008F5020008F7020008B8
:10001000FB020008FF0200080303000800000000C4
:1000200000000000000000000000000007030008BE
:1000300009030008000000000B0300080D0300087E
:100040005B0700085B0700085B0700085B07000808
:100050005B0700085B0700085B0700085B070008F8
:100060005B0700085B0700085B0700085B070008E8
:100070005B0700085B0700085B0700085B070008D8
:100080005B0700085B0700085B0700085B070008C8
:100090005B0700085B0700085B0700085B070008B8
:1000A0005B0700085B0700085B0700085B070008A8
:1000B0000F030008270300083F0300085B07000840
:1000C0005B0700085B0700085B0700085B07000888
:1000D0005B070008E70600085B0700085B070008ED
:1000E0005B0700085B0700085B0700085B07000868
:1000F0005B0700085B0700085B0700085B07000858
:100100005B0700085B070008570300085B0700084F
:100110005B0700085B0700085B070008D53C000888
:100120005B0700085B0700085B0700085B07000827
:1001300000F002F800F05AF80AA090E8000C82449F
:100140008344AAF10107DA4501D100F04FF8AFF27C
:10015000090EBAE80F0013F0010F18BFFB1A43F0A5
:10016000010318472C4400004C4400000A444FF09F
:10017000000C10F8013B13F0070408BF10F8014B06
:100180001D1108BF10F8015B641E05D010F8016B4B
:10019000641E01F8016BF9D113F0080F1EBF10F8AF
:1001A000014BAD1C0C1B09D16D1E58BF01F801CBD2
:1001B000FAD505E014F8016B01F8016B6D1EF9D555
:1001C0009142D6D37047000000230024002500266A
:1001D000103A28BF78C1FBD8520728BF30C148BFAA
:1001E0000B6070471FB51FBD10B510BD03F053FF66
:1001F0001146FFF7F7FF00F009F803F071FF03B4B1
:10020000FFF7F2FF03BC00F013FA000003F0BEFD9D
:1002100064E00A2000F0DFF902F040FB0446082009
:1002200002F05FFB2E490860072002F05AFB2D49BF
:100230000860052002F055FB2B4908600D2C11D0F9
:1002400006DC032C0BD0052C18D0072C1CD118E091
:100250000E2C0DD00F2C0ED0102C15D105E003F074
:10026000F6FE17E003F0BEFE14E003F0B4FE11E06A
:1002700003F0AAFE0EE003F0A0FE0BE003F0D9FEAF
:1002800008E003F0DDFE05E003F08BFE00201749D7
:10029000086000BF00BF092C06D101201449086086
:1002A0000A2000F074F913E00A2C03D1022010494F
:1002B00008600DE00B2C03D103200D49086007E016
:1002C0000C2C05D104200A4908600A2000F05FF9CF
:1002D00003F017FE0A2000F05AF900BF99E700006A
:1002E000000000200400002008000020A08121421E
:1002F00008010020704700BFFEE700BFFEE700BF17
:10030000FEE700BFFEE7704770477047704710B5C3
:100310000121880701F00FFD012803D10121800789
:1003200001F026FD10BD10B50121114801F003FDBB
:10033000012803D101210E4801F01AFD10BD10B5AE
:1003400001210C4801F0F7FC012803D101210948E3
:1003500001F00EFD10BD10B50121074801F0EBFCC6
:10036000012803D10121044801F002FD10BD000065
:100370000004004000080040000C00400CB50020C4
:10038000019000906C48006840F480306A49086031
:1003900000BF6948006800F4003000900198401CDC
:1003A0000190009818B90198B0F5A06FF1D162489A
:1003B000006800F4003010B10120009001E000203E
:1003C00000900098012843D15C48006840F010007C
:1003D0005A4908600846006820F003000860084693
:1003E000006840F002000860534840685249486085
:1003F0000846406848600846406840F480604860AD
:100400000846406820F47C1048600846406840F484
:10041000E81048600846006840F08070086000BF3F
:100420004548006800F000700028F9D04248406854
:1004300020F00300404948600846406840F0020050
:10044000486000BF3C48406800F00C000828F9D123
:100450000CBD10B5FFF792FF10BD10B5364800680F
:1004600040F00100344908600846406834490840BB
:100470003149486008460068324908402E49086002
:100480000846006820F4802008600846406820F490
:10049000FE0048604FF41F008860FFF7DAFF4FF05E
:1004A00000602949086010BD10B50021002000221D
:1004B000214B5B6803F00C0121B1042906D0082907
:1004C00028D107E0214B224C236027E01F4B204C12
:1004D000236023E0184B5B6803F47010164B5B68D5
:1004E00003F48032022303EB904022B9194B4343BB
:1004F000174C23600DE0104B5B6803F4003323B10D
:10050000144B4343124C236003E0104B4343104C05
:10051000236003E00D4B0E4C236000BF00BF064B71
:100520005B68C3F303130C4CE15C094B1B68CB40C5
:10053000074C236010BD0000001002400020024064
:100540000000FFF8FFFFF6FE08ED00E000127A0061
:100550000C00002000093D001000002010B56FF0D5
:10056000040000F05CF92E4800682E49B0FBF1F061
:100570002D4908700846007800EB4001C1EBC0101F
:100580004FF6FF7101EAC0002849088010BD0146FE
:10059000254A12784A434FF0E0235A6100229A61BB
:1005A0001A46126942F001021A6100BF4FF0E022C0
:1005B000106900F001021AB100F48032002AF5D06F
:1005C0004FF0E022126922F001024FF0E0231A619D
:1005D00000229A6170470146144A12884A434FF03C
:1005E000E0235A6100229A611A46126942F0010220
:1005F0001A6100BF4FF0E022106900F001021AB149
:1006000000F48032002AF5D04FF0E022126922F087
:1006100001024FF0E0231A6100229A617047000046
:100620000C00002000127A00200000202200002090
:10063000014600BF704700BF3E4A128802F04002E8
:10064000002AF9D0C2B23B4B1B1D1A80704710B56F
:1006500086B00446012144F2040000F01BFC4FF474
:100660000070ADF8140003208DF8160018208DF8E6
:10067000170005A9304800F051F94FF48060ADF83B
:10068000140004208DF8170005A92B4800F046F946
:1006900025208DF8000003208DF801008DF8020060
:1006A00001208DF80300684600F06FF801940020E7
:1006B000ADF80800ADF80A00ADF80C00ADF8100078
:1006C0000C20ADF80E0001A91A4801F098FB012298
:1006D00040F22551174801F02AFC0121154801F08C
:1006E0001AFC06B010BD10B540F22551114801F0BA
:1006F00003FDF0B10F4801F07FFCC4B2472C04D1D8
:1007000001200E490870002413E0532C04D101206D
:100710000A49087000240CE04C2C04D1022007493F
:100720000870002405E0522C03D10320034908700F
:10073000002410BD003801400008014024000020C2
:100740000948804709480047FEE7FEE7FEE7FEE765
:10075000FEE7FEE7FEE7FEE7FEE7FEE704480549A1
:10076000054A064B704700005B0400083101000891
:10077000C0020020C0080020C0040020C0040020E7
:1007800031490143314A1160704770B5002100239F
:100790000F22C47804B32D4C246804F4E064C4F53B
:1007A000E064210AC1F10403CA40447804FA03F169
:1007B0008478144021430901254C0678A15504781A
:1007C00004F01F050124AC4005786D11AD0005F162
:1007D000E025C5F8004109E0047804F01F05012474
:1007E000AC401C4D0678761145F8264070BD1A4A7B
:1007F0000A400243154B1B1F1A60704739B1134A58
:10080000121D12680243114B1B1D1A6006E00F4AAD
:10081000121D126882430D4B1B1D1A60704704287D
:1008200008D14FF0E021096941F004014FF0E022C6
:10083000116107E04FF0E021096921F004014FF058
:10084000E0221161704700000000FA050CED00E0A5
:1008500000E400E080E100E080FFFF1F10B50446E7
:10086000CC48844208D10121042000F02DFB002156
:10087000042000F029FB46E0C748844208D101214A
:10088000082000F021FB0021082000F01DFB3AE0C9
:10089000C248844208D10121102000F015FB00213C
:1008A000102000F011FB2EE0BD48844208D1012148
:1008B000202000F009FB0021202000F005FB22E0B1
:1008C000B848844208D10121402000F0FDFA0021FF
:1008D000402000F0F9FA16E0B348844208D1012123
:1008E000802000F0F1FA0021802000F0EDFA0AE00B
:1008F000AE48844207D10121801500F0E5FA0021BD
:10090000A01500F0E1FA10BD10B50121084600F075
:10091000DBFA0021012000F0D7FA10BD2DE9F041EB
:10092000024600250026002000230024002791F81D
:1009300003C00CF00F0591F803C00CF0100CBCF1D3
:10094000000F03D091F802C04CEA050591F800C0F1
:10095000BCF1000F31D0146800202BE04FF0010CE7
:100960000CFA00F3B1F800C00CEA03069E4220D155
:1009700083004FF00F0C0CFA03F7BC4305FA03FC9D
:100980004CEA040491F803C0BCF1280F06D14FF0E3
:10099000010C0CFA00FCC2F814C00AE091F803C084
:1009A000BCF1480F05D14FF0010C0CFA00FCC2F865
:1009B00010C0401C0828D1D31460B1F800C0BCF1AD
:1009C000FF0F34DD546800202EE000F1080C4FF0DA
:1009D000010808FA0CF3B1F800C00CEA03069E42C5
:1009E00021D183004FF00F0C0CFA03F7BC4305FA3A
:1009F00003FC4CEA040491F803C0BCF1280F05D1B4
:100A000000F1080C08FA0CF8C2F8148091F803C041
:100A1000BCF1480F07D100F1080C4FF0010808FAAB
:100A20000CF8C2F81080401C0828CED35460BDE8F2
:100A3000F0814FF6FF710180022181700421C170A5
:100A400070470246002093680B400BB1012000E084
:100A5000002070470146886880B270470246002037
:100A6000D3680B400BB1012000E000207047014625
:100A7000C86880B2704701617047416170470AB130
:100A8000016100E041617047C16070474FF48032FE
:100A90000A4382618161826182698269704702468C
:100AA0000020434B18684FF68073184040EA02104C
:100AB00008433F4B186070473E49C8617047F0B526
:100AC0000A46002300240021002500F00046B6F16C
:100AD000004F02D1364EF16901E0354E7168C0F326
:100AE000034583B200F44016B6F5401F08D121F04B
:100AF00070612F4E766826F070662D4F7E6012E092
:100B000000F48016B6F5801F06D1032606FA05F418
:100B1000A14341F0706106E0460D360103FA06F686
:100B2000B14341F0706122B1460D360103FA06F679
:100B3000314300F00046B6F1004F02D11C4EF16186
:100B400001E01B4E7160F0BD30B500228B071C0F19
:100B50000F2303FA04F2164B08338C1053F8243099
:100B60009343134C08348D1044F8253023468C10E1
:100B700053F824308C07240F00FA04F423430C4C60
:100B800008348D1044F8253030BD0A49DC31086046
:100B90007047000000080140000C014000100140B7
:100BA0000014014000180140001C014000200140D9
:100BB0000000014000002042DF48006840F00100D2
:100BC000DD49086008464068DC490840DA49486069
:100BD00008460068DA490840D749086008460068B6
:100BE00020F4802008600846406820F4FE00486039
:100BF0004FF41F0088607047CF49096821F48031A5
:100C0000CD4A11601146096821F480211160B0F5C8
:100C1000803F03D0B0F5802F0ED106E0C6490968A9
:100C200041F48031C44A116007E0C349096841F4C6
:100C3000A021C14A116000E000BF00BF704710B59D
:100C400001460022002300204A11012A02D1BA4C99
:100C5000236806E0022A02D1B74C236A01E0B64CB1
:100C6000636A01F01F02012494401C400CB1012072
:100C700000E0002010BD38B50020009000240025C1
:100C800000BF3120FFF7DBFF05460098401C0090B5
:100C90000098B0F5A06F01D0002DF2D03120FFF701
:100CA000CEFF08B1012400E00024204638BD0146F3
:100CB0000020A14A106820F0F80040EAC10010604E
:100CC0007047A04908607047024600209A4B586858
:100CD00020F47C1042EA01031843974B5860704798
:100CE00098490866704701460020934A506820F0F2
:100CF00003000843506070478F48406800F00C00C4
:100D00007047014600208C4A506820F0F0000843EC
:100D10005060704701460020874A506820F4E06028
:100D200008435060704701460020834A506820F411
:100D3000605040EAC1005060704729B17E4A527A43
:100D400002437D4B5A7204E07B4A527A82437A4BCB
:100D50005A7270477B49D8310860704701460020BD
:100D6000754A506820F440400843506070470021A5
:100D7000714A20321170704A82F82010012802D086
:100D800004280AD104E001216B4A2032117005E0E9
:100D90000521694A2032117000E000BF00BF704792
:100DA0006949086070476449096A0143624A1162EF
:100DB0007047654944390860704730B5002100220A
:100DC000002400235C4D6D6805F00C0121B104295D
:100DD00005D0082923D105E05C4D056022E05B4D7C
:100DE00005601FE0544D6D6805F47012524D6D683A
:100DF00005F48034022505EB92421CB9544D55434D
:100E000005600BE04C4D6D6805F400351DB1504D8B
:100E10005543056002E04D4D5543056002E04B4DE2
:100E2000056000BF00BF444D6D6805F0F001090981
:100E3000484D6B5C0568DD4045603F4D6D6805F4CD
:100E4000E061090A434D6B5C4568DD4085603A4DC1
:100E50006D6805F46051C90A3E4D6B5C4568DD4024
:100E6000C560354D6D6805F44041890B3A4D6B5CAA
:100E7000C568B5FBF3F5056130BD29B12E4A52694D
:100E800002432D4B5A6104E02B4A526982432A4B9C
:100E90005A61704729B1284A92690243264B9A61E8
:100EA00004E0254A92698243234B9A61704729B135
:100EB000214AD2690243204BDA6104E01E4AD2691A
:100EC00082431D4BDA61704729B11B4AD268024345
:100ED000194BDA6004E0184AD2688243164BDA6094
:100EE000704729B1144A12690243134B1A6104E096
:100EF000114A12698243104B1A61704712494039F6
:100F0000086070470F49C86470470B49C871704743
:100F10000948406A40F080700749486270470146BE
:100F20000020054A92680A400AB1012000E0002032
:100F30007047014988727047001002400000FFF8B6
:100F4000FFFFF6FE000042428004424200127A0097
:100F500000093D002E0000203E00002010B5044690
:100F6000FE48844208D10121C014FFF7ADFF0021E3
:100F7000E014FFF7A9FFC4E0B4F1804F08D10121CC
:100F80000846FFF7AEFF00210120FFF7AAFFB8E0F7
:100F9000F348844208D101210220FFF7A2FF00217B
:100FA0000220FFF79EFFACE0EE48844208D1012109
:100FB0000420FFF796FF00210420FFF792FFA0E036
:100FC000E948844208D101210820FFF78AFF002167
:100FD0000820FFF786FF94E0E448844208D101210D
:100FE0001020FFF77EFF00211020FFF77AFF88E036
:100FF000DF48844208D101212020FFF772FF002141
:101000002020FFF76EFF7CE0DA48844208D10121FE
:101010004014FFF759FF00216014FFF755FF70E0FF
:10102000D548844209D10121C804FFF74DFF0021B2
:101030004FF40020FFF748FF63E0D048844209D115
:1010400001210805FFF740FF00214FF48010FFF752
:101050003BFF56E0CA48844209D101214805FFF709
:1010600033FF00214FF40010FFF72EFF49E0C54881
:10107000844208D101214020FFF733FF00214020A6
:10108000FFF72FFF3DE0C048844208D101218020B6
:10109000FFF727FF00218020FFF723FF31E0BB4847
:1010A000844208D101218015FFF71BFF0021A01504
:1010B000FFF717FF25E0B648844209D10121080453
:1010C000FFF702FF00214FF48030FFF7FDFE18E02C
:1010D000B048844209D101214804FFF7F5FE002100
:1010E0004FF40030FFF7F0FE0BE0AB48844208D12C
:1010F00001218804FFF7E8FE00214FF48020FFF76C
:10110000E3FE10BD00220288944B98420ED0994B0A
:1011100098420BD0B0F1804F08D0914B984205D047
:10112000904B984202D0904B984204D14FF68F7367
:101130001A404B881A438D4B984207D08C4B9842EB
:1011400004D04FF6FF431A40CB881A4302808B88A5
:1011500083850B880385814B98420BD0854B984241
:1011600008D08B4B984205D08A4B984202D08A4BCC
:10117000984201D10B7A038601238382704770B5B0
:10118000002400220023058C4FF6FE7635400584AE
:10119000028C8388048B4FF68F752C40B51E2C4033
:1011A0000D882C43751E2A400D892A434D882A43F9
:1011B0006A4DA8420BD06F4DA84208D0744DA8428A
:1011C00005D0744DA84202D0734DA84213D14FF6FA
:1011D000F7752A404D892A434FF6FB752A408D88C2
:1011E0002A434FF6FF652B404FF6FF552B408D8964
:1011F0002B43CD892B4383800483CD88858602844D
:1012000070BD70B5002400220023058C4FF6EF76E8
:1012100035400584028C8388048B48F6FF752C408A
:101220004FF6FF452C400D884FF6FF7606EA052560
:101230002C434FF6DF752A400D8906EA05152A432F
:101240004D8806EA05152A43444DA84202D0494D6F
:10125000A8421DD14FF67F752A404D894FF6FF7683
:1012600006EA05152A434FF6BF752A408D8806EA1F
:1012700005152A434FF6FF352B404FF2FF752B40E3
:101280008D8906EA85052B43CD8906EA85052B4322
:1012900083800483CD880587028470BD70B50024E7
:1012A00000220023058C4FF6FF6635400584028C32
:1012B0008388848B4FF68F752C404FF6FC752C403D
:1012C0000D882C434FF6FF552A400D894FF6FF76C7
:1012D00006EA05252A434D8806EA05252A431F4DBF
:1012E000A84202D0234DA8421DD14FF2FF752A40DB
:1012F0004D894FF6FF7606EA05252A434FF6FF355E
:101300002A408D8806EA05252A434EF6FF752B40B4
:101310004DF6FF752B408D8906EA05152B43CD89C7
:1013200006EA05152B4383808483CD888587028454
:1013300070BD70B5002200230024058C4EF6FF76A8
:1013400035400584038C8488828B48F6FF752A40DB
:101350004FF6FF452A400D8820E00000002C014098
:101360000004004000080040000C00400010004055
:101370000014004000340140004C01400050014086
:101380000054014000180040001C004000200040B4
:101390000040014000440140004801404FF6FF7604
:1013A00006EA05252A434DF6FF752B400D8906EA0E
:1013B00005352B434D8806EA05352B43FA4DA842E7
:1013C00002D0FA4DA84208D14BF6FF752C408D890A
:1013D0004FF6FF7606EA85152C4384808283CD88FC
:1013E000A0F84050038470BD828B4FF2FF331A4047
:1013F0008283828B4FF6FF7303EA01231A438283B1
:101400007047F0B50C461546002200210026078CD7
:101410004EF6FF7C07EA0C070784828B018C4FF69F
:10142000FF7707EA043640F6FF473A404FF6FF776A
:1014300007EA05273A434FF6FF7707EA03373A43AF
:10144000D94FB8420ED0D94FB8420BD0B0F1804F2F
:1014500008D0D74FB84205D0D64FB84202D0D64FA9
:10146000B84206D14DF6FF77394046F480573943EC
:1014700005E047F6FF57394044F4805739438283EB
:101480000184F0BD828B4FF6F3731A408283828B06
:101490000A4382837047F0B50C46154600220021AE
:1014A0000026078C4FF6FF6C07EA0C070784828B37
:1014B000018C4FF6FF7707EA04264FF60C773A4087
:1014C0004FF6FF7707EA03172F433A43B64FB84268
:1014D0000ED0B64FB8420BD0B0F1804F08D0B44F09
:1014E000B84205D0B34FB84202D0B34FB84206D18C
:1014F0004FF6FF57394046F48077394305E04FF205
:10150000FF57394044F48077394382830184F0BD2A
:10151000028B4FF2FF331A400283028B4FF6FF73A8
:1015200003EA01231A4302837047F0B50C461546BF
:10153000002200210026078C4FF6EF7C07EA0C07FB
:101540000784028B018C4FF6FF7707EA041640F6FA
:10155000FF473A404FF6FF7707EA03373A434FF623
:10156000FF7707EA05273A438F4FB8420ED08F4FD7
:10157000B8420BD0B0F1804F08D08D4FB84205D0A3
:101580008C4FB84202D08C4FB84206D14FF6DF776D
:10159000394046F01007394305E04FF65F77394090
:1015A00044F01007394302830184F0BD028B4FF6EB
:1015B000F3731A400283028B0A4302837047F0B52B
:1015C0000C46154600220021068C4FF6FE773E4061
:1015D0000684028B018C4FF60C7632407E1C06EAA4
:1015E00003162E433243704EB0420ED06F4EB042BF
:1015F0000BD0B0F1804F08D06D4EB04205D06D4E8B
:10160000B04202D06C4EB04206D14FF6FD7631406A
:1016100044F00106314305E04FF6F576314044F0E1
:101620000106314302830184F0BD70B505460C46C6
:101630005D4885420ED05D4885420BD0B5F1804FA4
:1016400008D05B48854205D05A48854202D05A48A6
:10165000854200D100E000BF208850B92389A288CC
:1016600061882846FFF7ABFFE1882846FFF79EFF19
:1016700025E0208804280AD12389A2886188284689
:10168000FFF753FFE1882846FFF742FF17E0208865
:1016900008280AD12389A28861882846FFF7FBFE23
:1016A000E1882846FFF7EEFE09E02389A2886188D9
:1016B0002846FFF7A6FEE1882846FFF795FE70BD95
:1016C0002DE9F04105460C4600260127608808B93F
:1016D000022600E00026A088012801D1022700E0B0
:1016E00001272088A0B92389A28861882846FFF7AE
:1016F00066FFE1882846FFF759FF23893A463146BD
:101700002846FFF712FFE1882846FFF701FF13E0A4
:101710002389A28861882846FFF707FFE1882846C9
:10172000FFF7F6FE23893A4631462846FFF747FF82
:10173000E1882846FFF73AFFBDE8F0810A884B8828
:101740001A438B881A43CB881A430B891A434B8957
:101750001A438B891A43A0F8442070474FF6FF7153
:10176000818000210180C180418001727047002189
:10177000018041808180C180018141818181C1815D
:101780007047002101804180012181800021C180BA
:10179000018170470021018041808180C1800181E9
:1017A0004181818170470000002C014000340140DC
:1017B0000004004000080040000C004021B10288F5
:1017C00042F00102028004E002884FF6FE731A40E4
:1017D0000280704731B1B0F8442042F40042A0F8D2
:1017E000442005E0B0F84420C2F30E02A0F84420E3
:1017F00070471AB183890B43838102E083898B434D
:10180000838170478182704741EA0203A0F8483023
:1018100070471AB183890B43838102E083898B432C
:101820008381704701894FF6F8721140018170473A
:101830000A46002101894FF68F7319401143018137
:10184000704730B504460D4629462046FFF7F0FFA5
:10185000208940F00700208130BD2DE9F041044689
:101860000D4616461F46602D06D13B4601223146E5
:101870002046FFF75AFE05E03B460122314620464E
:10188000FFF79DFE29462046FFF7D2FF208940F052
:1018900007002081BDE8F08130B50C4600210189A8
:1018A000C9B24FF6FF7505EA0325154325432943C1
:1018B000018130BD2DE9F04105460E461746984698
:1018C000002443463A4631462846FFF7E5FF2C8977
:1018D0004FF6F870044044F007044FF68F70044050
:1018E00044F070042C81BDE8F081F0B504460D464B
:1018F00016461F463B46324629462046FFF7CCFF98
:10190000208940F480402081F0BD018582827047AB
:101910000A46002101884FF68F7319401143018058
:101920007047F0B50C4615461E46002100220023E4
:101930000189028B038C4FF6F877394021434FF62B
:10194000FC473A4040F201173A434FF6DD773B40FF
:101950004FF6FF7707EA06172F433B4301810283C7
:101960000384F0BD0A460021018B4FF68F731940A6
:101970001143018370470A460021018B48F6FF732B
:1019800019404FF6FF7303EA02231943018370479E
:101990000A460021818B4FF68F73194011438183D2
:1019A00070470A460021818B48F6FF7319404FF6B5
:1019B000FF7303EA022319438183704721B1028830
:1019C00042F08002028004E002884FF67F731A40E2
:1019D0000280704721B1828842F00402828004E0D4
:1019E00082884FF6FB731A408280704721B182884B
:1019F00042F00802828004E082884FF6F7731A40B2
:101A00008280704721B1828842F00102828004E026
:101A100082884FF6FE731A40828070470A46002182
:101A2000018B4FF6F77319401143018370470A4643
:101A30000021018B4FF2FF7319404FF6FF7303EA49
:101A400002231943018370470A460021818B4FF618
:101A5000F77319401143818370470A460021818B37
:101A60004FF2FF7319404FF6FF7303EA0223194345
:101A7000818370470A460021018B4FF6FB731940A2
:101A80001143018370470A460021018B4FF6FF3353
:101A900019404FF6FF7303EA02231943018370478D
:101AA0000A460021818B4FF6FB7319401143818355
:101AB00070470A460021818B4FF6FF3319404FF6DD
:101AC000FF7303EA02231943818370470A4600210A
:101AD000018B4FF67F7319401143018370470A460B
:101AE0000021018BC1F30E014FF6FF7303EA0223BD
:101AF0001943018370470A460021818B4FF67F739B
:101B000019401143818370470A460021818BC1F33C
:101B10000E014FF6FF7303EA0223194381837047D6
:101B20000A460021018C4FF6FD73194011430184D0
:101B300070470A460021018C4FF6F7731940114394
:101B4000018470470A460021018C4FF6DF7319406B
:101B50004FF6FF7303EA02131943018470470A46E4
:101B60000021018C4FF67F7319404FF6FF7303EA93
:101B700002131943018470470A460021018C4FF675
:101B8000FF5319404FF6FF7303EA02231943018400
:101B900070470A460021018C4FF2FF7319404FF63F
:101BA000FF7303EA02231943018470470A460021A8
:101BB000018C4DF6FF7319404FF6FF7303EA0233B1
:101BC00019430184704730B5002301248C40A3B22F
:101BD000048C9C430484048C02FA01F5ADB22C43BE
:101BE000048430BD30B5002304248C40A3B2048C9F
:101BF0009C430484048C02FA01F5ADB22C430484A6
:101C000030BD70B503460020002418461830012569
:101C10008D40ACB21D8CA5431D8409B1082909D1A2
:101C200000EB6100056825F0700505600568154347
:101C300005600EE00D1FC5F34E052844056825F428
:101C4000E045056005684FF6FF7606EA0226354353
:101C5000056070BD21B1028842F00202028004E0FA
:101C600002884FF6FD731A400280704721B1028846
:101C700042F00402028004E002884FF6FB731A402F
:101C80000280704721B1828842F08002828004E0A5
:101C900082884FF67F731A408280704702884FF621
:101CA000F7731A40028002880A43028070478288D4
:101CB0004FF68F731A40828082880A438280704771
:101CC00002894FF6F8731A40028102890A430281A1
:101CD000704702894FF67F731A40028102890A43D6
:101CE0000281704781847047818570478186704783
:101CF0000187704781877047A0F8401070470288BD
:101D00004FF6FF431A40028002880A430280704760
:101D10000146888E70470146088F70470146888FBC
:101D200070470146B1F8400070470146888C704703
:101D30000146088D704702460020138A0B400BB104
:101D4000012000E000207047CA430282704730B58E
:101D50000246002000230024158A05EA0103958924
:101D600005EA010413B10CB1012000E0002030BDF0
:101D7000CA4302827047000010B50446FB48844203
:101D800009D101218803FFF79FF800214FF480401B
:101D9000FFF79AF832E0F648844209D1012148045D
:101DA000FFF79FF800214FF40030FFF79AF825E085
:101DB000F048844209D101218804FFF792F80021FC
:101DC0004FF48020FFF78DF818E0EB48844209D1EA
:101DD0000121C804FFF785F800214FF40020FFF728
:101DE00080F80BE0E548844208D101210805FFF79F
:101DF00078F800214FF48010FFF773F810BD2DE93B
:101E0000F04786B005460E460024A24600BFA14614
:101E10000027B08900B100BF2F462C8A4CF6FF7016
:101E20000440F08804432C82AC894EF6F310044041
:101E3000B08831890843718908430443AC81AC8A76
:101E40004FF6FF400440B0890443AC8201A8FEF77E
:101E5000B4FFC648874202D1DDF810A001E0DDF8EA
:101E60000CA0A88900F4004040B10AEBCA0000EBC6
:101E70000A1031684900B0FBF1F807E00AEBCA002C
:101E800000EB0A1031688900B0FBF1F86420B8FB60
:101E9000F0F004012009642101FB1089A88900F4F5
:101EA000004040B1322000EBC900B0FBF1F000F07F
:101EB0000700044308E0322000EB09106421B0FB66
:101EC000F1F000F00F0004432C8106B0BDE8F0876C
:101ED0004FF41651016000218180C18001810C21E5
:101EE000418100218181704710B502460020108A8F
:101EF0004FF2FF0318400B884C8823438C88234300
:101F0000CC8823431843108210BD002101804180FA
:101F10008180C180704721B1828942F40052828160
:101F200004E082894DF6FF731A4082817047F0B554
:101F30000346002400260025002040F66A17B94217
:101F400000D100BF1846C1F3421401F01F0601275B
:101F500007FA06F5012C01D10C3004E0022C01D166
:101F6000103000E014301AB107682F43076002E018
:101F70000768AF430760F0BD1AB1838A0B438382C1
:101F800002E0838A8B4383827047028A4FF6F073A4
:101F90001A400282028A0A430282704782894FF203
:101FA000FF731A40828182890A438281704721B17E
:101FB000828942F00202828104E082894FF6FD7339
:101FC0001A4082817047028A4FF6DF731A400282FC
:101FD000028A0A430282704721B1028A42F4804297
:101FE000028204E0028A4BF6FF731A4002827047B5
:101FF000C1F308028280704701468888C0F3080058
:102000007047818941F0010181817047028BD2B212
:102010000283028B42EA012202837047028B02F4A0
:102020007F420283028B0A430283704721B1828A76
:1020300042F02002828204E0828A4FF6DF731A4067
:102040008282704721B1828A42F01002828204E0CB
:10205000828A4FF6EF731A408282704721B1828ADA
:1020600042F00802828204E0828A4FF6F7731A4037
:102070008282704721B1828942F40042828103E06A
:102080008289C2F30E028281704721B1828A42F4B2
:102090000062828204E0828A4FF2FF731A408282D9
:1020A0007047828A4FF6FB731A408282828A0A4303
:1020B0008282704721B1828A42F00202828204E069
:1020C000828A4FF6FD731A408282704702460020D2
:1020D000B1F5007F00D100BF13880B400BB1012088
:1020E00000E00020704701F40072B2F5007F00D1DB
:1020F00000BFCA430280704770B502460024002327
:102100000025002040F66A16B14200D100BFC1F39D
:10211000421501F01F03012606FA03F3012D02D137
:102120009689334006E0022D02D1168A334001E041
:10213000968A33400C12012606FA04F416883440BD
:1021400013B10CB1012000E0002070BD10B50022D9
:10215000002340F66A14A14200D100BF0A120124F4
:102160009440A3B2DC43048010BD0000003801405D
:102170000044004000480040004C00400050004037
:1021800000B587B001210846FEF791FE01210D2020
:10219000FEF780FE0121EB48FEF791FC0121EA48A1
:1021A000FEF78DFC4FF40040ADF8000004208DF8E0
:1021B00003006946E548FEF7B1FB0820ADF80000D2
:1021C00004208DF803006946E148FEF7A7FB04A848
:1021D000FFF7C4FA0020ADF810004FF6FE70ADF81E
:1021E00014000020ADF81600ADF8120004A94FF05D
:1021F0008040FEF787FF00231A4603214FF08040FE
:10220000FFF78FFB01A8FFF7BCFA0020ADF8040030
:10221000ADF80A00ADF806000120ADF80800002076
:10222000ADF80C0001A94FF08040FFF7FEF9042043
:10223000ADF804000020ADF80A00ADF8060001205A
:10224000ADF808000020ADF80C0001A94FF0804067
:10225000FFF7EBF901218807FFF776FD0122114610
:102260009007FFF7C6FA00214FF08040FFF73AFDD4
:1022700001218807FFF7A2FA07B000BD00B587B0BB
:1022800001210220FEF713FE01210420FEF702FEC9
:10229000C020ADF8000004208DF803006946AB486B
:1022A000FEF73CFB04A8FFF759FA0020ADF8100038
:1022B0004FF6FE70ADF814000020ADF81600ADF832
:1022C000120004A9A348FEF71DFF00231A460321AC
:1022D000A048FFF726FB01A8FFF753FA0020ADF84E
:1022E0000C00ADF80400ADF80600ADF80A000120BE
:1022F000ADF8080001A99748FFF797F90020ADF85D
:102300000C000420ADF804000020ADF80A00ADF880
:1023100006000120ADF8080001A98E48FFF785F9F5
:1023200001218C48FFF710FD012211468948FFF773
:1023300060FA00218748FFF7D5FC01218548FFF7A7
:102340003DFA07B000BD00B587B001210420FEF7BB
:10235000AEFD01210820FEF79DFDC020ADF8000074
:1023600004208DF8030069467948FEF7D7FA04A8DF
:10237000FFF7F4F90020ADF810004FF6FE70ADF84D
:1023800014000020ADF81600ADF8120004A9724840
:10239000FEF7B8FE00231A4603216F48FFF7C1FA83
:1023A00001A8FFF7EEF90020ADF80400ADF80A002F
:1023B000ADF806000120ADF808000020ADF80C00D3
:1023C00001A96548FFF731F90420ADF804000020A9
:1023D000ADF80A00ADF806000120ADF808000020B5
:1023E000ADF80C0001A95C48FFF71FF901215A481C
:1023F000FFF7AAFC012211465748FFF7FAF900211E
:102400005548FFF76FFC01215348FFF7D7F907B094
:1024100000BD00B587B001210820FEF748FD01216D
:102420000420FEF737FD0320ADF8000004208DF8EE
:10243000030069464548FEF771FA04A8FFF78EF9D4
:102440000020ADF810004FF6FE70ADF8140000202B
:10245000ADF81600ADF8120004A94048FEF752FE90
:1024600000231A4603213D48FFF75BFA01A8FFF756
:1024700088F90020ADF80400ADF80A00ADF80600B8
:102480000120ADF808000020ADF80C0001A9324889
:10249000FFF7CBF80420ADF804000020ADF80A00E7
:1024A000ADF806000120ADF808000020ADF80C00E2
:1024B00001A92A48FFF7B9F801212848FFF744FC91
:1024C000012211462548FFF794F900212348FFF720
:1024D00009FC01212148FFF771F907B000BD014651
:1024E000022906D003290DD0042914D0052924D1AE
:1024F0001AE04FF08042928C10B200224FF08043DD
:102500009A841CE0134A2432128810B20022114B24
:1025100024331A8013E0104A2432128810B20022A9
:102520000D4B24331A800AE00C4A2432128810B270
:1025300000220A4B24331A8001E0002000BF00BFB4
:10254000704700000003180000023000000801403E
:10255000000C01400004004000080040000C004056
:1025600008B501214020FEF795FC2020ADF80000C1
:1025700010208DF8030003208DF8020069460C48F6
:10258000FEF7CCF920210B48FEF775FA08BD0A4981
:102590000968491C084A1160814208D10749096845
:1025A000C943074AC2F8B0110021034A11607047BD
:1025B000000801400018014044000020B001214201
:1025C0000000214208B501210820FEF763FC10201D
:1025D0008DF803004FF47040ADF8000003208DF833
:1025E000020069463D48FEF799F908BD08B501218A
:1025F0008020FEF74FFC10208DF803001E20ADF860
:10260000000003208DF8020069463548FEF786F980
:1026100008BD00B589B001211020FEF73BFC012167
:102620004803FEF737FC4FF47070ADF82000182017
:102630008DF8230003208DF8220008A92948FEF711
:102640006DF90020ADF8140041F61F40ADF81800F8
:102650000020ADF81600ADF81A008DF81C0005A991
:102660002148FEF74FFD0020ADF80A000120ADF82B
:1026700006006020ADF804000020ADF80C0001A9B0
:102680001948FEF77CFD01A91748FEF7BAFD01A91C
:102690001548FEF703FE01A91348FEF74AFE08217C
:1026A0001148FFF7BBF908210F48FFF7C0F90821CF
:1026B0000D48FFF7C9F908210B48FFF7CEF90121B2
:1026C0000948FFF787F801210748FFF777F901214B
:1026D0000548FFF773F809B000BD0000000C014089
:1026E000001C0140001001400034014008B50121E8
:1026F0004020FEF7CFFB0720ADF8000010208DF83A
:10270000030003208DF802006946F448FEF706F93D
:102710004020ADF8000028208DF8030003208DF83C
:1027200002006946ED48FEF7F9F808BD38B50446E1
:10273000012000900020EA494870012000902EE01E
:10274000BDF80000204018B10120E649086002E011
:102750000020E44908600120E249083108600520B2
:10276000FDF715FF0020E049C1F888010520FDF7BD
:102770000EFF0120DC49C1F888010846D0F8180195
:1027800030B1D7484078BDF800100843D4494870AC
:10279000BDF800004FF6FF7101EA40000090BDF85F
:1027A0000000FF28CCDD1020FDF7F1FE38BD10B58C
:1027B0000020CC49091D0860CC490878FFF7B6FF16
:1027C000CA494878FFF7B2FF0120C749C1F8840120
:1027D000C3484078732801D1002010BD0120FCE7D8
:1027E0001CB500200190012000900020BD49091D6A
:1027F0000860BE490878FFF799FFBC494878FFF7A1
:1028000095FF0220019036E00120009027E0012092
:10281000B449083108600520FDF7B9FE0020B2492F
:10282000C1F888010520FDF7B2FE0120AE49C1F8CC
:1028300088010846D0F8180150B1A9489DF8041045
:10284000405CBDF800100843A5499DF80420885459
:10285000BDF800004FF6FF7101EA40000090BDF89E
:102860000000FF28D3DD1020FDF791FE9DF8040045
:10287000401CC0B201909DF804000928C4DB01206F
:102880009849091D08601CBD002004E00021944AFD
:102890001154411CC8B20928F8DB704710B5FFF786
:1028A000F3FFFFF79DFF8E48C0788D49097940EA14
:1028B00001208F49088000240FE08E4810F8140092
:1028C000401E012101FA00F089490988084010B929
:1028D000601CC0B210BD601CC4B2102CEDDB002027
:1028E000F8E701467E48405C704770B505460C46E7
:1028F00000207C49091D08601020FDF748FE0120DA
:10290000FFF714FF4220FFF711FF0020FFF70EFF33
:102910002846FFF70BFF2046FFF708FF0020FFF7D0
:1029200005FF0020FFF702FF0020FFF7FFFE002059
:10293000FFF7FCFE01206C49C1F884011020FDF76F
:1029400026FE70BD10B500206649091D08601020E4
:10295000FDF71DFE0120FFF7E9FE4220FFF7E6FE2E
:102960000020FFF7E3FE0020FFF7E0FE0020FFF766
:10297000DDFE01205C49C1F884011020FDF707FE4F
:1029800010BD10B500205749091D08601020FDF743
:10299000FEFD0120FFF7CAFE4320FFF7C7FE00201F
:1029A000FFF7C4FE0120FFF7C1FE0020FFF7BEFEC7
:1029B0000020FFF7BBFE0020FFF7B8FE0020FFF766
:1029C000B5FE0020FFF7B2FE01204749C1F884019F
:1029D0001020FDF7DCFD10BD10B500204149091D98
:1029E00008600120FFF7A2FE4420FFF79FFE0020B1
:1029F000FFF79CFE0120FFF799FEEE20FFF796FE01
:102A00000020FFF793FE0020FFF790FE0020FFF765
:102A10008DFE0020FFF78AFE01203349C1F88401B2
:102A20001020FDF7B4FD10BD10B500202D49091D83
:102A300008601020FDF7ABFD0120FFF777FE4D2069
:102A4000FFF774FE0020FFF771FE0020FFF76EFE17
:102A50000120FFF76BFE01202349C1F884011020FB
:102A6000FDF795FD10BD10B500201E49091D086039
:102A70001020FDF78CFD0120FFF758FE4320FFF7E3
:102A800055FE0020FFF752FE0020FFF74FFE5A20B0
:102A9000FFF74CFE5A20FFF749FE5A20FFF746FE8B
:102AA0005A20FFF743FE5A20FFF740FE01200E494F
:102AB000C1F884011020FDF76AFD10BD10B5FFF7C5
:102AC00041FFFFF73FFFFFF73DFFFFF75AFFFFF71B
:102AD00083FFFFF7A9FFFFF7C6FF10BD00180140F5
:102AE0008001002080012342000023424A00002090
:102AF000480000204C00002008B501210802FEF724
:102B0000C9F940F2EE30ADF8000004208DF8030062
:102B100003208DF802006946FE48FDF7FFFE08BD60
:102B200070B5FD480068FD490860FD480168FA4835
:102B3000006801F0B7FCFB49086008460168FA48E4
:102B4000006801F0B1FB0446F4480168F7480068EA
:102B500001F0AAFB0546214601F0D0FAF4490860CD
:102B6000ED480068EE49086070BD10B5F149EA48CB
:102B7000006801F065FC02D2EE48E749086010BD2C
:102B800070B50221E348FDF75CFFEB4908600421C2
:102B9000E048FDF756FFE84948600821DD48FDF7A9
:102BA00050FFE54988601021DA48FDF74AFFE24905
:102BB000C8602021D748FDF744FFDF490861402164
:102BC000D448FDF73EFFDC4948618021D148FDF73C
:102BD00038FFD94988614FF48071CE48FDF731FF45
:102BE000D549C8614FF40071CA48FDF72AFFD249A0
:102BF000086208460068F0B908464068D8B9084637
:102C00008068C0B90846C068012814D10846006928
:102C1000012810D10846406901280CD10846806976
:102C200048B90846C06930B90846006A18B900209A
:102C3000B949086023E1C0480068F8B9BE48406857
:102C4000E0B9BD488068C8B9BB48C068012815D143
:102C5000B9480069012811D1B748406901280DD150
:102C6000B5488069012809D1B348C06930B9B24874
:102C7000006A18B9B148A849086000E1AE48006888
:102C8000F8B9AD484068E0B9AB488068012818D170
:102C9000A948C068012814D1A7480069012810D1AB
:102CA000A548406901280CD1A348806948B9A248C9
:102CB000C06930B9A048006A18B9A14896490860AF
:102CC000DDE09D480068F8B99B484068E0B99A4843
:102CD0008068C8B99848C068B0B9974800690128A9
:102CE00012D19548406901280ED193488069012886
:102CF0000AD19148C06938B98F48006A20B94FF0AD
:102D00007C5085490860BAE08B480068F8B98A4869
:102D10004068E0B988488068012818D18648C068B2
:102D2000012814D184480069012810D182484069E3
:102D300068B98148806950B97F48C06938B97E4810
:102D4000006A20B94FF03F407349086097E07A4825
:102D50000068E8B978484068D0B977488068B8B961
:102D60007548C068A0B97448006988B9724840695C
:102D700001280DD170488069012809D16E48C069C9
:102D800030B96D48006A18B96E486349086076E04A
:102D900069480068E8B968484068D0B96648806802
:102DA000012816D16448C068012812D16248006920
:102DB00078B96148406960B95F48806948B95E4840
:102DC000C06930B95C48006A18B95F485249086068
:102DD00055E05948006868B957484068012809D14A
:102DE0005548C06930B95448006A18B957484A492B
:102DF000086044E05048006801280DD14E48406802
:102E0000012809D14C48C06930B94B48006A18B94B
:102E10004F484149086032E04748006870B9464869
:102E2000406858B94448C069012807D14248006A3F
:102E300020B94FF07F503849086020E03E480068D4
:102E400070B93D48406858B93B48C069012807D16E
:102E50003948006A012803D13E482F4908600EE036
:102E60003548006858B93448406840B93248C069AC
:102E700028B93148006A10B9002027490860FFF7D7
:102E80004FFEFFF772FEFFF709FD33490870084651
:102E90000078092812D1012080F3138800BF00BFF9
:102EA0002E48006800F4E0602D490843001D2B49BE
:102EB0000860BFF34F8F00BF00BFFEE729480068DE
:102EC00001F0A6F905461A480168284601F016F9EE
:102ED00080F00044204601F07FF923490860214832
:102EE000006801F095F9054611480168284601F08F
:102EF000D9FA80F00044204601F06EF91B490860C1
:102F00001848006801F084F9054609480168284618
:102F10002EE0000000200140740000207800002016
:102F20008C00002080000020700000206C00002039
:102F300084000020000096438C0100209A99993E5D
:102F40009A9999BECDCC4C3FCDCC4CBF3333B3BF57
:102F5000000020C0000020400C0100200CED00E02B
:102F60000000FA0594000020F0000020F40000208A
:102F700001F0C4F8044601F02FF90A4908600A4834
:102F8000006801F045F9054608480168284601F047
:102F900089FA80F00044204601F01EF904490860D7
:102FA00070BD0000F8000020940000208400002084
:102FB000FC00002000B589B00121C802FDF76AFFBE
:102FC00001214020FDF766FF01210846FDF762FF61
:102FD00001212C48FDF773FD4FF42850ADF8040093
:102FE00018208DF8070003208DF8060001A9264857
:102FF000FDF794FC0020ADF81E0044F61F60ADF80C
:103000001C004720ADF818000020ADF81A00ADF8FC
:103010001E0006A91D48FEF775F86020ADF80800EF
:103020000120ADF80A000020ADF80E00ADF8100048
:1030300002A91648FEF7A3F802A91448FEF7E1F822
:1030400002A91248FEF72AF908211048FEF7E6FC0B
:1030500008210E48FEF7EBFC08210C48FEF7F4FCB3
:1030600008210A48FEF7F9FC01210848FEF7B2FBE7
:1030700001210648FEF7A2FC01210448FEF79EFB51
:1030800009B000BDC000160000180140002C01402E
:1030900008B501210820FDF7FDFE4FF48070ADF862
:1030A000000010208DF8030003208DF8020069460F
:1030B0000448FDF733FC4FF480710248FDF7DDFC56
:1030C00008BD0000000C014008B501210802FDF711
:1030D000E1FE40F2EE30ADF8000004208DF8030070
:1030E00003208DF802006946C348FDF717FC08BDB0
:1030F00010B5C249C248006801F0A2F902D2BF4827
:10310000BF49086010BD0020BE490860BE49086084
:10311000BE490860BE490860704770B50221B648D4
:10312000FDF78FFCBB4908600421B348FDF789FC1B
:10313000B84948600821B048FDF783FCB54988606C
:103140001021AD48FDF77DFCB249C8602021AA4896
:10315000FDF777FCAF4908614021A748FDF771FCF6
:10316000AC4948618021A448FDF76BFCA9498861FE
:103170004FF48071A048FDF764FCA649C8614FF484
:1031800000719D48FDF75DFCA24908620846806811
:1031900090B90846C06801280ED108460069012888
:1031A0000AD108464069012806D10846806918B945
:1031B0000020934908609BE09648806898B995483C
:1031C000C06801280FD19348006901280BD19148AC
:1031D0004069012807D18F488069012803D18E48B2
:1031E0008749086084E08B488068012812D18948AB
:1031F000C06801280ED18748006901280AD1854896
:103200004069012806D18348806918B983487C4900
:1032100008606DE07F48806898B97E48C06880B9D2
:103220007C48006901280CD17A484069012808D1FE
:1032300078488069012804D14FF07C5070490860BB
:1032400056E074488068012812D17248C06801288D
:103250000ED17048006901280AD16E48406938B91A
:103260006C48806920B94FF03F40654908603FE0F5
:103270006848806888B96748C06870B9654800695F
:1032800058B964484069012807D16248806901281B
:1032900003D163485A4908602AE05E4880680128E3
:1032A00010D15C48C06801280CD15A48006948B95F
:1032B0005848406930B95748806918B95948504949
:1032C000086015E05348C069012811D15148006ACF
:1032D00001280DD154480078401C53490870084615
:1032E0000078092804D10020087004204F49087094
:1032F000434800684E4908604E48016840480068ED
:1033000001F0D0F84C490860084601684B48006855
:1033100000F0CAFF0446464801684948006800F0CA
:10332000C3FF0546214600F0E9FE464908603448DF
:10333000006840490860FFF7DBFEFFF7AFFA42493B
:10334000087008460078092812D1012080F31388FC
:1033500000BF00BF3D48006800F4E0603C490843FE
:10336000001D3A490860BFF34F8F00BF00BFFEE762
:103370003848006800F04CFF05463248016828468E
:1033800000F0BCFE80F00044204600F025FF1D49FF
:1033900008603048006800F03BFF05462948016896
:1033A000284601F07FF880F00044204600F014FF2A
:1033B000154908602748006800F02AFF05462148A3
:1033C0000168284600F09AFE044600F005FF0F4908
:1033D00008602048006800F01BFF05461948016896
:1033E000284601F05FF880F00044204600F0F4FE2B
:1033F0000749086070BD00000020014000009643AE
:10340000A0000020F0000020F4000020F8000020C0
:10341000FC000020B00100209A99993E9A9999BE2B
:10342000CDCC4C3FCDCC4CBF25000020240000204B
:10343000A4000020B4000020AC0000209C0000206C
:1034400098000020B00000200C0100200CED00E0EE
:103450000000FA05B800002008B501210802FDF7B8
:1034600019FD40F2EE30ADF8000004208DF80300A5
:1034700003208DF802006946FE48FDF74FFA08BDAB
:1034800070B5FD480068FD490860FD480168FA48CC
:10349000006801F007F8FB49086008460168FA482F
:1034A000006800F001FF0446F4480168F74800682E
:1034B00000F0FAFE0546214600F020FEF4490860BF
:1034C000ED480068EE49086070BD10B5F149EA4862
:1034D000006800F0B5FF02D2EE48E749086010BD71
:1034E0000020ED490860ED490860ED490860ED49AC
:1034F0000860704710B5EC480068A8B9EB48006850
:1035000090B9FFF7EDFF4FF4FA71E948FEF7F0FBD1
:103510004FF41670FDF75FF84FF44871E448FEF77A
:10352000E5FB0120E349086010BD70B50221D148D8
:10353000FDF787FAE04908600421CE48FDF781FADB
:10354000DD4948600821CB48FDF77BFADA498860FD
:103550001021C848FDF775FAD749C8602021C54831
:10356000FDF76FFAD44908614021C248FDF769FAB6
:10357000D14948618021BF48FDF763FACE4988618F
:103580004FF48071BB48FDF75CFACB49C8614FF43A
:103590000071B848FDF755FAC749086208468068C7
:1035A000C0B90846C068012814D10846006901283E
:1035B00010D10846406901280CD10846806948B9F5
:1035C0000846C06930B90846006A18B90020AA49FF
:1035D000086011E1B8488068C8B9B748C0680128D8
:1035E00015D1B5480069012811D1B34840690128B7
:1035F0000DD1B1488069012809D1AF48C06930B9FF
:10360000AD48006A18B9AD489B490860F4E0AA4883
:103610008068012819D1A848C068012815D1A6489A
:103620000069012811D1A448406901280DD1A248A0
:10363000806950B9A048C06938B99F48006A20B96C
:103640004FF03F408C490860D6E09B488068C8B97D
:103650009948C068B0B998480069012812D19648C5
:10366000406901280ED19448806901280AD1924806
:10367000C06938B99048006A20B94FF07C507E4943
:103680000860B9E08C488068012817D18A48C06872
:10369000012813D18848006901280FD18648406964
:1036A00060B98548806948B98348C06930B98248A3
:1036B000006A18B98248704908609DE07E488068B9
:1036C000B8B97D48C068A0B97B48006988B97A4814
:1036D000406901280DD178488069012809D17648D0
:1036E000C06930B97448006A18B976486249086000
:1036F00082E071488068012817D16F48C068A0B97E
:103700006D480069012810D16B48406968B96A4862
:103710008069012809D16848C06930B96648006AE3
:1037200018B969485449086066E063488068012810
:1037300016D16148C068012812D15F48006978B984
:103740005D48406960B95C48806948B95A48C069B9
:1037500030B95948006A18B95B48474908604BE0DE
:1037600055488068012815D15348C06890B952481F
:10377000006978B95048406960B94F48806948B9D4
:103780004D48C06930B94C48006A18B94E483A49AA
:10379000086031E04848C069012807D14648006AFE
:1037A000012803D149483449086025E04248C069EE
:1037B000012806D14048006A18B944482E490860DB
:1037C0001AE03D48C06938B93B48006A012803D176
:1037D0003E48294908600FE03748006860B936481C
:1037E000406848B93448C06930B93348006A18B9EC
:1037F0004FF07E5020490860FFF742FEFFF765FE5C
:10380000FFF778FEFFF74AF831490870084600785C
:10381000092812D1012080F3138800BF00BF2D4872
:10382000006800F4E0602C490843001D2949086045
:10383000BFF34F8F00BF00BFFEE72848006800F0CD
:10384000E7FC054612480168284600F057FC80F066
:103850000044204600F0C0FC0F4908601F48006883
:1038600000F0D6FC05460A480168284600F01AFE1A
:1038700036E0000000200140C8000020CC000020FD
:10388000E4000020D4000020C4000020C00000207C
:10389000D800002000009643F0000020F400002033
:1038A000F8000020FC00002020010020240100205E
:1038B000002C014008010020380200209A99993E0E
:1038C000333333BFCDCC4C3FCDCC4CBF9A99993FCD
:1038D0000C0100200CED00E00000FA05EC000020D7
:1038E00080F00044204600F077FC11490860114840
:1038F000006800F08DFC05460F480168284600F07E
:10390000FDFB044600F068FC0C49086009480068AB
:1039100000F07EFC054608480168284600F0C2FD1C
:1039200080F00044204600F057FC0549086070BD57
:10393000F4000020EC000020D8000020F800002057
:10394000FC0000207FB505460C4601212020FDF734
:10395000AEFAADF80850ADF804400020ADF80A000A
:10396000ADF8060001A90D48FDF7CCFB0122114678
:103970000A48FDF73EFF37208DF8000001208DF842
:1039800003008DF8010003208DF802006846FCF763
:10399000FCFE01210148FDF711FF7FBD001400402E
:1039A0000146002901DA484200E00846704700B5A8
:1039B0000246002A07DD0120FE4908600020FE497A
:1039C000C1F88C0106E00020FA4908600120FA499C
:1039D000C1F88C011046FFF7E3FFF849088000BDED
:1039E00000B50246002A08DD0120F24908390860C6
:1039F0000020F149C1F8840107E00020ED490839B1
:103A000008600120EC49C1F884011046FFF7C8FFA7
:103A1000EA49091F088000BD00B50246002A07DDFB
:103A20000120E74908600020E649C1F8B00106E03E
:103A30000020E34908600120E249C1F8B0011046C6
:103A4000FFF7AEFFDD490839088000BD00B502462A
:103A5000002A08DD0120DA49091D08600020D94943
:103A6000C1F8BC0107E00020D549091D086001200C
:103A7000D449C1F8BC011046FFF792FFCF490C3979
:103A8000088000BD41F6BC30CF49096842429142EE
:103A900002DA4142CC4A1160CB490968814201DD1A
:103AA000C9490860704741F6BC30C84909684242BC
:103AB000914202DA4142C54A1160C4490968814213
:103AC00001DDC2490860704741F6BC30C049096851
:103AD0004242914202DA4142BD4A1160BC49096842
:103AE000814201DDBA490860704741F6BC30B949EE
:103AF00009684242914202DA4142B64A1160B54930
:103B00000968814201DDB349086070472DE9F05F23
:103B100004460D46601BB04908600846006800F086
:103B200077FB8346AD480168584600F0BDFB8046F0
:103B3000A9490968AA4A1268881A00F069FB8346F5
:103B4000A8480168584600F0AFFB8146414600F0A6
:103B5000D5FA0746A448006800F05AFB8246394669
:103B600000F0CCFA064600F037FB9F4908609A48FF
:103B700000689B4908609C480068BDE8F09F2DE9FB
:103B8000F05F04460D46601B9849086008460068CF
:103B900000F03EFB834696480168584600F084FBDF
:103BA000804692490968934A1268881A00F030FBEF
:103BB000834691480168584600F076FB81464146AD
:103BC00000F09CFA07468D48006800F021FB824611
:103BD000394600F093FA064600F0FEFA874908607D
:103BE000824800688349086084480068BDE8F09F07
:103BF0002DE9F05F04460D46601B814908600846C8
:103C0000006800F005FB83467E480168584600F0D6
:103C10004BFB80467A4909687B4A1268881A00F093
:103C2000F7FA834679480168584600F03DFB814623
:103C3000414600F063FA07467548006800F0E8FA6C
:103C40008246394600F05AFA064600F0C5FA704935
:103C500008606B4800686C4908606D480068BDE802
:103C6000F09F2DE9F05F04460D46601B694908602E
:103C70000846006800F0CCFA834667480168584659
:103C800000F012FB804663490968644A1268881A8A
:103C900000F0BEFA834662480168584600F004FB13
:103CA0008146414600F02AFA07465E48006800F067
:103CB000AFFA8246394600F021FA064600F08CFA47
:103CC00058490860534800685449086055480068DE
:103CD000BDE8F09F10B501215348FEF72CF80128EC
:103CE00052D101215048FEF743F80220FEF7F7FBBE
:103CF0004E4908600320FEF7F2FB4D49086004209E
:103D0000FEF7EDFB4B4908600520FEF7E8FB4A494A
:103D100008606420FEF73BFC48480168434800689F
:103D2000FFF79FFF2B49086045480168404800683D
:103D3000FFF75EFF26490860424801683D48006879
:103D4000FFF71DFF214908603F4801683A480068B5
:103D5000FFF7DCFE1C490860FFF7C7FEFFF7B4FE63
:103D6000FFF7A1FEFFF78EFE1A480068FFF76EFE10
:103D700017480068FFF750FE14480068FFF730FE50
:103D800011480068FFF713FE002010BD10B54FF476
:103D9000A060FCF7F5FCFCF760FBFCF7DFFB4FF4E1
:103DA000E130FCF754FCFEF70DFCFEF71FFCFEF7BC
:103DB00030FC4BE09081234200802342403401409C
:103DC000B4812142008021421C0100201801002002
:103DD0001401002010010020740100204C0100207B
:103DE0007C010020480100207801002068010020AB
:103DF0004401002070010020400100206C010020DF
:103E00005C0100203C0100206401002038010020FA
:103E100060010020500100203401002058010020E2
:103E20003001002054010020001400402001002037
:103E300024010020280100202C010020F000002097
:103E4000F4000020F8000020FC000020FEF798F9A4
:103E5000FEF714FAFEF777FAFEF7DBFAFFF7AAF897
:103E60000A20FCF7B8FBFEF741FCFEF727FE41F6FF
:103E70001F416320FFF766FDFFF70AF9FEF73CFEDE
:103E80000A20FCF7A8FB10BD10B543425B1A9B1A31
:103E9000C3EB03135B00714C2360431A1344C3EB61
:103EA00003135B006E4C236043420B441344C3EB8B
:103EB00003135B006B4C23604318D31AC3EB03134B
:103EC0005B00694C236010BD70B568480068C0F1A4
:103ED0007F0000EB4000052190FBF1F5644800688D
:103EE000803800EB400090FBF1F662480068A0F1DA
:103EF000800404EBD470421029463046FFF7C4FF1B
:103F000070BD10B55C480068012805D10A20FCF797
:103F10003EFBFFF7D9FF43E057480068022805D170
:103F2000FEF72EFE0A20FCF732FB39E0524800680B
:103F300003282CD151480078012802D1FFF7EDF871
:103F400021E04E480078022809D1C8204349086082
:103F500043490860434908604349086013E0474803
:103F60000078032802D1FFF7D8F80CE04348007826
:103F7000042808D1002039490860394908603949C6
:103F80000860394908600A20FCF701FB08E03A485C
:103F90000068042804D1FFF7C8FA0A20FCF7F7FAF2
:103FA00010BD10B540F2DC513548FDF7A3FE40F2DC
:103FB000DC513348FDF79CFE10BD10B54FF448713D
:103FC0002F48FDF793FE10BD10B54FF4E1612C486A
:103FD000FDF78CFE10BD10B540F6C4112848FDF762
:103FE00089FE10BD10B54FF4FA712548FDF782FE29
:103FF00010BD10B5234800780D2806D00E280AD031
:104000000F280BD010280CD102E0FFF7EBFF0EE0D9
:10401000FFF7E1FF0BE0FFF7D7FF08E0FFF7CDFF69
:1040200005E0FFF7BEFF00201749086000BF00BF92
:1040300010BD10B540F6C4111148FDF759FE10BD72
:1040400010B54FF4FA710E48FDF752FE10BD10B5D1
:1040500040F698010A48FDF749FE10BDF000002027
:10406000F4000020F8000020FC00002000000020E8
:104070000400002008000020080100202400002087
:10408000002C01400C010020A081214270477047A4
:10409000704770477047754600F02CF8AE46050033
:1040A0006946534620F00700854618B020B5FCF756
:1040B00055FBBDE820404FF000064FF000074FF0E1
:1040C00000084FF0000B21F00701AC46ACE8C00936
:1040D000ACE8C009ACE8C009ACE8C0098D4670473F
:1040E00010B50446AFF300802046BDE81040FCF751
:1040F00086B80000004870475C02002090EA010F7B
:1041000048BF81F0004100F1D481421A3CBF801ABF
:1041100089184FEAD0524FF07F4C1CEA410FA2EBB6
:10412000D15318BF9CEA026F00F03B804FF0004C67
:104130004CEA00204CEA012121FA03FC10EB0C0CA4
:104140001ED202F1FF325FEA1C2040EBC25038BFA2
:1041500070471CF07F0F4FEA400C18BFBCF17F4F37
:1041600038BF7047C3F12003994008BF20F0010019
:10417000BCF17F4F38BF7047A0F1C04000F05BB981
:104180004FEA3C00000A40EBC25028BF1CF0FF0F72
:104190004FEA400CE6D018BFBCF17F4F38BF7047E4
:1041A000EAE79CEA026F05D010EA5C0F08BF00F056
:1041B0000040704710B500F0F8F800BF64FBBE3E49
:1041C000401058BFC0F14040491058BFC1F14041B4
:1041D0008142EFF30080704741000B0ED3F19E0245
:1041E00008D950F400034FEA032323FA02F048BF32
:1041F0004042704710B500F0D8F800BF49922480C3
:10420000002070476FF0004282EA200070470000F3
:1042100010F0004148BF4042B0FA80F310FA03F2B8
:10422000C3F19D030BD051EAC35101EB1220530699
:1042300038BF704700F1010008BF20F0010070474F
:1042400050EA010C00F113801CF5000F58BFBCF5BB
:10425000000F01D48842704707D710F5000F58BFF0
:1042600011F5000F15D488427047894270471CF53C
:10427000000F04D5BCF5000FF7D5814270474FF011
:10428000807C1CEB400F38BF1CEB410F01D28142F8
:10429000704710B500F089F8922449004FF00050A3
:1042A0004FF08051FFF78CBF4FF47F0C1CEAD01207
:1042B0001EBF1CEAD11392EA0C0F93EA0C0F00F018
:1042C000478090EA010F48BF42F480724FF0004CE3
:1042D0004CEA00204CEA012102EB0302A0FB01138F
:1042E000A2F50002002918BF43F001035B0028BFBC
:1042F0004FEA330342EB22425FEA132C4CEBC250ED
:104300002EBFBCEB436FB2F57C0F70474FEA036CD6
:10431000BCF1004F08BF20F00100B2F57C0F38BFA0
:1043200070470BD582F0FF0212F5803FC8BF70477F
:1043300000F1C040D8BF00F00040704700F5000C0D
:104340005FEA4C0C48BF7047B0F1C04000F073B852
:1043500090EA010F0CEAD11348BF42F48072624523
:1043600038BF634504D280EA010000F00040704786
:1043700010B500F01AF800BF8900013E00F007B840
:1043800000F009B85FEA410C5FEA1C6C08D080EAD3
:10439000010000F050B85FEA400C5FEA1C6CF6D1F7
:1043A0004FF00040A0F5800070470EF1020E2EF095
:1043B000030E5EF8044B244204D44FEA4102B2F1EA
:1043C0007F4F11D84FEA4003B3F17F4F0CD80ED185
:1043D0004FEAD07CB2F17F4F0CEB4C0C0CF1020C8D
:1043E00008BF4CEBD17C04E04FF0080C01E04FEA31
:1043F000D17C0CEB4C0324FA03F404F00704B4F171
:10440000040C06D20EEB840CBDE810404CF0010CFD
:104410006047DFE80CF0070802024FF00040A0F50B
:10442000800010BD0846420018BFD2F1807288BFDC
:1044300000F0004010BDFF2141EAD050C005704798
:1044400051EA000C00F113801CF5000F58BFBCF5B9
:10445000000F01D48142704707D711F5000F58BFF4
:1044600010F5000F15D481427047894270471CF542
:10447000000F04D5BCF5000FF7D5884270474FF008
:10448000807C1CEB410F38BF1CEB400F01D28842EF
:10449000704780EA010081EA000180EA0100FFF72D
:1044A000F8BE000090EA010F48BF81F000413FF5DF
:1044B0002CAE421A04D882F00042A0EB0200114454
:1044C0004FEAD0524FF07F4C1CEA410FA2EBD15380
:1044D00018BF9CEA026F4AD04FF0004C4CEA002013
:1044E0004CEA012121FA03FCB0EB0C0C0FD412F0C2
:1044F000FE0F36D05FEA4C001DD5001240EBC250D3
:1045000038BF70471CF03F0F18BF70470BE0A2F197
:1045100001025FEA1C2040EBC25038BF70471CF01C
:104520007F0F18BF7047C3F12003994014BF401E8E
:1045300020F00100704780084FEA122308BF70473F
:10454000B0FA80FCA2EB0C02CCF1280C60FA0CF063
:1045500093EA122F04BF00EBC25070474FEAC370BA
:104560007047130A5FEADC1008BF7047F6E79CEA61
:10457000026F04D010EA5C0F08BF0020704710B52E
:10458000FFF713FF40DFF63E81F000407047000068
:10459000B045000800000020800100006C01000808
:1045A000144600088001002040070000C8010008F0
:1045B000D184A24A04000912010203040607080973
:1045C000291A691E7D0204060818134201120212FC
:1045D00003120412051206120712081209120A1217
:1045E0000B120C120D120E120F22102440834403E2
:1045F0002096422A4C860B1BC08F2C7320031B80F5
:10460000BB2803242F4303452C010E19416666661F
:044610003F08012D31
:0400000508000131BD
:00000001FF
